:020000040800F2
:100000000000022041560008055500080D55000863
:10001000155500081D550008255500080000000072
:10002000000000000000000000000000B1E0000837
:100030002D5500080000000001E3000869E30008F6
:1000400091560008915600089156000891560008F4
:1000500091560008915600083B5500084955000884
:10006000575500086555000891560008915600083C
:1000700091560008915600089156000891560008C4
:1000800091560008915600089156000800000000A3
:100090000000000000000000000000009156000871
:1000A0009156000891560008915600089156000894
:1000B00075550008895500089156000891560008AA
:1000C0009156000891560008915600089156000874
:1000D0009156000891560008915600080000000053
:1000E0009156000891560008915600080000000043
:1000F0000000000000000000000000009156000811
:100100000000000091560008915600089156000822
:1001100000000000000000000000000000000000DF
:100120009156000891560008915600089156000813
:1001300091560008000000000000000000000000D0
:100140000000000000000000000000009D550008B5
:1001500091560008915600089156000891560008E3
:1001600091560008915600080000000000000000B1
:10017000000000000000000000000000000000007F
:100180000000000091560008000000000000000080
:08019000915600089156000889
:1001A00010B5054C237833B9044B13B10448AFF3B1
:1001B00000800123237010BD6000002000000000BB
:1001C000D4F5000808B5034B1BB103490348AFF34E
:1001D000008008BD0000000064000020D4F5000885
:1001E000034613F8012B002AFBD1181A0138704777
:1001F00001F0FF01102A2BDB10F0070F08D010F8D8
:10020000013B013A8B422DD010F0070F42B3F6D1DB
:10021000F0B441EA012141EA014122F007047FF0F4
:1002200000070023F0E80256083C85EA010586EA4B
:10023000010685FA47F5A3FA87F586FA47F6A5FA87
:1002400087F68EB9EED1F0BC01F0FF0102F0070293
:1002500032B110F8013B013A83EA010313B1F8D13E
:100260000020704701387047002D06BF354603381F
:10027000073815F0010F07D1013015F4807F02BF58
:10028000013015F4C03F0130F0BC0138704700BFA9
:1002900081F0004102E000BF83F0004330B54FEA37
:1002A00041044FEA430594EA050F08BF90EA020FA4
:1002B0001FBF54EA000C55EA020C7FEA645C7FEA37
:1002C000655C00F0E2804FEA5454D4EB5555B8BF5A
:1002D0006D420CDD2C4480EA020281EA030382EACB
:1002E000000083EA010180EA020281EA0303362D5D
:1002F00088BF30BD11F0004F4FEA01314FF4801C30
:100300004CEA113102D0404261EB410113F0004F41
:100310004FEA03334CEA133302D0524263EB4303F8
:1003200094EA050F00F0A780A4F10104D5F1200E96
:100330000DDB02FA0EFC22FA05F2801841F10001F1
:1003400003FA0EF2801843FA05F359410EE0A5F1C5
:1003500020050EF1200E012A03FA0EFC28BF4CF0F6
:10036000020C43FA05F3C01851EBE37101F00045AC
:1003700007D54FF0000EDCF1000C7EEB00006EEBB9
:100380000101B1F5801F1BD3B1F5001F0CD3490843
:100390005FEA30004FEA3C0C04F101044FEA44529A
:1003A00012F5800F80F09A80BCF1004F08BF5FEA21
:1003B000500C50F1000041EB045141EA050130BD01
:1003C0005FEA4C0C404141EB0101013C28BFB1F513
:1003D000801FE9D291F0000F04BF01460020B1FA5E
:1003E00081F308BF2033A3F10B03B3F120020CDA31
:1003F0000C3208DD02F1140CC2F10C0201FA0CF00F
:1004000021FA02F10CE002F11402D8BFC2F1200C73
:1004100001FA02F120FA0CFCDCBF41EA0C01904029
:10042000E41AA2BF01EB0451294330BD6FEA040472
:100430001F3C1CDA0C340EDC04F11404C4F120025D
:1004400020FA04F001FA02F340EA030021FA04F36F
:1004500045EA030130BDC4F10C04C4F1200220FAC6
:1004600002F001FA04F340EA0300294630BD21FA04
:1004700004F0294630BD94F0000F83F4801306BFCA
:1004800081F480110134013D4EE77FEA645C18BFBE
:100490007FEA655C29D094EA050F08BF90EA020F55
:1004A00005D054EA000C04BF1946104630BD91EA4D
:1004B000030F1EBF0021002030BD5FEA545C05D150
:1004C0004000494128BF41F0004130BD14F580048F
:1004D0003CBF01F5801130BD01F0004545F0FE4103
:1004E00041F470014FF0000030BD7FEA645C1ABF38
:1004F000194610467FEA655C1CBF0B46024650EA6F
:10050000013406BF52EA033591EA030F41F400219A
:1005100030BD00BF90F0000F04BF0021704730B520
:100520004FF4806404F132044FF000054FF00001F5
:1005300050E700BF90F0000F04BF0021704730B5B6
:100540004FF4806404F1320410F0004548BF40428B
:100550004FF000013EE700BF42004FEAE2014FEAE0
:1005600031014FEA02701FBF12F07F4393F07F4FBB
:1005700081F06051704732F07F4208BF704793F0BE
:100580007F4F04BF41F40021704730B54FF46074D1
:1005900001F0004521F000411CE700BF50EA0102D4
:1005A00008BF704730B54FF000050AE050EA01027D
:1005B00008BF704730B511F0004502D5404261EBED
:1005C00041014FF4806404F132045FEA915C3FF42E
:1005D000D8AE4FF003025FEADC0C18BF03325FEACB
:1005E000DC0C18BF033202EBDC02C2F1200300FA7C
:1005F00003FC20FA02F001FA03FE40EA0E0021FAA1
:1006000002F11444BDE600BF70B54FF0FF0C4CF48E
:10061000E06C1CEA11541DBF1CEA135594EA0C0F40
:1006200095EA0C0F00F0DEF82C4481EA030621EA7B
:100630004C5123EA4C5350EA013518BF52EA0335B6
:1006400041F4801143F4801338D0A0FB02CE4FF068
:100650000005E1FB02E506F00042E0FB03E54FF098
:100660000006E1FB03569CF0000F18BF4EF0010E90
:10067000A4F1FF04B6F5007F64F5407404D25FEA8C
:100680004E0E6D4146EB060642EAC62141EA55513F
:100690004FEAC52040EA5E504FEACE2EB4F1FD0C81
:1006A00088BFBCF5E06F1ED8BEF1004F08BF5FEAFF
:1006B000500E50F1000041EB045170BD06F00046B1
:1006C00046EA010140EA020081EA0301B4EB5C045E
:1006D000C2BFD4EB0C0541EA045170BD41F4801156
:1006E0004FF0000E013C00F3AB8014F1360FDEBF7B
:1006F000002001F0004170BDC4F10004203C35DA57
:100700000C341BDC04F11404C4F1200500FA05F3D9
:1007100020FA04F001FA05F240EA020001F000427A
:1007200021F0004110EBD37021FA04F642EB0601F0
:100730005EEA430E08BF20EAD37070BDC4F10C041A
:10074000C4F1200500FA04F320FA05F001FA04F2DE
:1007500040EA020001F0004110EBD37041F10001CA
:100760005EEA430E08BF20EAD37070BDC4F12005D5
:1007700000FA05F24EEA020E20FA04F301FA05F23D
:1007800043EA020321FA04F001F0004121FA04F2E5
:1007900020EA020000EBD3705EEA430E08BF20EAB5
:1007A000D37070BD94F0000F0FD101F000464000EF
:1007B00041EB010111F4801F08BF013CF7D041EA71
:1007C000060195F0000F18BF704703F00046520075
:1007D00043EB030313F4801F08BF013DF7D043EA46
:1007E0000603704794EA0C0F0CEA135518BF95EAFC
:1007F0000C0F0CD050EA410618BF52EA4306D1D183
:1008000081EA030101F000414FF0000070BD50EAA1
:10081000410606BF1046194652EA430619D094EA2B
:100820000C0F02D150EA013613D195EA0C0F05D115
:1008300052EA03361CBF104619460AD181EA030169
:1008400001F0004141F0FE4141F470014FF0000021
:1008500070BD41F0FE4141F4780170BD70B54FF0BC
:10086000FF0C4CF4E06C1CEA11541DBF1CEA13553C
:1008700094EA0C0F95EA0C0F00F0A7F8A4EB05041E
:1008800081EA030E52EA03354FEA013100F0888015
:100890004FEA03334FF0805545EA131343EA1263DE
:1008A0004FEA022245EA111545EA10654FEA002693
:1008B0000EF000419D4208BF964244F1FD0404F54C
:1008C000407402D25B084FEA3202B61A65EB0305A8
:1008D0005B084FEA32024FF480104FF4002CB6EB65
:1008E000020E75EB030E22BFB61A754640EA0C00E5
:1008F0005B084FEA3202B6EB020E75EB030E22BF25
:10090000B61A754640EA5C005B084FEA3202B6EB65
:10091000020E75EB030E22BFB61A754640EA9C0024
:100920005B084FEA3202B6EB020E75EB030E22BFF4
:10093000B61A754640EADC0055EA060E18D04FEAB2
:10094000051545EA16754FEA06164FEAC30343EA52
:1009500052734FEAC2025FEA1C1CC0D111F4801F1F
:100960000BD141EA00014FF000004FF0004CB6E718
:1009700011F4801F04BF01430020B4F1FD0C88BFB7
:10098000BCF5E06F3FF6AFAEB5EB030C04BFB6EBC2
:10099000020C5FEA500C50F1000041EB045170BDB5
:1009A0000EF0004E4EEA113114EB5C04C2BFD4EBE2
:1009B0000C0541EA045170BD41F480114FF0000E66
:1009C000013C90E645EA060E8DE60CEA135594EAE2
:1009D0000C0F08BF95EA0C0F3FF43BAF94EA0C0FE5
:1009E0000AD150EA01347FF434AF95EA0C0F7FF45A
:1009F00025AF104619462CE795EA0C0F06D152EAAE
:100A000003353FF4FDAE1046194622E750EA410691
:100A100018BF52EA43067FF4C5AE50EA41047FF4A2
:100A20000DAF52EA43057FF4EBAE12E74FEA410205
:100A300012F5001215D211D56FF47873B3EB625230
:100A400012D94FEAC12343F0004343EA505311F057
:100A5000004F23FA02F018BF404270474FF00000E9
:100A6000704750EA013005D111F0004008BF6FF027
:100A7000004070474FF00000704700BF53B94AB9BB
:100A8000002908BF00281CBF4FF0FF314FF0FF3096
:100A900000F06AB9ADF1080C6DE904CE00F006F87B
:100AA000DDF804E0DDE9022304B070472DE9F047EA
:100AB000089D0C46002B4ED194468C458646B2FAD2
:100AC00082F262D94AB1C2F12003914020FA03F3C5
:100AD0000CFA02FC194300FA02FE4FEA1C471FFA07
:100AE0008CF6B1FBF7F44FEA1E4307FB141143EAFF
:100AF000014304FB06F199420AD91CEB030304F1FC
:100B0000FF3080F01281994240F20F81023C634431
:100B1000591A1FFA8EF3B1FBF7F007FB101143EAE5
:100B2000014300FB06F69E420AD91CEB030300F1C9
:100B3000FF3180F0FC809E4240F2F980634402382D
:100B40009B1B40EA044000211DB1D3400022C5E9AF
:100B50000032BDE8F0878B4205D90DB1C5E900012F
:100B600000210846F5E7B3FA83F1002946D1A342F4
:100B700002D39042C0F0F080861A64EB0303012098
:100B8000002DE6D0C5E90063E3E7002A40F090803D
:100B9000A1EB0C044FEA1C481FFA8CF70121B4FBAF
:100BA000F8F64FEA1E4308FB164443EA044307FBEA
:100BB00006F0984208D91CEB030306F1FF3402D279
:100BC000984200F2CD8026461C1A1FFA8EF3B4FB21
:100BD000F8F008FB104443EA044300FB07F79F4288
:100BE00008D91CEB030300F1FF3402D29F4200F24C
:100BF000B0802046DB1B40EA0640A5E7C1F1200695
:100C00008B4022FA06F71F4320FA06FC04FA01F390
:100C100043EA0C03F44000FA01F8380C4FEA134998
:100C2000B4FBF0FE1FFA87FC00FB1E4449EA0444B3
:100C30000EFB0CF9A14502FA01F20AD93C190EF19A
:100C4000FF3A80F08480A14540F28180AEF1020E2F
:100C50003C44A4EB09041FFA83F9B4FBF0F300FB56
:100C6000134449EA044403FB0CFCA44507D93C198E
:100C700003F1FF3067D2A44565D9023B3C4443EA07
:100C80000E40A0FB0293A4EB0C049C42CE469C4673
:100C900051D34ED055B1B8EB0E0364EB0C0404FAFB
:100CA00006F6CB401E43CC40C5E90064002150E766
:100CB000C2F1200320FA03F10CFA02FC24FA03F338
:100CC00094400C434FEA1C4800FA02FE1FFA8CF7CE
:100CD000B3FBF8F008FB1031230C43EA014300FB9F
:100CE00007F1994208D91CEB030300F1FF362CD21F
:100CF00099422AD9023863445B1AA4B2B3FBF8F1D3
:100D000008FB113344EA034401FB07F3A34208D96B
:100D10001CEB040401F1FF3613D2A34211D90239AE
:100D20006444E41A41EA004139E70446F0E6084623
:100D300006E7C845AED2B9EB020E63EB070C0138EB
:100D4000A8E73146EDE7034699E73046D4E7D646B3
:100D50007FE7634402384DE70646234608460FE71F
:100D6000023E634430E700BF704700BFB0B48FB0AD
:100D700000AF786040F2B113FB62072387F8303090
:100D8000072387F83130012387F83230FF2387F8B3
:100D90003630642387F837300823BB867B681D46CE
:100DA00007F10C040FCC0FC50FCC0FC594E807005A
:100DB00085E8070078683C37BD46B0BC704780B511
:100DC00082B000AF78607B6898687B689B8900225E
:100DD000194604F043FF012004F09EFC7B689868EC
:100DE0007B689B890122194604F038FF642004F0D7
:100DF00093FC00BF0837BD4680BD80B584B000AF0E
:100E0000786039600121786800F015FA0346BB73F9
:100E1000BB7BFB733B68002B07D1BB7B23F0070335
:100E2000FB737B680022DA6149E03B68012B0CD13F
:100E300097F90E3023F007035BB243F001035BB276
:100E4000FB737B680122DA6139E03B68032B0CD12C
:100E500097F90E3023F007035BB243F003035BB254
:100E6000FB737B680322DA6129E03B68052B0CD118
:100E700097F90E3023F007035BB243F005035BB232
:100E8000FB737B680522DA6119E03B68062B0CD105
:100E900097F90E3023F007035BB243F006035BB211
:100EA000FB737B680622DA6109E03B68072B06D1F9
:100EB000BB7B43F00703FB737B680722DA61FB7B94
:100EC0001A460121786800F0D0F900BF1037BD46FE
:100ED00080BD80B584B000AFF860B9603B60134658
:100EE000FB80FB681868FB689B880022194604F0A9
:100EF000B5FEFB689869FA884FF47A63B96806F022
:100F00008AFD00BFFB689B69184607F08AF9034613
:100F1000012BF7D1FB6898693A8B4FF47A633968F3
:100F200006F0BDFE00BFFB689B69184607F079F923
:100F30000346012BF7D1FB681868FB689B880122E8
:100F4000194604F08BFE00BF1037BD4680BD80B54A
:100F500084B000AFF860B9603B601346FB80FB686B
:100F60001868FB689B880122194604F077FE0A2066
:100F700004F0D2FBFB681868FB689B8800221946C6
:100F800004F06CFEFB689869FA884FF47A63B968DC
:100F900006F041FD00BFFB689B69184607F041F968
:100FA0000346012BF7D1FB6898693A8B4FF47A63BB
:100FB000396806F030FD00BFFB689B69184607F0F2
:100FC00030F90346012BF7D1FB681868FB689B8852
:100FD0000122194604F042FE00BF1037BD4680BD15
:100FE00080B584B000AF78600B46FB70262178682E
:100FF00000F021F90346BB73FB78002B04D0BB7BC8
:1010000043F00803FB7303E0BB7B23F00803FB738F
:10101000FB7B1A462621786800F027F90A2004F0A5
:101020007BFB00BF1037BD4680BD000080B596B089
:1010300000AF7860174A07F108031146502218469E
:101040000DF03AFF7B6893F824301A460123934051
:101050001846FFF76FFA7B6893F82530DB005833AA
:101060003B44503BD3E90023FFF7F8FB02460B4615
:1010700010461946FFF7DAFC0346102BCCBF0123BC
:101080000023DBB219467868FFF7AAFF00BF583784
:10109000BD4680BDF0F5000880B584B000AF786033
:1010A00039603B68DB045B11FB60FB681B0CFB7267
:1010B000FB7A1A460621786800F0D7F8052004F07C
:1010C0002BFBFB681B0AFB72FB7A1A460721786828
:1010D00000F0CBF8052004F01FFBFB68FB72FB7AE5
:1010E0001A460821786800F0C0F8052004F014FBC7
:1010F00000BF1037BD4680BD80B584B000AF7860BA
:1011000039603B680C2B01DD0C233B603B68062BF0
:1011100001DC07233B601E21786800F08CF8034651
:10112000FB730A2004F0F8FA3B68DBB21B01DAB269
:10113000FB7B03F00F03DBB21344BB73BB7B1A468C
:101140001E21786800F091F80A2004F0E5FA78682A
:10115000FFF76CFF00BF1037BD4680BD80B582B081
:1011600000AF78600B46FB70FB781A46092178685F
:1011700000F07BF80A2004F0CFFA00BF0837BD4624
:1011800080BD000080B584B000AF78600B46FB7076
:101190000023FB73FB782C2B01D82D23FB70FB78ED
:1011A000F02B01D9F023FB70FB78782B09D8FB7862
:1011B0002D3B124A82FB03125210DB17D31AFB732A
:1011C0000BE0FB78F02B08D8FB781E330B4A82FB30
:1011D00003129210DB17D31AFB73FB7B2033FB73D4
:1011E000FB7B1A460B21786800F03FF80A2004F0D8
:1011F00093FA00BF1037BD4680BD00BF67666666C4
:1012000080B584B000AF78601E21786800F013F8D4
:101210000346FB73FB7B43F00703BB73BB7B1A46A0
:101220001E21786800F021F80A2004F075FA00BF4A
:101230001037BD4680BD80B586B002AF78600B46E2
:10124000FB70FB7803F07F03DBB2BB7307F10F0386
:1012500007F10E010122009201227868FFF739FEA2
:10126000FB7B18461037BD4680BD80B586B002AF07
:1012700078600B46FB701346BB70FB7863F07F030E
:10128000DBB2BB73BB78FB7307F10F0307F10E01F1
:101290000122009201227868FFF759FE00BF103743
:1012A000BD4680BD80B586B000AFF8607A601A4652
:1012B0000B46FB721346BB72FB7A63F07F03DBB213
:1012C000FB75FB681868FB689B880022194604F0D0
:1012D000C5FCFB68986907F117014FF47A63012296
:1012E00006F099FB00BFFB689B69184606F099FF62
:1012F0000346012BF7D1FB689869BB7A9AB24FF489
:101300007A63796806F087FB00BFFB689B69184623
:1013100006F087FF0346012BF7D1FB681868FB68CE
:101320009B880122194604F099FC00BF1837BD467E
:1013300080BD80B483B000AF7860012318460C37BD
:10134000BD465DF8047B704780B586B000AFF8609D
:10135000B96011461A460B46FB711346BB80FB6809
:10136000DB697B610121F868FFF747FD0E21F86812
:10137000FFF761FF0346FB74FB7C1A460D21F868FA
:10138000FFF773FFFB791A462221F868FFF76DFF1C
:10139000FB79BA680021F868FFF784FF0321F86839
:1013A000FFF72BFD1221F868FFF745FF0346FB749A
:1013B000FB7C03F00803002B0AD0FF221221F868FF
:1013C000FFF753FF7969F868FFF717FD01230FE076
:1013D000BB88013BBB80BB88002B05D17969F868CD
:1013E000FFF70BFD002303E0012004F095F9D9E796
:1013F00018461837BD4680BD80B582B000AF786012
:1014000005217868FFF7F9FC00BF0837BD4680BDAD
:1014100080B582B000AF786007217868FFF7EDFCF7
:1014200000BF0837BD4680BD90B589B000AFF860F9
:10143000B9601346FB710023FB770023BB6107E013
:10144000BB69BA68134400221A70BB690133BB61DF
:10145000FB79BA699A42F3DB0121F868FFF7CDFC0A
:101460001221F868FFF7E7FE0346FB74FB7C03F0EC
:101470004003002B2FD0FF221221F868FFF7F5FE62
:101480001321F868FFF7D7FE0346BB741021F868F4
:10149000FFF7D1FE0346FB74FB7C1A460D21F8686A
:1014A000FFF7E3FEBA7CFB79934228BF1346FB7734
:1014B00000237B610BE07B69BA68D4180021F868CF
:1014C000FFF7B9FE034623707B6901337B61FB7F25
:1014D0007A699A42EFDB0521F868FFF78EFCFB7F03
:1014E00018462437BD4690BD80B584B000AF786003
:1014F0007868FFF71EFF0346002B00F0968000215E
:101500007868FFF77AFC0A2004F006F90121786870
:10151000FFF791FE0346FB730A2004F0FDF8FB7B06
:1015200063F07F03BB73BB7B1A4601217868FFF72A
:101530009CFE642004F0F0F87B681B6A194678680A
:10154000FFF7AAFD7B6893F82A3019467868FFF701
:1015500005FE7B6893F82B3019467868FFF712FE7A
:1015600023220C217868FFF780FE7868FFF748FE99
:101570007B6893F8243019467868FFF7BDFDFF2299
:101580001F217868FFF771FE0023BB737B6893F817
:1015900025301B01DAB27B6893F826305B00DBB2A2
:1015A0001344BB73BB7B1A461D217868FFF75DFEB1
:1015B0007868FFF73BFD7B681B8D1B0A9BB2DBB293
:1015C0001A4620217868FFF750FE7B681B8DDBB23E
:1015D0001A4621217868FFF748FE40217868FFF716
:1015E0002AFE0346FB73FB7B43F03F03BB73BB7BCD
:1015F0001A4640217868FFF738FE01217868FFF726
:10160000FCFB7B680122DA610A2004F085F84221A4
:101610007868FFF710FE0346FB73FB7B122B01D1AA
:10162000C82304E04FF4CA7301E040F2F7131846F0
:101630001037BD4680BD000080B483B000AF0346C4
:10164000FB7197F90730002B0BDBFB7903F01F02CE
:10165000074997F907305B09012000FA02F241F8C7
:10166000232000BF0C37BD465DF8047B704700BFE8
:1016700000E100E080B483B000AF0346FB7197F94E
:101680000730002B12DBFB7903F01F020A4997F9A0
:1016900007305B09012000FA02F2203341F82320D1
:1016A000BFF34F8F00BFBFF36F8F00BF00BF0C377A
:1016B000BD465DF8047B704700E100E080B500AFF7
:1016C0004320FFF7D7FF0620FFF7D4FF0720FFF7DF
:1016D000D1FF0820FFF7CEFF0920FFF7CBFF00BFA7
:1016E00080BD80B500AF4320FFF7A6FF0620FFF7BF
:1016F000A3FF0720FFF7A0FF0820FFF79DFF0920A9
:10170000FFF79AFF00BF80BD80B586B000AFF860DC
:10171000B9601346FB71FB7918460DF0ABFA03462E
:101720007B61BA68F96878690DF062FBFB799AB25F
:101730004FF47A737969054807F07CFB78690DF0FE
:10174000A1FA00BF1837BD4680BD00BF8019002038
:1017500080B400AF074B1B689B6803F08303022B28
:1017600001D1012300E000231846BD465DF8047B4B
:10177000704700BF9818002080B500AFFFF79EFFAC
:101780000348FFF739FEFFF7ACFF00BF80BD00BF85
:101790007C00002080B500AFFFF790FF0348FFF703
:1017A00037FEFFF79EFF00BF80BD00BF7C0000201A
:1017B00080B582B000AFFFF7EDFF03F0A1FF7860C6
:1017C00009E003F09DFF02467B68D31AB3F57A7FE8
:1017D00001D9002316E012210C48FFF72CFD034627
:1017E00003F00403002BECD012210848FFF723FD7F
:1017F000034603F00103FB70FF2212210348FFF7A9
:1018000034FDFB7818460837BD4680BD7C000020BB
:10181000B0B58CB000AF2F4C3B461846FFF7A6FA88
:1018200025463C460FCC0FC50FCC0FC594E80700EA
:1018300085E80700274B284A1A60264B4FF4807230
:101840009A80244B244A9A60224B10229A81214B81
:10185000224A1A611F4B01229A821E4B204A9A612A
:101860001C4B40F2B1121A621A4B072283F8242053
:10187000184B082283F82520164B012283F82620D6
:10188000144BFC2283F82A20124B962283F82B203B
:10189000104B0A221A850F48FFF791FA0D48FFF7FF
:1018A00023FE0346C82B07D14FF4FA6312220D49D9
:1018B0000D4807F0BFFA06E04FF4FA6312220B4915
:1018C000094807F0B7FA0348FFF796FD00BF303725
:1018D000BD46B0BD7C000020000002400004024074
:1018E0009818002040F600088019002054F60008DF
:1018F00080B485B000AF78600B46FB707B68002B2E
:1019000015D00023FB600023BB600AE0BB687A6847
:1019100013441B781A46FB681344FB60BB68013311
:10192000BB60FB78BA689A42F0DBFB6800E00023FA
:1019300018461437BD465DF8047B704790B585B0F6
:1019400000AF0446084611461A462346FB7103467B
:10195000BB710B467B7113463B71FFF7AFFE204A0C
:101960007B7913701E4AFB7953701D4ABB799370C3
:101970001B4A97F82C30D370194B00221A71184A61
:101980003B795371164A97F828309373144A3B6A8F
:10199000C2F8063097F828301946786AFFF7A8FF92
:1019A00003460F4AC2F80A3097F828301A46796A77
:1019B0000C480DF081FA0A4BFB604FF47A632F223A
:1019C000F9680948FFF7C0FC7B79092219460748E6
:1019D000FFF79AFEFFF785FE00BF1437BD4690BDA6
:1019E000A8000020B70000207C00002068F6000856
:1019F00080B485B000AF78600023FB7310E0FA7B01
:101A0000796813465B0013441B019B1A0B44053392
:101A10001B78002B01D1FB7B07E0FB7B0133FB73C1
:101A2000FB7B022BEBD94FF0FF3318461437BD4632
:101A30005DF8047B704780B485B000AF78600B46DA
:101A4000FB700023FB731DE0FA7B796813465B0093
:101A500013441B019B1A0B4405331B78002B0ED03B
:101A6000FA7B796813465B0013441B019B1A0B44F5
:101A70000A331B78FA789A4201D1FB7B07E0FB7BA3
:101A80000133FB73FB7B022BDED94FF0FF3318468B
:101A90001437BD465DF8047B704780B584B000AF55
:101AA00078600B46FB70FB78FB7319E0FA7B1346FA
:101AB0005B0013441B019B1A7A681344581DFB7B7F
:101AC0005A1C13465B0013441B019B1A7A6813448B
:101AD00005332F2219460DF0EFF9FB7B0133FB7321
:101AE000FB7B012BE2D97B6863332F220021184650
:101AF0000DF09EF900BF1037BD4680BD80B485B0A3
:101B000000AF78600023FB7310E0FA7B796813461E
:101B10005B0013441B019B1A0B4492331B78002B70
:101B200001D1FB7B07E0FB7B0133FB73FB7B022BCB
:101B3000EBD94FF0FF3318461437BD465DF8047BF0
:101B4000704780B485B000AF78600B46FB7000230F
:101B5000FB7311E0FA7B796813465B0013441B01A9
:101B60009B1A0B4492331B78FA789A4201D1FB7B83
:101B700007E0FB7B0133FB73FB7B022BEAD94FF0C1
:101B8000FF3318461437BD465DF8047B704780B4B8
:101B900085B000AF78600B46FB700023FB731DE03F
:101BA000FA7B796813465B0013441B019B1A0B44B4
:101BB00092331B78002B0ED0FA7B796813465B00BA
:101BC00013441B019B1A0B4497331B78FA789A42F3
:101BD00001D1FB7B07E0FB7B0133FB73FB7B022B1B
:101BE000DED94FF0FF3318461437BD465DF8047B4D
:101BF00070470000F0B58BB004AFF8607A603B60CE
:101C00000B46FB72FB7A1946F868FFF714FF034690
:101C1000B3F1FF3F40F0E480FB7A002B3CD1FB683E
:101C20009B78002B30D14FF4FA630C226E496F4839
:101C300007F000F9FB6818786D4B1B785A1C6D4B48
:101C400083FB02131344D911D317C91A0B469B0106
:101C50005B1A9B005B1AD11ACBB20133DAB20323B1
:101C60000393002302930023019300230093002396
:101C700001460020FFF762FE4FF4FA6307225E4937
:101C80005A4807F0D7F865E04FF4FA6313225B492E
:101C9000564807F0CFF85DE0FB7A012B2ED1FB68A8
:101CA0009B78012B22D1FB681878514B1B785A1C6A
:101CB000504B83FB02131344D911D317C91A0B4697
:101CC0009B015B1A9B005B1AD11ACBB20133DAB2CB
:101CD0000323039300230293002301930023009323
:101CE000012301460020FFF729FE33E04FF4FA6399
:101CF000152243493D4807F09DF82BE04FF4FA6365
:101D00000D224049394807F095F8FB681878384BA0
:101D10001B785A1C374B83FB02131344D911D3177A
:101D2000C91A0B469B015B1A9B005B1AD11ACBB2F6
:101D30000133DAB2F97A97F83430039397F83030F8
:101D400002933B6801937B6800930B460146002099
:101D5000FFF7F4FDF868FFF74BFE0346B3F1FF3FD2
:101D60003ED0F868FFF744FE0346FB75FA7D134644
:101D70005B0013441B019B1AFA68134405331C4A89
:101D800015469C4605F1200E64462E460FCE206077
:101D90006160A260E36010350CF1100C7545F3D161
:101DA00064462B4607CB20606160A2601A889B784E
:101DB000A281A373FA7DF96813465B0013441B01EB
:101DC0009B1A0B4408331B78013BD8B2F9681346C1
:101DD0005B0013441B019B1A0B44083302461A7024
:101DE00000BF1C37BD46F0BD74F600088019002006
:101DF000A8000020BFBF8C8280F6000888F600088B
:101E00009CF60008B4F60008F0B587B004AF78601F
:101E10007B68DB78002B1ED07B689C787B681D7804
:101E20007B685E797B68D3F806307A680F32796810
:101E3000897B7868C07803900291019200933346C1
:101E40002A4621460020FFF779FD7B68DB78013BBD
:101E5000DAB27B68DA7000BF0C37BD46F0BD000017
:101E6000B0B5B2B000AF00233B603B1DC4220021DF
:101E700018460CF0DDFF3B46C82219460A48FFF71A
:101E8000D3FA0A4B1C463D460FCD0FC40FCD0FC4ED
:101E900095E80F0007C4238002341B0C237000BF99
:101EA000C837BD46B0BD00BF7C000020D800002070
:101EB00080B485B000AFF860B9607A60FB68074A0B
:101EC0001A60BB68064A1A607B6880221A6000BFED
:101ED0001437BD465DF8047B704700BF0801002041
:101EE0005C01002080B485B000AFF860B9607A6012
:101EF000FB68074A1A60BB68064A1A607B684FF4A1
:101F000080721A6000BF1437BD465DF8047B7047CD
:101F10005C030020B003002080B586B002AF03460A
:101F2000FB71FFF775FC564AFB791370544B1B7815
:101F3000112219465348FFF7E7FB0023FB602AE014
:101F4000FB68DBB20133D8B24F49FA681346DB00B5
:101F500013445B019B1A0B4402461A704B4AFB6800
:101F6000134418784849FA681346DB0013445B01B0
:101F70009B1A0B44013302461A704349FA68134610
:101F8000DB0013445B019B1A0B44023300221A70DE
:101F9000FB680133FB603A4B1B781A46FB6893429F
:101FA000CEDB012009F03FFE0346394A13600021D1
:101FB000032009F050FE0346364A1360364B019366
:101FC0000423009300234FF48062344934480AF01C
:101FD0007FFC344B01930423009300234FF4806271
:101FE000314932480AF074FC314B019302230093CB
:101FF00000234FF400722F492F480AF069FC2F4B41
:1020000001930323009300234FF400722C492D48C1
:102010000AF05EFC2C4B01930523009300234FF440
:1020200000722A492A480AF053FC002202210320A8
:1020300009F085FD0346274A136000220221032090
:1020400009F07DFD0346244A13600022022103208B
:1020500009F075FD0346214A136000220221032086
:1020600009F06DFD03461E4A13601E4B00221A70D4
:102070001D4B00221A7000BF1037BD4680BD00BF47
:10208000B0070020C4F60008C0070020B8070020F1
:10209000A8170020AC17002078170020D8F60008F9
:1020A000052700087C170020ECF60008ED2000084A
:1020B0008017002004F700081D2D00088417002059
:1020C0001CF70008213200088817002030F70008AC
:1020D0009D330008981700209C170020A0170020AF
:1020E000A4170020B6070020B707002090B591B0D4
:1020F00002AF78607F4B0093012301224FF47A7185
:102100007D480BF0DBFB03467C4A13607B4B1B686E
:10211000012118460BF045FF794B1B6807F1280198
:102120004FF0FF32184609F0FBFF0346002BF3D0B7
:10213000744B1B684FF0FF3118460AF0D3F8FFF7D5
:10214000BDFA00F05DFF00BF6F4B9B69184606F0BB
:1021500068F80346012BF7D100BFFFF729FB0346C0
:10216000012BFAD0FFF708FB97F82830022B57D144
:1021700005E0664B1B780133DAB2644B1A70634B8F
:102180001B781A4662491346DB0013445B019B1A15
:102190000B4402331B78002B05D15C4B1A785D4B46
:1021A0001B789A42E5D3594B1A785A4B1B789A42BE
:1021B00080F06582554B1B781A4655491346DB0063
:1021C00013445B019B1A0B4402331B78012B40F034
:1021D00056824FF4FA6312224F49504806F02AFE05
:1021E0004A4B1B781A461346DB0013445B019B1ACB
:1021F000474A9818032301930023009300230022E9
:102200000121FFF7F7FC3D4B1C680AF0ADFD0246CB
:10221000002300930023012120460BF0ADFB2EE2AA
:1022200097F82830032B40F081804FF4FA63102296
:102230003B493A4806F0FEFD00237B6314E0344935
:102240007A6B1346DB0013445B019B1A0B441A782C
:1022500097F829309A4204D17B6BDAB22B4B1A7073
:1022600008E07B6B01337B632A4B1B781A467B6B40
:102270009342E4DB254B1B781A4625491346DB00C5
:1022800013445B019B1A0B4402331B78012B1FD1B3
:102290001E4B1B781A461346DB0013445B019B1A46
:1022A0001B4A981803230193002300930023002264
:1022B0000121FFF79FFC114B1C680AF055FD0246F7
:1022C000002300930023012120460BF055FBD6E1AB
:1022D0004FF4FA6314221349104806F0ABFD0B4B80
:1022E00000221A700BF0B0FF0F4B00221A700BF097
:1022F000DDFFC4E1E536000844F700089017002030
:102300009C170020A81700207C000020B4070020A4
:10231000C0070020B007002054F7000880190020F3
:1023200068F7000878F70008B707002097F828300A
:10233000072B40F0A580864B1B785A1C07F1080339
:10234000844918460CF054FD07F108031846FDF7C0
:1023500047FF03469AB207F108014FF4FA637E483B
:1023600006F068FD7A4B1B781A461346DB001344CF
:102370005B019B1A794A134401211846FFF75BFB66
:10238000F862FB6AB3F1FF3F0FD0714B1B781A461E
:102390001346DB0013445B019B1A704A1344FA6A2C
:1023A000D2B211461846FFF778FB6D4B1B78032B12
:1023B00056D1674B1B780133DAB2654B1A70644B08
:1023C0001B781A4665491346DB0013445B019B1AD0
:1023D0000B4402331B78002B05D15D4B1A78614BFF
:1023E0001B789A42E5D35A4B1A785E4B1B789A4277
:1023F00080F04581564B1B781A4658491346DB003E
:1024000013445B019B1A0B4402331B78012B40F0F1
:1024100036814FF4FA630B2253494F4806F00AFD08
:102420004B4B1B781A461346DB0013445B019B1A87
:102430004A4A9818032301930023009300230022A3
:102440000121FFF7D7FB494B1C680AF08DFC0246BF
:10245000002300930023012120460BF08DFA0EE1AA
:102460003F4B1B78042B40F00A81394B00221A7035
:102470000BF0EAFE3A4B00221A700BF017FFFEE059
:1024800097F82830082B04D097F82830092B40F013
:10249000F6804FF4FA63082235492F4806F0CAFC4B
:1024A0002B4B1B781A461346DB0013445B019B1A27
:1024B0002A4A134401211846FFF7BDFA38633B6BE3
:1024C000B3F1FF3F00F0DB80214B1B781946234816
:1024D0003B6B1A4652001A441201D21A0B46DB001B
:1024E0000B445B015B1A1344034408331B78002B35
:1024F00040D0174B1B781A4618491346DB0013448B
:102500005B019B1A0B44043301221A70104B1B7899
:1025100019463B6B1A4652001A441201D21A0B4656
:10252000DB000B445B015B1A13440C4A1344053374
:102530001846FFF769FC0D4B1C680AF015FC0246B3
:10254000002300930023012120460BF015FA96E0AA
:10255000B407002090F7000880190020C007002071
:10256000B7070020B0070020A8F700089017002048
:10257000B4F70008594B1B7801331B221946584801
:10258000FFF7C2F8554B1B781A4656491346DB0035
:1025900013445B019B1A0B44043302221A704F4B05
:1025A0001B781A461346DB0013445B019B1A4D4A05
:1025B00013443A6BD2B211461846FFF76EFA4A4BF3
:1025C0001B78032B4DD1454B1B780133DAB2434BBB
:1025D0001A70424B1B781A4642491346DB001344DB
:1025E0005B019B1A0B4402331B78002B05D13B4B3C
:1025F0001A783E4B1B789A42E5D3384B1A783B4BFE
:102600001B789A423BD2354B1B781A463549134604
:10261000DB0013445B019B1A0B4402331B78012B34
:102620002DD12E4B1B781A461346DB0013445B0159
:102630009B1A2C4A9818032301930023009300232C
:1026400000220121FFF7D6FA294B1C680AF08CFB07
:102650000246002300930023012120460BF08CF951
:102660000DE0214B1B78042B09D11C4B00221A7062
:102670000BF0EAFD1C4B00221A700BF017FE174BF3
:102680001A781A4B1B789A4210D34FF4FA630C2233
:102690001849194806F0CEFB104B00221A700BF0B7
:1026A000D3FD114B00221A700BF000FE0B4B1B7870
:1026B00001330E2219461148FFF726F80A4B1B7802
:1026C000002B01D100F0F0FCFFF70BF80C4B186861
:1026D00000230022002109F0F3FA1DE5B4070020D1
:1026E000C0F70008C0070020B7070020B00700208F
:1026F00090170020DCF7000880190020ECF7000894
:10270000A817002090B591B002AF78607F4B00937E
:10271000002301224FF47A717D480BF0CFF8034675
:102720007C4A13607B4B1B68002118460BF039FC78
:10273000794B1B6807F128014FF0FF32184609F06A
:10274000EFFC0346002BF3D0744B1B684FF0FF31B6
:10275000184609F0C7FDFEF7B1FF00F051FC00BFBD
:102760006F4B9B69184605F05CFD0346012BF7D1C2
:1027700000BFFFF71DF80346012BFAD0FEF7FCFF60
:1027800097F82830002B57D105E0664B1B780133B2
:10279000DAB2644B1A70634B1B781A4662491346CF
:1027A000DB0013445B019B1A0B4402331B78012BA3
:1027B00005D15C4B1A785D4B1B789A42E5D3594B97
:1027C0001B781A4658491346DB0013445B019B1AD9
:1027D0000B4402331B78002B40F05D82514B1A787A
:1027E000524B1B789A4280F056824FF4FA630F22C4
:1027F0004F49504806F01EFB4A4B1B781A461346B9
:10280000DB0013445B019B1A474A9818032301938A
:1028100000230093002300220021FFF7EBF93D4B3A
:102820001C680AF0A1FA024600230093002301214C
:1028300020460BF0A1F82EE297F82830012B40F04B
:1028400081804FF4FA6310223B493A4806F0F2FACD
:1028500000237B6314E034497A6B1346DB00134496
:102860005B019B1A0B441A7897F829309A4204D1DD
:102870007B6BDAB22B4B1A7008E07B6B01337B6306
:102880002A4B1B781A467B6B9342E4DB254B1B7863
:102890001A4625491346DB0013445B019B1A0B447F
:1028A00002331B78002B1FD11E4B1B781A46134690
:1028B000DB0013445B019B1A1B4A98180323019306
:1028C00000230093002300220021FFF793F9114B0E
:1028D0001C680AF049FA02460023009300230121F4
:1028E00020460BF049F8D6E14FF4FA631122134960
:1028F000104806F09FFA0B4B00221A700BF0A4FC54
:102900000F4B00221A700BF0D1FCC4E1E536000831
:1029100000F800088C17002098170020A817002046
:102920007C000020B3070020C0070020B007002073
:102930000CF80008801900201CF800082CF800088A
:10294000B607002097F82830072B40F0A580864B6B
:102950001B785A1C07F10803844918460CF048FA02
:1029600007F108031846FDF73BFC03469AB207F14E
:1029700008014FF4FA637E4806F05CFA7A4B1B7844
:102980001A461346DB0013445B019B1A794A134431
:1029900000211846FFF74FF8F862FB6AB3F1FF3FDA
:1029A0000FD0714B1B781A461346DB0013445B01B2
:1029B0009B1A704A1344FA6AD2B211461846FFF7BE
:1029C0006CF86D4B1B78012B56D1674B1B7801338C
:1029D000DAB2654B1A70644B1B781A466549134688
:1029E000DB0013445B019B1A0B4402331B78012B61
:1029F00005D15D4B1A78614B1B789A42E5D35A4B4F
:102A00001A785E4B1B789A4280F04581564B1B78B2
:102A10001A4658491346DB0013445B019B1A0B44CA
:102A200002331B78002B40F036814FF4FA630B22FF
:102A300053494F4806F0FEF94B4B1B781A46134694
:102A4000DB0013445B019B1A4A4A98180323019345
:102A500000230093002300220021FFF7CBF8494B0D
:102A60001C680AF081F9024600230093002301212B
:102A700020460AF081FF0EE13F4B1B78022B40F00D
:102A80000A81394B00221A700BF0DEFB3A4B002210
:102A90001A700BF00BFCFEE097F82830082B04D0DE
:102AA00097F82830092B40F0F6804FF4FA6308229B
:102AB00035492F4806F0BEF92B4B1B781A461346B2
:102AC000DB0013445B019B1A2A4A13440021184679
:102AD000FEF7B1FF38633B6BB3F1FF3F00F0DB80E3
:102AE000214B1B78194623483B6B1A4652001A4467
:102AF0001201D21A0B46DB000B445B015B1A134434
:102B0000034408331B78002B40D0174B1B781A4620
:102B100018491346DB0013445B019B1A0B44043332
:102B200001221A70104B1B7819463B6B1A46520053
:102B30001A441201D21A0B46DB000B445B015B1AEC
:102B400013440C4A134405331846FFF75DF90D4B47
:102B50001C680AF009F902460023009300230121B2
:102B600020460AF009FF96E0B307002040F800086D
:102B700080190020C0070020B6070020B007002001
:102B8000A8F700088C170020B4F70008594B1B78F1
:102B900001331B2219465848FEF7B6FD554B1B78EA
:102BA0001A4656491346DB0013445B019B1A0B443B
:102BB000043302221A704F4B1B781A461346DB006F
:102BC00013445B019B1A4D4A13443A6BD2B211462F
:102BD0001846FEF762FF4A4B1B78012B4DD1454B3F
:102BE0001B780133DAB2434B1A70424B1B781A46FA
:102BF00042491346DB0013445B019B1A0B4402332A
:102C00001B78012B05D13B4B1A783E4B1B789A421F
:102C1000E5D3384B1A783B4B1B789A423BD2354B65
:102C20001B781A4635491346DB0013445B019B1A97
:102C30000B4402331B78002B2DD12E4B1B781A46E8
:102C40001346DB0013445B019B1A2C4A981803239C
:102C5000019300230093002300220021FEF7CAFF06
:102C6000294B1C680AF080F80246002300930023D9
:102C7000012120460AF080FE0DE0214B1B78022B3B
:102C800009D11C4B00221A700BF0DEFA1C4B0022FB
:102C90001A700BF00BFB174B1A781A4B1B789A42E1
:102CA00010D34FF4FA630B221849194806F0C2F802
:102CB000104B00221A700BF0C7FA114B00221A7049
:102CC0000BF0F4FA0B4B1B7801330E221946114816
:102CD000FEF71AFD0A4B1B78002B01D100F0E4F936
:102CE000FEF7FFFC0C4B186800230022002108F0BF
:102CF000E7FF1DE5B307002054F80008C0070020D7
:102D0000B6070020B00700208C17002070F80008DC
:102D100080190020ECF70008A817002090B589B0B2
:102D200002AF7860A74B0093002301224FF47A7121
:102D3000A5480AF0C3FD0346A44A1360A34B1B68D1
:102D4000022118460BF02DF9A14B1B6807F10C016D
:102D50004FF0FF32184609F0E3F90346002BF3D099
:102D60009C4B1B684FF0FF31184609F0BBFAFEF789
:102D7000A5FC00BF984B9B69184605F052FA034624
:102D8000012BF7D100BFFEF713FD0346012BFAD04C
:102D9000FEF7F2FC3B7B132219469048FEF7B4FC89
:102DA0003B7B042B26D18E4B1B78112219468D4874
:102DB000FEF7AAFC8A4B1B781A461346DB00134425
:102DC0005B019B1A884A9818032301930023009300
:102DD000002300220321FEF70DFF7C4B1C6809F045
:102DE000C3FF0246002300930023012120460AF07E
:102DF000C3FDD3E03B7B072B48D1794B1B781622D0
:102E000019467A48FEF780FC754B1B781A46134624
:102E1000DB0013445B019B1A734A134403211846D9
:102E2000FEF709FE38613B69B3F1FF3F27D06C4BD9
:102E30001B7819466C483B691A4652001A44120125
:102E4000D21A0B46DB000B445B015B1A13440344AC
:102E500005331B781C2219466548FEF755FC604B6C
:102E60001B781A461346DB0013445B019B1A5E4A2B
:102E700013443A69D2B211461846FEF70EFE584B7B
:102E80001B780133DAB2564B1A7087E03B7B082B74
:102E900003D03B7B092B40F08180514B1B781322E0
:102EA00019465448FEF730FC4D4B1B781A46134622
:102EB000DB0013445B019B1A4B4A13440321184661
:102EC000FEF7B9FD78617B69B3F1FF3F66D0444BF3
:102ED0001B78194644487B691A4652001A4412016D
:102EE000D21A0B46DB000B445B015B1A134403440C
:102EF00008331B78002B27D0394B1B781A463A49E8
:102F00001346DB0013445B019B1A0B44043301227C
:102F10001A70334B1B781A461346DB0013445B01CF
:102F20009B1A314A134405331846FEF76DFF274BB1
:102F30001C6809F019FF02460023009300230121B9
:102F400020460AF019FD29E0254B1B781A46264930
:102F50001346DB0013445B019B1A0B44043302222B
:102F60001A701F4B1B781A461346DB0013445B0193
:102F70009B1A1D4A13447A69D2B211461846FEF7CD
:102F80008CFD174B1B780A2219461B48FEF7BCFB29
:102F9000134B1B780133DAB2114B1A70104B1A78AD
:102FA000164B1B789A4202D30D4B00221A70FEF783
:102FB00098FB084B186800230022002108F080FECF
:102FC000C2E600BFE53600087CF800089417002030
:102FD000A0170020A81700207C00002088F8000817
:102FE000B50700209CF800089C0F0020B0F80008EE
:102FF000C8F80008E8F8000800F90008B107002048
:1030000080B500AF0A4B1B686FF001021A614FF0E8
:1030100080431B684FF0804223F0010313604FF0A0
:10302000804300225A62024805F0FEFA00BF80BDCC
:10303000F018002080B500AF4FF080431B684FF0C0
:10304000804223F0010313604FF0804300225A6254
:103050004FF080431B684FF0804243F00103136040
:10306000024805F07FFA00BF80BD00BFF0180020C5
:1030700080B500AFFFF7C4FF4FF080431B684FF0EF
:10308000804223F0010313604FF0804300225A6214
:103090004FF080431B684FF0804243F00103136000
:1030A000FFF7C8FF00BF80BD80B58EB000AF3B4BBF
:1030B0001B78002B32D04FF4FA6306223849394886
:1030C00005F0B8FE354B1B780A2219463648FEF744
:1030D0001BFB324B1A78354B1A70304B1B781A4653
:1030E00043F6982393FBF2F33B634FF080431B6856
:1030F0004FF0804223F0010313604FF08043002221
:103100005A624FF080423B6B013BD362284B1B78E5
:10311000DBB2002B04D1FFF78DFF01E0FFF770FF5A
:103120003B462B22002118460BF082FE1B4B1B78DE
:103130000233DBB23B7000237B70184B1B78BB70F3
:10314000002387F8373015E097F8372097F83710C5
:1031500018481346DB0013445B019B1A03441A789A
:1031600001F138033B4403F8352C97F8373001332D
:1031700087F83730094B1B7897F837209A42E3D30A
:103180003B46FB624FF4FA632B22F96A0A4805F0CA
:1031900051FE00BF3837BD4680BD00BFB1070020DB
:1031A0000CF900088019002014F90008B20700206B
:1031B000B01700209C0F00203819002080B582B085
:1031C00000AF134B1B78DBB2002B1CD11022002167
:1031D0001048FEF799FA00237B6004233B7000231C
:1031E0007B700D4B18683A1D3946002308F06AFEC3
:1031F0007B68002B07D0094B4FF080521A60BFF359
:103200004F8FBFF36F8F00BF0837BD4680BD00BF33
:10321000B017002020F90008A017002004ED00E0FE
:1032200080B584B000AF7860504B1B684FF0FF3121
:10323000184609F057F84E4B1B684FF0FF311846FF
:1032400009F050F8FEF73AFA132200214948FEF738
:103250005BFA494B5B790C2219464848FEF754FA51
:10326000454B5B79002B10D10F2200214448FEF71B
:103270004BFA08233B73434B186807F10C010023FA
:103280004FF0FF3208F01CFD2CE03B4B5B79012B2B
:1032900010D10F2200213C48FEF736FA08233B7379
:1032A0003A4B186807F10C0100234FF0FF3208F089
:1032B00007FD17E0304B5B79032B13D1FFF7D8FEE6
:1032C000112200213248FEF71FFA08233B73002326
:1032D0007B73304B186807F10C0100234FF0FF326D
:1032E00008F0EEFC0023FB7317E0FA7B13465B004B
:1032F00013441B019B1A204A9818FB7B5A1C134647
:103300005B0013441B019B1A1B4A13442F221946CE
:103310000BF0D2FDFB7B0133FB73FA7B1E4B1B785A
:10332000DBB2013B9A42E0DB1B4B1B78DBB25A1E3F
:1033300013465B0013441B019B1A0F4A13442F22B0
:10334000002118460BF074FD134B1B78DBB2013BD8
:10335000DAB2114B1A70FEF7C4F9054B1868002356
:103360000022002108F0ACFC5EE700BFAC17002093
:10337000A817002034F90008B417002048F9000805
:1033800058F900089817002068F900089C170020D9
:1033900078F90008A0170020B017002090B59FB062
:1033A00002AF7860C34B1B6807F148014FF0FF3252
:1033B000184608F0B5FEC04B1B684FF0FF311846A9
:1033C00008F090FFFEF77AF9FFF71AFE00BFBB4B3B
:1033D0009B69184604F025FF0346012BF7D100BF77
:1033E000FEF7E6F90346012BFAD0FEF7C5F997F888
:1033F0004830052B40F08F8097F8493087F85730D8
:103400000023FB66002387F86B301DE097F86B20E4
:10341000AB491346DB0013445B019B1A0B441B783A
:1034200097F857209A420AD197F86B201346DB0091
:1034300013445B019B1AA24A1344FB660AE097F807
:103440006B30013387F86B309E4B1B7897F86B20FD
:103450009A42DBD3FB6E002B00F01F810721F86E30
:10346000FEF795FB38653B6DB3F1FF3F00F015812A
:1034700007F108032B22002118460BF0D9FC2A2360
:103480003B7202237B72FB6E1B78BB72FB6E9B78D8
:10349000FB72FB6E1B793B73F96E3A6D13465B0052
:1034A00013441B019B1A0B44A1331B787B7307F158
:1034B0000803FB644FF4FA632B22F96C824805F091
:1034C000B9FCF96E3A6D13465B0013441B019B1A5D
:1034D0000B4492331B7887F84B303A6D13465B00F0
:1034E00013441B019B1A9033FA6E134402332F22AC
:1034F000002118460BF09CFC744A97F84B3013716E
:103500000323019300230093002300220521F86E7A
:10351000FEF770FBC1E097F84830062B40F0BD8005
:1035200097F8493087F8623000237B664FF4FA63DE
:1035300013226749674805F07DFC002387F8633054
:103540001DE097F863205E491346DB0013445B01DE
:103550009B1A0B441B7897F862209A420AD197F87D
:1035600063201346DB0013445B019B1A544A134447
:103570007B660AE097F86330013387F86330514B7C
:103580001B7897F863209A42DBD37B6E002B00F008
:1035900084804FF4FA6313224F494E4805F04AFCE9
:1035A0000521786EFEF7F3FAF865FB6DB3F1FF3F86
:1035B00073D04FF4FA6313224849464805F03AFCA9
:1035C00007F108032B22002118460BF031FC2A23B7
:1035D0003B7201237B727B6E1B78BB727B6E9B7888
:1035E000FB727B6E1B793B73796EFA6D13465B0041
:1035F00013441B019B1A0B44A1331B787B73FA6D98
:1036000013465B0013441B019B1A98337A6E1344D4
:1036100003F1090107F108030533202218460BF0D6
:103620004BFC07F10803BB65796EFA6D13465B002E
:1036300013441B019B1A0B44A1331B781C46796E63
:10364000FA6D13465B0013441B019B1A0B44A23313
:103650001B7807F13400224621490BF0C9FB07F122
:1036600034014FF4FA6314221A4805F0E3FB4FF4D7
:10367000FA632B22B96D144805F0DCFBFA6D134692
:103680005B0013441B019B1A90337A6E1344023380
:103690002F22002118460BF0CBFBFFF7CBFCFEF7E7
:1036A00020F8054B186800230022002108F008FBD1
:1036B00078E600BFA4170020A81700207C00002097
:1036C0009C0F0020B107002038190020A80000201E
:1036D0008CF9000880190020A0F90008B4F900084E
:1036E000C8F9000880B58AB002AF786078680AF03F
:1036F00037FC0346FB77FB7F002B29D109233B775F
:1037000000237B774FF4FA6308224049404805F0D4
:1037100091FB0023009300230022032178680AF024
:103720002BF90023BB613B4B186807F1180207F126
:103730001C01002308F0C6FBBB69002B61D0364B8F
:103740004FF080521A60BFF34F8FBFF36F8F58E076
:10375000FB7F012B29D109233B7500237B754FF497
:10376000FA63082229492A4805F064FB00230093E4
:1037700000230022032178680AF0FEF800233B6151
:10378000264B186807F1100207F11401002308F016
:1037900099FB3B69002B34D01F4B4FF080521A60CD
:1037A000BFF34F8FBFF36F8F2BE0FB7F022B28D12E
:1037B00009233B7300237B734FF4FA6308221349F8
:1037C000134805F037FB0023009300230022032158
:1037D00078680AF0D1F80023BB60114B186807F134
:1037E000080207F10C01002308F06CFBBB68002BFA
:1037F00007D0094B4FF080521A60BFF34F8FBFF3D1
:103800006F8F00BF2037BD4680BD00BFDCF90008C8
:10381000801900209817002004ED00E09C1700207C
:10382000A0170020F0B587B002AFA94B9B78002B02
:1038300000F09582A64B1B79002B40F0908211225C
:103840000021A448FDF760FFA14BDB78002B7FD05F
:1038500012220021A048FDF757FFA04B1B68002152
:10386000184608F0CDFB9E4B1B78DBB2022B05D827
:103870009B4B1B78DBB20133DBB200E00323984A99
:103880001370974B1B78DBB20B2219469548FDF756
:103890003BFF934B1B78DBB25A1E13465B0013446D
:1038A0001B019B1A904A1344894A184602F12004CE
:1038B00003461146D1F800C04E688D68C968C3F848
:1038C00000C05E609D60D96010321030A242EFD11E
:1038D00003461468506891681C605860996091892B
:1038E000927B99819A737A4B5B79002B09D17F4B3C
:1038F0001868002300930023002208210AF03CF8F6
:103900002DE2734B5B79012B09D1794B18680023A9
:1039100000930023002208210AF02EF81FE26C4BCE
:103920005B79032B40F01B82122200217148FDF7C6
:10393000EBFE122200217048FDF7E6FE6F4B18687F
:10394000002300930023002208210AF015F806E264
:103950005F4B5B79002B40F09680694B1B781A46D1
:1039600068491346DB0013445B019B1A0B44043384
:103970001B78012B00F2F381584B1B68002118467D
:1039800008F03EFB564B1B78DBB2022B05D8544B9C
:103990001B78DBB20133DBB200E00323504A137023
:1039A0004B4BDB780133DAB2494BDA70544B1B785E
:1039B0001A461346DB0013445B019B1A514A134419
:1039C00000211846FEF737F838603B68B3F1FF3F37
:1039D00025D04B4B1B7819464A483B681A46520083
:1039E0001A441201D21A0B46DB000B445B015B1A2E
:1039F0001344034408331B780133DCB241483B686D
:103A00001A4652001A441201D21A0B46DB000B442C
:103A10005B015B1A13440344083322461A70304B8F
:103A20001B78DBB25A1E13465B0013441B019B1A22
:103A30002D4A1344264A184602F120040346114633
:103A4000D1F800C04E688D68C968C3F800C05E60D8
:103A50009D60D96010321030A242EFD10346146845
:103A6000506891681C60586099609189927B998137
:103A70009A731E4B1868002300930023002208212C
:103A800009F07AFF6BE1124B5B79012B40F0B480B7
:103A90001D4B1B781A461B491346DB0013445B0180
:103AA0009B1A0B4404331B78012B00F258810B4BFB
:103AB0001B680021184608F0A3FA094B1B78DBB2FB
:103AC000022B23D8064B1B78DBB20133DBB21EE09E
:103AD000A8000020E8F90008FCF90008AC17002055
:103AE000B017002010FA0008B41700208C1700202F
:103AF0009017002020FA000834FA000894170020DC
:103B0000B3070020C0070020B40700200323964A13
:103B10001370964BDB780133DAB2944BDA70944B26
:103B20001B781A461346DB0013445B019B1A914A2B
:103B3000134401211846FDF77EFF78607B68B3F1DE
:103B4000FF3F25D08C4B1B7819468A487B681A4664
:103B500052001A441201D21A0B46DB000B445B01DF
:103B60005B1A1344034408331B780133DCB28148E9
:103B70007B681A4652001A441201D21A0B46DB0027
:103B80000B445B015B1A13440344083322461A704A
:103B9000754B1B78DBB25A1E13465B0013441B01A6
:103BA0009B1A764A1344714A184602F120040346D0
:103BB0001146D1F800C04E688D68C968C3F800C0CE
:103BC0005E609D60D96010321030A242EFD1034692
:103BD0001468506891681C60586099609189927B64
:103BE00099819A73664B1868002300930023002282
:103BF000082109F0C1FEB2E05C4B5B79032B40F079
:103C0000AE80604B1B781A465F491346DB001344B5
:103C10005B019B1A0B4404331B78012B00F29F803D
:103C20005A4B1B680021184608F0EAF94E4B1B78E6
:103C3000DBB2022B05D84C4B1B78DBB20133DBB275
:103C400000E00323484A1370484BDB780133DAB2B3
:103C5000464BDA700023FB7347E0FA7B4A49134670
:103C6000DB0013445B019B1A0B441A783F4B9B7893
:103C70009A4237D13E4B1B781A461346DB00134459
:103C80005B019B1A3B4A134403211846FDF7D3FE00
:103C9000B860BB68B3F1FF3F2DD0F97B3A48BB68F1
:103CA0001A4652001A441201D21A0B46DB000B448A
:103CB0005B015B1A1344034495331B780133DCB278
:103CC0003148BB681A4652001A441201D21A0B46F8
:103CD000DB000B445B015B1A13440344953322461B
:103CE0001A7008E0FB7B0133FB73294B1B78FA7BCE
:103CF0009A42B2D300E000BF1B4B1B78DBB25A1EC6
:103D000013465B0013441B019B1A1C4A1344174AB9
:103D1000184602F1200403461146D1F800C04E684F
:103D20008D68C968C3F800C05E609D60D9601032BC
:103D30001030A242EFD103461468506891681C60AD
:103D4000586099609189927B99819A73114B186898
:103D50000023009300230022082109F00DFE00BF7C
:103D60001437BD46F0BD00BFB0170020A8000020EA
:103D7000B3070020C0070020B4070020B4170020BC
:103D800090170020B50700209C0F0020AC170020E2
:103D9000B10700209417002080B586B000AF78608E
:103DA0007B685B78FB7500233B61FB7D032B00F296
:103DB000AE8001A252F823F0C93D0008193E000868
:103DC000673E0008B33E0008534B1B78002B40F0C1
:103DD0009780524B1B78002B40F09280FFF722FD1A
:103DE0004D4B01221A7000233B7300237B734C4B15
:103DF000186807F1100207F10C01002308F062F8BF
:103E00003B69002B7CD0474B4FF080521A60BFF3C8
:103E10004F8FBFF36F8F73E03F4B1B78002B71D137
:103E20003E4B1B78002B6DD1FFF7FCFC3A4B022276
:103E30001A7001233B737B689B787B73384B18683F
:103E400007F1100207F10C01002308F03BF83B6971
:103E5000002B57D0334B4FF080521A60BFF34F8F77
:103E6000BFF36F8F4EE02D4B1B78002B4CD12A4BAC
:103E70001B78002B48D1FFF7D5FC284B03221A7082
:103E800002233B7300237B73274B186807F1100252
:103E900007F10C01002308F015F83B69002B33D023
:103EA000204B4FF080521A60BFF34F8FBFF36F8FDC
:103EB0002AE01A4B1B78002B28D1174B1B78002BBC
:103EC00024D1FFF7AFFC144B04221A7003233B7379
:103ED0007B689B787B73144B186807F1100207F11D
:103EE0000C01002307F0EEFF3B69002B0ED00D4BB9
:103EF0004FF080521A60BFF34F8FBFF36F8F05E012
:103F000000BF04E000BF02E000BF00E000BF00BF50
:103F10001837BD4680BD00BFB6070020B707002098
:103F20009817002004ED00E09C170020F0B593B036
:103F300002AF002387F83F30A94B1B7987F8233065
:103F4000002387F83E3000237B604FF4FA63102291
:103F5000A449A54804F06EFF97F8233016221946AD
:103F6000A248FDF7D1FBA24B1B7897F823209A4279
:103F700002D19F4BBB632BE0002387F83F3020E04A
:103F800097F83F209B4913465B0013441B019B1A83
:103F90000B441B7897F823209A420DD197F83F20C5
:103FA00013465B0013441B019B1A924A1344BB63E4
:103FB000012387F83E300BE097F83F30013387F854
:103FC0003F308D4B1B78DBB297F83F209A42D7D316
:103FD00097F82330092219468848FDF795FBBB6BFB
:103FE000002B00F00A83BB6B97F823201A71BB6B80
:103FF0005B79002B04D0BB6B5B79012B40F0918186
:10400000002387F83330002387F833301DE097F81A
:1040100033207B491346DB0013445B019B1A0B449E
:104020001A786F4B5B789A420AD197F8332013467F
:10403000DB0013445B019B1A714A13447B630AE063
:1040400097F83330013387F833306E4B1B7897F88D
:1040500033209A42DBD3BB6B5B79002B7ED16A4B5A
:1040600018683B1D002200920022082109F084FC00
:104070007B6B01229A700021786BFDF7DCFCB86045
:10408000BB68B3F1FF3F0CD0554B1879796BBA6818
:1040900013465B0013441B019B1A0B440933024671
:1040A0001A707B6B00221A71584B1B781A46134604
:1040B000DB0013445B019B1A554A134440F21F1264
:1040C000796B18460AF0F8FE002387F832301CE0BE
:1040D0004E4B1B78194697F832301A4652001A4454
:1040E0001201D21A0B46DB000B445B015B1A13442E
:1040F000474A134405332F22002118460AF098FE40
:1041000097F83230013387F8323097F83230022B8B
:10411000DED93E4B1B780133DAB23C4B1A700723D1
:104120003B7000237B704FF4FA63072239492E4815
:1041300004F080FE384B18683A1D3946002307F01A
:10414000C1FE7B68002B00F01B82344B4FF0805285
:104150001A60BFF34F8FBFF36F8F11E2BB6B5B79B8
:10416000012B40F00D822E4B18683B1D002200925F
:104170000022082109F000FC7B6B00229A700121CB
:10418000786BFDF758FCF860FB68B3F1FF3F0CD08B
:10419000134B1879796BFA6813465B0013441B01C3
:1041A0009B1A0B44093302461A707B6B00221A716A
:1041B000002387F831306FE097F831201449134617
:1041C000DB0013445B019B1A0B441A787B6B1B7852
:1041D0009A425CD197F8313087F830303FE000BF29
:1041E000D800002048FA00088019002058FA00087A
:1041F000A8000020B4170020B017002070FA0008B3
:10420000C0070020B00700208C170020B107002055
:104210009C0F00207CFA00089817002004ED00E0B5
:104220009017002097F830201346DB0013445B0101
:104230009B1A484A981897F830305A1C1346DB00EE
:1042400013445B019B1A434A134440F21F12194660
:104250000AF032FE97F83030013387F8303097F8A3
:1042600030203D4B1B78013B9A42DBDB3A4B1B78FD
:104270005A1E1346DB0013445B019B1A354A134454
:1042800040F21F12002118460AF0D2FD0AE097F80A
:104290003130013387F831302F4B1B7897F83120BC
:1042A0009A4289D32C4B1B78013BDAB22A4B1A7005
:1042B00007233B7000237B70274B1B780E22194687
:1042C0002648FDF721FA0023FB6210E02149FA6A33
:1042D0001346DB0013445B019B1A0B441B7810222E
:1042E00019461F48FDF710FAFB6A0133FB621A4BAF
:1042F0001B781A46FB6A9342E8DB1A4B18683A1D92
:104300003946002307F0DEFD7B68002B00F0388182
:10431000154B4FF080521A60BFF34F8FBFF36F8F72
:104320002EE1BB6B5B79032B40F02D8197F8233096
:10433000162219460D48FDF7E7F90D4B18683B1D8D
:10434000002200920022082109F016FB0023BB6224
:104350000EE100BF9C0F0020B107002084FA000886
:1043600094FA00089C17002004ED00E058FA0008B9
:1043700094170020A349BA6A1346DB0013445B017B
:104380009B1A0B441A78A04B5B789A4240F0ED8060
:10439000BA6A1346DB0013445B019B1A994A134423
:1043A00003211846FDF747FBF861FB69B3F1FF3FB6
:1043B00012D09448FB69B96A1A4652001A44120195
:1043C000D21A0B46DB000B445B015B1A1344034417
:1043D000093397F823201A708A49BA6A1346DB001A
:1043E00013445B019B1A0B44043300221A704FF4F0
:1043F000FA630B228549864804F01CFD824B9B7BA7
:10440000002B00F094804FF4FA630B22814980481E
:1044100004F010FDBA6A1346DB0013445B019B1ADB
:10442000784A134405211846FDF7B1FBB861BA6A12
:104430001346DB0013445B019B1A724A1344724A11
:10444000127811461846FDF77CFB7861BA6A13466C
:10445000DB0013445B019B1A6A4A13441846FDF7BC
:104460004DFB38611222B9696B48FDF74DF91322F3
:1044700079696A48FDF748F9132239696848FDF7F8
:1044800043F9BB69B3F1FF3F03D07B69B3F1FF3F51
:104490004DD13B69B3F1FF3F49D04FF4FA630B2292
:1044A00060495B4804F0C6FC3B691A4652001A4456
:1044B0001201D21AB96A0B46DB000B445B015B1A8E
:1044C000134490334F4A134402334F4A184602F1C3
:1044D000200403461146D1F800C04E688D68C968B3
:1044E000C3F800C05E609D60D96010321030A242F7
:1044F000EFD103461468506891681C605860996059
:104500009189927B99819A7306233B703D49BA6ADF
:104510001346DB0013445B019B1A0B441B787B7032
:10452000414B18683A1D3946002307F0CBFC07239E
:104530003B7000237B704FF4FA6307223B493448F9
:1045400004F078FC3A4B18683A1D3946002307F00E
:10455000B9FC7B68002B15D0364B4FF080521A60A7
:10456000BFF34F8FBFF36F8F0CE0BB6A0133BB62A9
:10457000314B1B781A46BB6A9342FFF6FBAE02E052
:1045800000BF00E000BF97F83E30012B35D197F80F
:104590003F307B6217E07A6A13465B0013441B01CD
:1045A0009B1A264A98187B6A5A1C13465B001344D0
:1045B0001B019B1A214A13442F2219460AF07CFC46
:1045C0007B6A01337B621E4B1B78DBB2013B7A6A4C
:1045D0009A42E0DB1A4B1B78DBB25A1E13465B0093
:1045E00013441B019B1A154A13442F22002118461D
:1045F0000AF01EFC002387F83E3000BF4437BD465A
:10460000F0BD00BF9C0F0020D8000020A8FA0008D1
:1046100080190020B4FA0008C0FA0008D4FA000893
:10462000E8FA0008FCFA0008A41700207CFA000849
:10463000A017002004ED00E0B1070020B41700200F
:10464000B017002080B58CB002AF002387F8273068
:10465000B74B1B793B76002387F826300023BB60DD
:10466000B44B1B783A7E9A4202D1B24B3B622AE0AD
:10467000002387F827301FE097F82720AE4913461C
:104680005B0013441B019B1A0B441B783A7E9A4231
:104690000DD197F8272013465B0013441B019B1A8A
:1046A000A54A13443B62012387F826300BE097F8B4
:1046B0002730013387F82730A04B1B78DBB297F8FF
:1046C00027209A42D8D33B7E092219469C48FDF701
:1046D0001BF83B6A002B00F098813B6A3A7E1A7106
:1046E0003B6A5B79002B04D03B6A5B79012B40F07D
:1046F000B3800023FB760023FB7619E0FA7E914914
:104700001346DB0013445B019B1A0B441A78884B59
:104710005B789A4209D1FA7E1346DB0013445B01B1
:104720009B1A884A1344FB6107E0FB7E0133FB764A
:10473000854B1B78FA7E9A42E0D33B6A5B79002B6B
:1047400042D1824B186807F1080300220092002230
:10475000082109F011F90021F869FDF76CF9F860FA
:10476000FB68B3F1FF3F0CD0714B1879F969FA6817
:1047700013465B0013441B019B1A0B44093302468A
:104780001A70FB6901221A7108233B7100237B71A7
:104790004FF4FA630C226E496E4804F04BFB6E4BEB
:1047A000186807F10802391D002307F08BFBBB686E
:1047B000002B00F0ED80694B4FF080521A60BFF380
:1047C0004F8FBFF36F8FE3E03B6A5B79012B40F0C3
:1047D000DF80634B186807F1080300220092002273
:1047E000082109F0C9F80121F869FDF724F93861B9
:1047F0003B69B3F1FF3F0CD04D4B1879F9693A6929
:1048000013465B0013441B019B1A0B4409330246F9
:104810001A70FB6901221A7108233B7100237B7116
:104820004FF4FA630F224F494A4804F003FB4E4B02
:10483000186807F10802391D002307F043FBBB6825
:10484000002B00F0A580454B4FF080521A60BFF35B
:104850004F8FBFF36F8F9BE03B6A5B79032B40F078
:104860009A80424B186807F1080300220092002248
:10487000082109F081F80023BB7682E0BA7E3C492A
:104880001346DB0013445B019B1A0B441A78284B38
:104890005B789A4272D1BA7E1346DB0013445B0107
:1048A0009B1A334A134403211846FDF7C4F8786174
:1048B0007B69B3F1FF3F11D0B97E2D487B691A4661
:1048C00052001A441201D21A0B46DB000B445B0162
:1048D0005B1A1344034409333A7E1A70BA7E2449A2
:1048E0001346DB0013445B019B1A0B440433012283
:1048F0001A7008233B7100237B714FF4FA6309227D
:104900001C49144804F096FA1B4B186807F108027A
:10491000391D002307F0D6FABB68002B3AD00F4BA5
:104920004FF080521A60BFF34F8FBFF36F8F31E0AB
:10493000D8000020A8000020B4170020B0170020E5
:1049400070FA0008C0070020B00700208C17002074
:1049500008FB0008801900209817002004ED00E0F3
:104960009017002018FB00089C17002094170020C7
:104970009C0F002028FB0008A0170020BB7E0133FD
:10498000BB76244B1B78BA7E9A42FFF477AF02E0E5
:1049900000BF00E000BF97F82630012B35D197F813
:1049A00027307B7617E07A7E13465B0013441B01A9
:1049B0009B1A194A98187B7E5A1C13465B001344B5
:1049C0001B019B1A144A13442F2219460AF074FA49
:1049D0007B7E01337B767A7E104B1B78DBB2013B0A
:1049E0009A42E0DB0D4B1B78DBB25A1E13465B008C
:1049F00013441B019B1A084A13442F220021184616
:104A00000AF016FA002387F8263000BF2837BD4683
:104A100080BD00BFB1070020B4170020B0170020F0
:104A2000F0B587B000AF00237B610023FB7419E071
:104A3000FA7C3B491346DB0013445B019B1A0B4491
:104A40001A78384B5B789A4209D1FA7C1346DB001E
:104A500013445B019B1A324A13447B6107E0FB7CE1
:104A60000133FB74304B1B78FA7C9A42E0D37B69AC
:104A7000002B51D07869FDF741F8F860FB68B3F17D
:104A8000FF3F49D07B691B78152219462748FCF760
:104A90003BFEFA6813465B0013441B019B1A9033DC
:104AA0007A69134402331F4A184602F12004034670
:104AB0001146D1F800C04E688D68C968C3F800C0BF
:104AC0005E609D60D96010321030A242EFD1034683
:104AD0001468506891681C60586099609189927B55
:104AE00099819A7300237B6005233B727B691B7855
:104AF0007B720F4B18683A1D07F10801002307F07D
:104B0000E1F97B68002B07D00A4B4FF080521A6006
:104B1000BFF34F8FBFF36F8F00BF1C37BD46F0BD93
:104B20009C0F0020D8000020B107002034FB0008B3
:104B3000A417002004ED00E080B500AF0A4B5B79BC
:104B4000052B02D1FFF7F2F90CE0074B5B79062B3E
:104B500002D1FFF777FD05E0034B5B79072B01D10D
:104B6000FFF75EFF00BF80BDD800002080B582B097
:104B700000AFFCF7EDFD0346002B0ED012210948D3
:104B8000FCF759FB0346FB71FB7903F04003002B54
:104B900003D0FDF765F9FFF7CFFF00BF0837BD462B
:104BA00080BD00BF7C00002080B586B000AF03460A
:104BB000FB80FB88022B21D1414AFB8853614FF4D3
:104BC0007A7000F0A9FDFB8819463E4801F02EF8E6
:104BD0000346002B6BD04FF4FA6306223A493B4858
:104BE00004F028F900233B7400237B740023BB747A
:104BF00007F110031846FFF7CFF85DE0FB88042BA0
:104C000021D12F4AFB8853614FF47A7000F084FD64
:104C1000FB8819462B4801F009F80346002B48D0C1
:104C20004FF4FA6306222A49284804F003F90023C6
:104C30003B7301237B730423BB7307F10C031846FA
:104C4000FFF7AAF838E0FB88082B21D11C4AFB8823
:104C500053614FF47A7000F05FFDFB8819461948E4
:104C600000F0E4FF0346002B25D04FF4FA63062240
:104C70001849164804F0DEF800233B7202237B72C9
:104C80000023BB7207F108031846FFF785F813E00D
:104C9000FB88012B10D100237B614FF4FA630522BE
:104CA0000D490A4804F0C6F8FFF760FF04E000BFB2
:104CB00002E000BF00E000BF1837BD4680BD00BF66
:104CC000003C0140000402404CFB00088019002019
:104CD00054FB00085CFB000864FB000880B500AFD3
:104CE00000F0D8FC00F014F800F080F900F02AF988
:104CF00000F0A4F800F074F800F04EF900F0D4F8D9
:104D00000520FDF709F907F01BFF00BFFDE70000D4
:104D100080B594B000AF07F120033022002118467F
:104D20000AF086F807F10C0300221A605A609A60B4
:104D3000DA601A610023BB60274B1B6C264A43F0E4
:104D400080531364244B1B6C03F08053BB60BB681F
:104D500000237B60214B1B68204A43F440431360CF
:104D60001E4B1B6803F440437B607B6801233B625E
:104D70004FF480337B620223BB634FF48003FB63F9
:104D80000F233B6490237B640623BB640523FB64F1
:104D900007F12003184602F02BF90346002B01D03F
:104DA00000F0D0F90F23FB6002233B6100237B61FD
:104DB0000023BB610023FB6107F10C0301211846AE
:104DC00002F08EFB0346002B01D000F0BBF900BFC0
:104DD0005037BD4680BD00BF003802400070004023
:104DE00080B500AF124B134A1A60114B124A5A6039
:104DF0000F4B00229A600E4B0022DA600C4B4FF4EE
:104E000080421A610A4B00225A61094B00229A61C2
:104E1000074B0022DA61064B00221A62044800F0B8
:104E20004FFF0346002B01D000F08CF900BF80BD7E
:104E30004418002000540040A086010080B500AF57
:104E4000174B184A1A60164B4FF482725A60144B73
:104E500000229A60124B0022DA60114B00221A6184
:104E60000F4B00225A610E4B4FF400729A610C4BAB
:104E70002822DA610A4B00221A62094B00225A6288
:104E8000074B00229A62064B0A22DA62044802F0BB
:104E900039FD0346002B01D000F054F900BF80BD5E
:104EA000981800200030014080B586B000AF07F1AF
:104EB000080300221A605A609A60DA603B460022BA
:104EC0001A605A601E4B4FF080421A601C4B49F624
:104ED0003F425A601A4B00229A60194B40F2E73267
:104EE000DA60174B00221A61154B00229A611448B0
:104EF00003F0E8FA0346002B01D000F023F94FF449
:104F00008053BB6007F1080319460D4803F0ABFC62
:104F10000346002B01D000F015F900233B6000236D
:104F20007B603B461946064803F0B2FE0346002B61
:104F300001D000F007F900BF1837BD4680BD00BFA3
:104F4000F018002080B500AF114B124A1A60104BC8
:104F50004FF4E1325A600E4B00229A600C4B002253
:104F6000DA600B4B00221A61094B0C225A61084B84
:104F700000229A61064B0022DA61054803F00AFF1D
:104F80000346002B01D000F0DDF800BF80BD00BF5C
:104F9000381900200010014080B500AF114B124AB3
:104FA0001A60104B4FF4E1325A600E4B00229A60A7
:104FB0000C4B0022DA600B4B00221A61094B0C22C9
:104FC0005A61084B00229A61064B0022DA610548BB
:104FD00003F0E0FE0346002B01D000F0B3F800BF61
:104FE00080BD00BF801900200044004080B588B01B
:104FF00000AF07F10C0300221A605A609A60DA6071
:105000001A610023BB603D4B1B6B3C4A43F080039D
:1050100013633A4B1B6B03F08003BB60BB68002338
:105020007B60364B1B6B354A43F001031363334BF4
:105030001B6B03F001037B607B6800233B602F4BFD
:105040001B6B2E4A43F0020313632C4B1B6B03F0C4
:1050500002033B603B6800224FF48871284800F04F
:10506000FDFD4FF48873FB6001233B6100237B61EE
:105070000123BB6107F10C031946214800F052FCE3
:105080000123FB604FF488133B6100237B6107F130
:105090000C0319461B4800F045FC0E23FB604FF43F
:1050A00088133B6102237B6107F10C031946154805
:1050B00000F038FC00220721062000F009FC062041
:1050C00000F022FC00220821072000F001FC07204C
:1050D00000F01AFC00220821082000F0F9FB08204B
:1050E00000F012FC00220821092000F0F1FB092049
:1050F00000F00AFC00BF2037BD4680BD00380240EA
:10510000000002400004024080B400AF00BFFDE791
:1051100080B582B000AF78607B681B68084A934214
:1051200002D100F0D9FA06E07B681B68B3F1804F2A
:1051300001D1FEF743F800BF0837BD4680BD00BF70
:105140000004004080B400AF72B600BF00BFFDE7AE
:1051500080B582B000AF00237B60124B5B6C114ABC
:1051600043F4804353640F4B5B6C03F480437B60D8
:105170007B6800233B600B4B1B6C0A4A43F0805357
:105180001364084B1B6C03F080533B603B680022A8
:105190000F216FF0010000F09BFB00BF0837BD46F8
:1051A00080BD00BF0038024080B58AB000AF786093
:1051B00007F1140300221A605A609A60DA601A61DB
:1051C0007B681B68194A93422BD100233B61184B23
:1051D0001B6B174A43F002031363154B1B6B03F061
:1051E00002033B613B69C0237B611223BB61002347
:1051F000FB6103233B6204237B6207F1140319461E
:105200000C4800F08FFB0023FB60094B1B6C084A25
:1052100043F400131364064B1B6C03F40013FB6090
:10522000FB6800BF2837BD4680BD00BF005400406A
:10523000003802400004024080B58AB000AF7860B8
:1052400007F1140300221A605A609A60DA601A614A
:105250007B681B68194A93422BD100233B61184B92
:105260005B6C174A43F480535364154B5B6C03F437
:1052700080533B613B690023FB60114B1B6B104A61
:1052800043F0010313630E4B1B6B03F00103FB6040
:10529000FB68E0237B610223BB610023FB610323E6
:1052A0003B6205237B6207F114031946054800F0B1
:1052B00039FB00BF2837BD4680BD00BF003001402C
:1052C000003802400000024080B584B000AF786032
:1052D0007B681B68B3F1804F15D10023FB600C4B3A
:1052E0001B6C0B4A43F001031364094B1B6C03F066
:1052F0000103FB60FB68002206211C2000F0E8FA95
:105300001C2000F001FB00BF1037BD4680BD00BF70
:105310000038024080B58CB000AF786007F11C0304
:1053200000221A605A609A60DA601A617B681B6812
:10533000324A93422DD10023BB61314B5B6C304A22
:1053400043F0100353642E4B5B6C03F01003BB61FE
:10535000BB6900237B612A4B1B6B294A43F0010385
:105360001363274B1B6B03F001037B617B694FF4D5
:10537000C063FB6102233B6200237B620323BB62A9
:105380000723FB6207F11C0319461E4800F0CAFA06
:1053900030E07B681B681C4A93422BD100233B61A1
:1053A000174B1B6C164A43F400331364144B1B6CED
:1053B00003F400333B613B690023FB60104B1B6B24
:1053C0000F4A43F0010313630D4B1B6B03F0010302
:1053D000FB60FB680C23FB6102233B6200237B62C2
:1053E0000323BB620723FB6207F11C031946054830
:1053F00000F098FA00BF3037BD4680BD0010014074
:1054000000380240000002400044004080B58EB0E9
:1054100000AF78600023FB620023BB620023FB60C7
:10542000334B1B6C324A43F002031364304B1B6C4A
:1054300003F00203FB60FB6807F1100207F114039D
:105440001146184602F02CFA3B6AFB62FB6A002BFD
:1054500003D102F0FDF9786304E002F0F9F90346A4
:105460005B007B637B6B234AA2FB03239B0C013B0A
:10547000BB62214B214A1A601F4B40F2E732DA60CF
:105480001D4ABB6A53601C4B00221A611A4B002252
:105490009A60194B00229A61174803F013F80346EB
:1054A00087F8333097F83330002B1BD1124803F0C4
:1054B00059F8034687F8333097F83330002B11D171
:1054C0001D2000F021FA7B680F2B08D80022796894
:1054D0001D2000F0FDF90A4A7B68136002E00123F9
:1054E00087F8333097F8333018463837BD4680BDDB
:1054F0000038024083DE1B43C8190020000400402E
:105500000400002080B400AF00BFFDE780B400AF0E
:1055100000BFFDE780B400AF00BFFDE780B400AF7F
:1055200000BFFDE780B400AF00BFFDE780B400AF6F
:1055300000BFBD465DF8047B704780B500AF012019
:1055400000F0A6FB00BF80BD80B500AF022000F0D8
:105550009FFB00BF80BD80B500AF042000F098FB2A
:1055600000BF80BD80B500AF082000F091FB00BFF8
:1055700080BD000080B500AF024803F084F800BF92
:1055800080BD00BFF018002080B500AF024803F0D6
:105590007AF800BF80BD00BFC819002080B500AFF9
:1055A000024800F0D1FC00BF80BD00BF0C07012005
:1055B00080B586B000AF7860144A154BD31A7B6172
:1055C0007B693B61134B1B68002B02D1114B124AC4
:1055D0001A60104B1A687B6813443A699A4207D2E2
:1055E00009F03EFC03460C221A604FF0FF3309E03D
:1055F000084B1B68FB60074B1A687B681344054A1D
:105600001360FB6818461837BD4680BD00000220B5
:1056100000040000101A0020380D012080B400AFF3
:10562000064BD3F88830054A43F47003C2F888303B
:1056300000BFBD465DF8047B704700BF00ED00E091
:10564000DFF834D0FFF7EAFF0C480D490D4A00237C
:1056500002E0D458C4500433C4188C42F9D30A4A27
:105660000A4C002301E013600432A242FBD309F08C
:10567000FDFBFFF733FB7047000002200000002015
:1056800060000020E0FB000860000020380D0120D1
:10569000FEE7000080B500AF0E4B1B680D4A43F4D7
:1056A000007313600B4B1B680A4A43F4806313605A
:1056B000084B1B68074A43F480731360032000F013
:1056C000FCF80020FFF7A2FEFFF742FD002318467A
:1056D00080BD00BF003C024080B400AF064B1B7889
:1056E0001A46064B1B681344044A136000BFBD46AC
:1056F0005DF8047B704700BF08000020141A0020EA
:1057000080B400AF034B1B681846BD465DF8047BB0
:10571000704700BF141A002080B584B000AF7860D5
:10572000FFF7EEFFB8607B68FB60FB68B3F1FF3FFB
:1057300005D00A4B1B781A46FB681344FB6000BF78
:10574000FFF7DEFF0246BB68D31AFA689A42F7D821
:1057500000BF00BF1037BD4680BD00BF080000205D
:1057600080B485B000AF78607B6803F00703FB600E
:105770000C4BDB68BB60BA684FF6FF031340BB609D
:10578000FB681A02BB68134343F0BF6343F4003362
:10579000BB60044ABB68D36000BF1437BD465DF8E8
:1057A000047B704700ED00E080B400AF044BDB6881
:1057B0001B0A03F007031846BD465DF8047B7047DB
:1057C00000ED00E080B483B000AF0346FB7197F9B1
:1057D0000730002B0BDBFB7903F01F02074997F919
:1057E00007305B09012000FA02F241F8232000BFD4
:1057F0000C37BD465DF8047B704700BF00E100E058
:1058000080B483B000AF03463960FB7197F907306D
:10581000002B0ADB3B68DAB20C4997F9073012011A
:10582000D2B20B4483F800230AE03B68DAB208499D
:10583000FB7903F00F03043B1201D2B20B441A763A
:1058400000BF0C37BD465DF8047B704700E100E007
:1058500000ED00E080B489B000AFF860B9607A6014
:10586000FB6803F00703FB61FB69C3F10703042B2B
:1058700028BF0423BB61FB690433062B02D9FB69F3
:10588000033B00E000237B614FF0FF32BB6902FA6B
:1058900003F3DA43BB681A407B699A404FF0FF314B
:1058A0007B6901FA03F3D9437B680B401343184625
:1058B0002437BD465DF8047B704780B582B000AFE9
:1058C00078607868FFF74CFF00BF0837BD4680BDA1
:1058D00080B586B000AF0346B9607A60FB730023E1
:1058E0007B61FFF761FF78617A68B9687869FFF7D3
:1058F000B1FF024697F90F3011461846FFF780FFB7
:1059000000BF1837BD4680BD80B582B000AF0346EA
:10591000FB7197F907301846FFF754FF00BF0837AF
:10592000BD4680BD80B489B000AF78603960002387
:105930007B6100233B610023BB610023FB6159E1D4
:105940000122FB6902FA03F37B613B681B687A69F9
:1059500013403B613A697B699A4240F048813B6859
:105960005B6803F00303012B05D03B685B6803F021
:105970000303022B30D17B689B68BB61FB695B0032
:10598000032202FA03F3DB43BA691340BB613B68AD
:10599000DA68FB695B0002FA03F3BA691343BB617F
:1059A0007B68BA699A607B685B68BB610122FB69AE
:1059B00002FA03F3DB43BA691340BB613B685B68DF
:1059C0001B0903F00102FB6902FA03F3BA691343EE
:1059D000BB617B68BA695A603B685B6803F003038C
:1059E000032B17D07B68DB68BB61FB695B0003227C
:1059F00002FA03F3DB43BA691340BB613B689A6860
:105A0000FB695B0002FA03F3BA691343BB617B686D
:105A1000BA69DA603B685B6803F00303022B23D1A9
:105A2000FB69DA087B68083253F82230BB61FB69F6
:105A300003F007039B000F2202FA03F3DB43BA696A
:105A40001340BB613B681A69FB6903F007039B00C5
:105A500002FA03F3BA691343BB61FB69DA087B6896
:105A60000832B96943F822107B681B68BB61FB6987
:105A70005B00032202FA03F3DB43BA691340BB6104
:105A80003B685B6803F00302FB695B0002FA03F307
:105A9000BA691343BB617B68BA691A603B685B688B
:105AA00003F44033002B00F0A2800023FB60574B2F
:105AB0005B6C564A43F480435364544B5B6C03F471
:105AC0008043FB60FB68524AFB699B08023352F833
:105AD0002330BB61FB6903F003039B000F2202FA32
