:020000040800F2
:10000000000002203D4E0008014D0008094D000887
:10001000114D0008194D0008214D00080000000096
:10002000000000000000000000000000B1D800083F
:10003000294D00080000000001DB000869DB000812
:100040008D4E00088D4E00088D4E00088D4E000824
:100050008D4E00088D4E0008374D0008454D0008B4
:10006000534D0008614D00088D4E00088D4E00086C
:100070008D4E00088D4E00088D4E00088D4E0008F4
:100080008D4E00088D4E00088D4E000800000000C7
:100090000000000000000000000000008D4E00087D
:1000A0008D4E00088D4E00088D4E00088D4E0008C4
:1000B000714D0008854D00088D4E00088D4E0008DA
:1000C0008D4E00088D4E00088D4E00088D4E0008A4
:1000D0008D4E00088D4E00088D4E00080000000077
:1000E0008D4E00088D4E00088D4E00080000000067
:1000F0000000000000000000000000008D4E00081D
:10010000000000008D4E00088D4E00088D4E000846
:1001100000000000000000000000000000000000DF
:100120008D4E00088D4E00088D4E00088D4E000843
:100130008D4E0008000000000000000000000000DC
:10014000000000000000000000000000994D0008C1
:100150008D4E00088D4E00088D4E00088D4E000813
:100160008D4E00088D4E00080000000000000000C9
:10017000000000000000000000000000000000007F
:10018000000000008D4E000800000000000000008C
:080190008D4E00088D4E0008A1
:1001A00010B5054C237833B9044B13B10448AFF3B1
:1001B00000800123237010BD6000002000000000BB
:1001C000D4ED000808B5034B1BB103490348AFF356
:1001D000008008BD0000000064000020D4ED00088D
:1001E000034613F8012B002AFBD1181A0138704777
:1001F00001F0FF01102A2BDB10F0070F08D010F8D8
:10020000013B013A8B422DD010F0070F42B3F6D1DB
:10021000F0B441EA012141EA014122F007047FF0F4
:1002200000070023F0E80256083C85EA010586EA4B
:10023000010685FA47F5A3FA87F586FA47F6A5FA87
:1002400087F68EB9EED1F0BC01F0FF0102F0070293
:1002500032B110F8013B013A83EA010313B1F8D13E
:100260000020704701387047002D06BF354603381F
:10027000073815F0010F07D1013015F4807F02BF58
:10028000013015F4C03F0130F0BC0138704700BFA9
:1002900081F0004102E000BF83F0004330B54FEA37
:1002A00041044FEA430594EA050F08BF90EA020FA4
:1002B0001FBF54EA000C55EA020C7FEA645C7FEA37
:1002C000655C00F0E2804FEA5454D4EB5555B8BF5A
:1002D0006D420CDD2C4480EA020281EA030382EACB
:1002E000000083EA010180EA020281EA0303362D5D
:1002F00088BF30BD11F0004F4FEA01314FF4801C30
:100300004CEA113102D0404261EB410113F0004F41
:100310004FEA03334CEA133302D0524263EB4303F8
:1003200094EA050F00F0A780A4F10104D5F1200E96
:100330000DDB02FA0EFC22FA05F2801841F10001F1
:1003400003FA0EF2801843FA05F359410EE0A5F1C5
:1003500020050EF1200E012A03FA0EFC28BF4CF0F6
:10036000020C43FA05F3C01851EBE37101F00045AC
:1003700007D54FF0000EDCF1000C7EEB00006EEBB9
:100380000101B1F5801F1BD3B1F5001F0CD3490843
:100390005FEA30004FEA3C0C04F101044FEA44529A
:1003A00012F5800F80F09A80BCF1004F08BF5FEA21
:1003B000500C50F1000041EB045141EA050130BD01
:1003C0005FEA4C0C404141EB0101013C28BFB1F513
:1003D000801FE9D291F0000F04BF01460020B1FA5E
:1003E00081F308BF2033A3F10B03B3F120020CDA31
:1003F0000C3208DD02F1140CC2F10C0201FA0CF00F
:1004000021FA02F10CE002F11402D8BFC2F1200C73
:1004100001FA02F120FA0CFCDCBF41EA0C01904029
:10042000E41AA2BF01EB0451294330BD6FEA040472
:100430001F3C1CDA0C340EDC04F11404C4F120025D
:1004400020FA04F001FA02F340EA030021FA04F36F
:1004500045EA030130BDC4F10C04C4F1200220FAC6
:1004600002F001FA04F340EA0300294630BD21FA04
:1004700004F0294630BD94F0000F83F4801306BFCA
:1004800081F480110134013D4EE77FEA645C18BFBE
:100490007FEA655C29D094EA050F08BF90EA020F55
:1004A00005D054EA000C04BF1946104630BD91EA4D
:1004B000030F1EBF0021002030BD5FEA545C05D150
:1004C0004000494128BF41F0004130BD14F580048F
:1004D0003CBF01F5801130BD01F0004545F0FE4103
:1004E00041F470014FF0000030BD7FEA645C1ABF38
:1004F000194610467FEA655C1CBF0B46024650EA6F
:10050000013406BF52EA033591EA030F41F400219A
:1005100030BD00BF90F0000F04BF0021704730B520
:100520004FF4806404F132044FF000054FF00001F5
:1005300050E700BF90F0000F04BF0021704730B5B6
:100540004FF4806404F1320410F0004548BF40428B
:100550004FF000013EE700BF42004FEAE2014FEAE0
:1005600031014FEA02701FBF12F07F4393F07F4FBB
:1005700081F06051704732F07F4208BF704793F0BE
:100580007F4F04BF41F40021704730B54FF46074D1
:1005900001F0004521F000411CE700BF50EA0102D4
:1005A00008BF704730B54FF000050AE050EA01027D
:1005B00008BF704730B511F0004502D5404261EBED
:1005C00041014FF4806404F132045FEA915C3FF42E
:1005D000D8AE4FF003025FEADC0C18BF03325FEACB
:1005E000DC0C18BF033202EBDC02C2F1200300FA7C
:1005F00003FC20FA02F001FA03FE40EA0E0021FAA1
:1006000002F11444BDE600BF70B54FF0FF0C4CF48E
:10061000E06C1CEA11541DBF1CEA135594EA0C0F40
:1006200095EA0C0F00F0DEF82C4481EA030621EA7B
:100630004C5123EA4C5350EA013518BF52EA0335B6
:1006400041F4801143F4801338D0A0FB02CE4FF068
:100650000005E1FB02E506F00042E0FB03E54FF098
:100660000006E1FB03569CF0000F18BF4EF0010E90
:10067000A4F1FF04B6F5007F64F5407404D25FEA8C
:100680004E0E6D4146EB060642EAC62141EA55513F
:100690004FEAC52040EA5E504FEACE2EB4F1FD0C81
:1006A00088BFBCF5E06F1ED8BEF1004F08BF5FEAFF
:1006B000500E50F1000041EB045170BD06F00046B1
:1006C00046EA010140EA020081EA0301B4EB5C045E
:1006D000C2BFD4EB0C0541EA045170BD41F4801156
:1006E0004FF0000E013C00F3AB8014F1360FDEBF7B
:1006F000002001F0004170BDC4F10004203C35DA57
:100700000C341BDC04F11404C4F1200500FA05F3D9
:1007100020FA04F001FA05F240EA020001F000427A
:1007200021F0004110EBD37021FA04F642EB0601F0
:100730005EEA430E08BF20EAD37070BDC4F10C041A
:10074000C4F1200500FA04F320FA05F001FA04F2DE
:1007500040EA020001F0004110EBD37041F10001CA
:100760005EEA430E08BF20EAD37070BDC4F12005D5
:1007700000FA05F24EEA020E20FA04F301FA05F23D
:1007800043EA020321FA04F001F0004121FA04F2E5
:1007900020EA020000EBD3705EEA430E08BF20EAB5
:1007A000D37070BD94F0000F0FD101F000464000EF
:1007B00041EB010111F4801F08BF013CF7D041EA71
:1007C000060195F0000F18BF704703F00046520075
:1007D00043EB030313F4801F08BF013DF7D043EA46
:1007E0000603704794EA0C0F0CEA135518BF95EAFC
:1007F0000C0F0CD050EA410618BF52EA4306D1D183
:1008000081EA030101F000414FF0000070BD50EAA1
:10081000410606BF1046194652EA430619D094EA2B
:100820000C0F02D150EA013613D195EA0C0F05D115
:1008300052EA03361CBF104619460AD181EA030169
:1008400001F0004141F0FE4141F470014FF0000021
:1008500070BD41F0FE4141F4780170BD70B54FF0BC
:10086000FF0C4CF4E06C1CEA11541DBF1CEA13553C
:1008700094EA0C0F95EA0C0F00F0A7F8A4EB05041E
:1008800081EA030E52EA03354FEA013100F0888015
:100890004FEA03334FF0805545EA131343EA1263DE
:1008A0004FEA022245EA111545EA10654FEA002693
:1008B0000EF000419D4208BF964244F1FD0404F54C
:1008C000407402D25B084FEA3202B61A65EB0305A8
:1008D0005B084FEA32024FF480104FF4002CB6EB65
:1008E000020E75EB030E22BFB61A754640EA0C00E5
:1008F0005B084FEA3202B6EB020E75EB030E22BF25
:10090000B61A754640EA5C005B084FEA3202B6EB65
:10091000020E75EB030E22BFB61A754640EA9C0024
:100920005B084FEA3202B6EB020E75EB030E22BFF4
:10093000B61A754640EADC0055EA060E18D04FEAB2
:10094000051545EA16754FEA06164FEAC30343EA52
:1009500052734FEAC2025FEA1C1CC0D111F4801F1F
:100960000BD141EA00014FF000004FF0004CB6E718
:1009700011F4801F04BF01430020B4F1FD0C88BFB7
:10098000BCF5E06F3FF6AFAEB5EB030C04BFB6EBC2
:10099000020C5FEA500C50F1000041EB045170BDB5
:1009A0000EF0004E4EEA113114EB5C04C2BFD4EBE2
:1009B0000C0541EA045170BD41F480114FF0000E66
:1009C000013C90E645EA060E8DE60CEA135594EAE2
:1009D0000C0F08BF95EA0C0F3FF43BAF94EA0C0FE5
:1009E0000AD150EA01347FF434AF95EA0C0F7FF45A
:1009F00025AF104619462CE795EA0C0F06D152EAAE
:100A000003353FF4FDAE1046194622E750EA410691
:100A100018BF52EA43067FF4C5AE50EA41047FF4A2
:100A20000DAF52EA43057FF4EBAE12E74FEA410205
:100A300012F5001215D211D56FF47873B3EB625230
:100A400012D94FEAC12343F0004343EA505311F057
:100A5000004F23FA02F018BF404270474FF00000E9
:100A6000704750EA013005D111F0004008BF6FF027
:100A7000004070474FF00000704700BF53B94AB9BB
:100A8000002908BF00281CBF4FF0FF314FF0FF3096
:100A900000F06AB9ADF1080C6DE904CE00F006F87B
:100AA000DDF804E0DDE9022304B070472DE9F047EA
:100AB000089D0C46002B4ED194468C458646B2FAD2
:100AC00082F262D94AB1C2F12003914020FA03F3C5
:100AD0000CFA02FC194300FA02FE4FEA1C471FFA07
:100AE0008CF6B1FBF7F44FEA1E4307FB141143EAFF
:100AF000014304FB06F199420AD91CEB030304F1FC
:100B0000FF3080F01281994240F20F81023C634431
:100B1000591A1FFA8EF3B1FBF7F007FB101143EAE5
:100B2000014300FB06F69E420AD91CEB030300F1C9
:100B3000FF3180F0FC809E4240F2F980634402382D
:100B40009B1B40EA044000211DB1D3400022C5E9AF
:100B50000032BDE8F0878B4205D90DB1C5E900012F
:100B600000210846F5E7B3FA83F1002946D1A342F4
:100B700002D39042C0F0F080861A64EB0303012098
:100B8000002DE6D0C5E90063E3E7002A40F090803D
:100B9000A1EB0C044FEA1C481FFA8CF70121B4FBAF
:100BA000F8F64FEA1E4308FB164443EA044307FBEA
:100BB00006F0984208D91CEB030306F1FF3402D279
:100BC000984200F2CD8026461C1A1FFA8EF3B4FB21
:100BD000F8F008FB104443EA044300FB07F79F4288
:100BE00008D91CEB030300F1FF3402D29F4200F24C
:100BF000B0802046DB1B40EA0640A5E7C1F1200695
:100C00008B4022FA06F71F4320FA06FC04FA01F390
:100C100043EA0C03F44000FA01F8380C4FEA134998
:100C2000B4FBF0FE1FFA87FC00FB1E4449EA0444B3
:100C30000EFB0CF9A14502FA01F20AD93C190EF19A
:100C4000FF3A80F08480A14540F28180AEF1020E2F
:100C50003C44A4EB09041FFA83F9B4FBF0F300FB56
:100C6000134449EA044403FB0CFCA44507D93C198E
:100C700003F1FF3067D2A44565D9023B3C4443EA07
:100C80000E40A0FB0293A4EB0C049C42CE469C4673
:100C900051D34ED055B1B8EB0E0364EB0C0404FAFB
:100CA00006F6CB401E43CC40C5E90064002150E766
:100CB000C2F1200320FA03F10CFA02FC24FA03F338
:100CC00094400C434FEA1C4800FA02FE1FFA8CF7CE
:100CD000B3FBF8F008FB1031230C43EA014300FB9F
:100CE00007F1994208D91CEB030300F1FF362CD21F
:100CF00099422AD9023863445B1AA4B2B3FBF8F1D3
:100D000008FB113344EA034401FB07F3A34208D96B
:100D10001CEB040401F1FF3613D2A34211D90239AE
:100D20006444E41A41EA004139E70446F0E6084623
:100D300006E7C845AED2B9EB020E63EB070C0138EB
:100D4000A8E73146EDE7034699E73046D4E7D646B3
:100D50007FE7634402384DE70646234608460FE71F
:100D6000023E634430E700BF704700BFB0B48FB0AD
:100D700000AF786040F2B113FB62072387F8303090
:100D8000072387F83130012387F83230FF2387F8B3
:100D90003630642387F837300823BB867B681D46CE
:100DA00007F10C040FCC0FC50FCC0FC594E807005A
:100DB00085E8070078683C37BD46B0BC704780B511
:100DC00082B000AF78607B6898687B689B8900225E
:100DD000194604F041FB012004F09CF87B689868F8
:100DE0007B689B890122194604F036FB642004F0DD
:100DF00091F800BF0837BD4680BD80B584B000AF14
:100E0000786039600121786800F015FA0346BB73F9
:100E1000BB7BFB733B68002B07D1BB7B23F0070335
:100E2000FB737B680022DA6149E03B68012B0CD13F
:100E300097F90E3023F007035BB243F001035BB276
:100E4000FB737B680122DA6139E03B68032B0CD12C
:100E500097F90E3023F007035BB243F003035BB254
:100E6000FB737B680322DA6129E03B68052B0CD118
:100E700097F90E3023F007035BB243F005035BB232
:100E8000FB737B680522DA6119E03B68062B0CD105
:100E900097F90E3023F007035BB243F006035BB211
:100EA000FB737B680622DA6109E03B68072B06D1F9
:100EB000BB7B43F00703FB737B680722DA61FB7B94
:100EC0001A460121786800F0D0F900BF1037BD46FE
:100ED00080BD80B584B000AFF860B9603B60134658
:100EE000FB80FB681868FB689B880022194604F0A9
:100EF000B3FAFB689869FA884FF47A63B96806F028
:100F000088F900BFFB689B69184606F088FD034618
:100F1000012BF7D1FB6898693A8B4FF47A633968F3
:100F200006F0BBFA00BFFB689B69184606F077FD28
:100F30000346012BF7D1FB681868FB689B880122E8
:100F4000194604F089FA00BF1037BD4680BD80B550
:100F500084B000AFF860B9603B601346FB80FB686B
:100F60001868FB689B880122194604F075FA0A206C
:100F700003F0D0FFFB681868FB689B8800221946C5
:100F800004F06AFAFB689869FA884FF47A63B968E2
:100F900006F03FF900BFFB689B69184606F03FFD6D
:100FA0000346012BF7D1FB6898693A8B4FF47A63BB
:100FB000396806F02EF900BFFB689B69184606F0F9
:100FC0002EFD0346012BF7D1FB681868FB689B8850
:100FD0000122194604F040FA00BF1037BD4680BD1B
:100FE00080B584B000AF78600B46FB70262178682E
:100FF00000F021F90346BB73FB78002B04D0BB7BC8
:1010000043F00803FB7303E0BB7B23F00803FB738F
:10101000FB7B1A462621786800F027F90A2003F0A6
:1010200079FF00BF1037BD4680BD000080B596B087
:1010300000AF7860174A07F108031146502218469E
:101040000DF03AFB7B6893F824301A460123934055
:101050001846FFF76FFA7B6893F82530DB005833AA
:101060003B44503BD3E90023FFF7F8FB02460B4615
:1010700010461946FFF7DAFC0346102BCCBF0123BC
:101080000023DBB219467868FFF7AAFF00BF583784
:10109000BD4680BDF0ED000880B584B000AF78603B
:1010A00039603B68DB045B11FB60FB681B0CFB7267
:1010B000FB7A1A460621786800F0D7F8052003F07D
:1010C00029FFFB681B0AFB72FB7A1A460721786826
:1010D00000F0CBF8052003F01DFFFB68FB72FB7AE4
:1010E0001A460821786800F0C0F8052003F012FFC6
:1010F00000BF1037BD4680BD80B584B000AF7860BA
:1011000039603B680C2B01DD0C233B603B68062BF0
:1011100001DC07233B601E21786800F08CF8034651
:10112000FB730A2003F0F6FE3B68DBB21B01DAB268
:10113000FB7B03F00F03DBB21344BB73BB7B1A468C
:101140001E21786800F091F80A2003F0E3FE786829
:10115000FFF76CFF00BF1037BD4680BD80B582B081
:1011600000AF78600B46FB70FB781A46092178685F
:1011700000F07BF80A2003F0CDFE00BF0837BD4623
:1011800080BD000080B584B000AF78600B46FB7076
:101190000023FB73FB782C2B01D82D23FB70FB78ED
:1011A000F02B01D9F023FB70FB78782B09D8FB7862
:1011B0002D3B124A82FB03125210DB17D31AFB732A
:1011C0000BE0FB78F02B08D8FB781E330B4A82FB30
:1011D00003129210DB17D31AFB73FB7B2033FB73D4
:1011E000FB7B1A460B21786800F03FF80A2003F0D9
:1011F00091FE00BF1037BD4680BD00BF67666666C2
:1012000080B584B000AF78601E21786800F013F8D4
:101210000346FB73FB7B43F00703BB73BB7B1A46A0
:101220001E21786800F021F80A2003F073FE00BF49
:101230001037BD4680BD80B586B002AF78600B46E2
:10124000FB70FB7803F07F03DBB2BB7307F10F0386
:1012500007F10E010122009201227868FFF739FEA2
:10126000FB7B18461037BD4680BD80B586B002AF07
:1012700078600B46FB701346BB70FB7863F07F030E
:10128000DBB2BB73BB78FB7307F10F0307F10E01F1
:101290000122009201227868FFF759FE00BF103743
:1012A000BD4680BD80B586B000AFF8607A601A4652
:1012B0000B46FB721346BB72FB7A63F07F03DBB213
:1012C000FB75FB681868FB689B880022194604F0D0
:1012D000C3F8FB68986907F117014FF47A6301229C
:1012E00005F097FF00BFFB689B69184606F097FB67
:1012F0000346012BF7D1FB689869BB7A9AB24FF489
:101300007A63796805F085FF00BFFB689B69184622
:1013100006F085FB0346012BF7D1FB681868FB68D4
:101320009B880122194604F097F800BF1837BD4684
:1013300080BD80B483B000AF7860012318460C37BD
:10134000BD465DF8047B704780B586B000AFF8609D
:10135000B96011461A460B46FB711346BB80FB6809
:10136000DB697B610121F868FFF747FD0E21F86812
:10137000FFF761FF0346FB74FB7C1A460D21F868FA
:10138000FFF773FFFB791A462221F868FFF76DFF1C
:10139000FB79BA680021F868FFF784FF0321F86839
:1013A000FFF72BFD1221F868FFF745FF0346FB749A
:1013B000FB7C03F00803002B0AD0FF221221F868FF
:1013C000FFF753FF7969F868FFF717FD01230FE076
:1013D000BB88013BBB80BB88002B05D17969F868CD
:1013E000FFF70BFD002303E0012003F093FDD9E795
:1013F00018461837BD4680BD80B582B000AF786012
:1014000005217868FFF7F9FC00BF0837BD4680BDAD
:1014100080B582B000AF786007217868FFF7EDFCF7
:1014200000BF0837BD4680BD90B589B000AFF860F9
:10143000B9601346FB710023FB770023BB6107E013
:10144000BB69BA68134400221A70BB690133BB61DF
:10145000FB79BA699A42F3DB0121F868FFF7CDFC0A
:101460001221F868FFF7E7FE0346FB74FB7C03F0EC
:101470004003002B2FD0FF221221F868FFF7F5FE62
:101480001321F868FFF7D7FE0346BB741021F868F4
:10149000FFF7D1FE0346FB74FB7C1A460D21F8686A
:1014A000FFF7E3FEBA7CFB79934228BF1346FB7734
:1014B00000237B610BE07B69BA68D4180021F868CF
:1014C000FFF7B9FE034623707B6901337B61FB7F25
:1014D0007A699A42EFDB0521F868FFF78EFCFB7F03
:1014E00018462437BD4690BD80B584B000AF786003
:1014F0007868FFF71EFF0346002B00F0968000215E
:101500007868FFF77AFC0A2003F004FD012178686F
:10151000FFF791FE0346FB730A2003F0FBFCFB7B05
:1015200063F07F03BB73BB7B1A4601217868FFF72A
:101530009CFE642003F0EEFC7B681B6A1946786809
:10154000FFF7AAFD7B6893F82A3019467868FFF701
:1015500005FE7B6893F82B3019467868FFF712FE7A
:1015600023220C217868FFF780FE7868FFF748FE99
:101570007B6893F8243019467868FFF7BDFDFF2299
:101580001F217868FFF771FE0023BB737B6893F817
:1015900025301B01DAB27B6893F826305B00DBB2A2
:1015A0001344BB73BB7B1A461D217868FFF75DFEB1
:1015B0007868FFF73BFD7B681B8D1B0A9BB2DBB293
:1015C0001A4620217868FFF750FE7B681B8DDBB23E
:1015D0001A4621217868FFF748FE40217868FFF716
:1015E0002AFE0346FB73FB7B43F03F03BB73BB7BCD
:1015F0001A4640217868FFF738FE01217868FFF726
:10160000FCFB7B680122DA610A2003F083FC4221A3
:101610007868FFF710FE0346FB73FB7B122B01D1AA
:10162000C82304E04FF4CA7301E040F2F7131846F0
:101630001037BD4680BD000080B483B000AF0346C4
:10164000FB7197F90730002B0BDBFB7903F01F02CE
:10165000074997F907305B09012000FA02F241F8C7
:10166000232000BF0C37BD465DF8047B704700BFE8
:1016700000E100E080B483B000AF0346FB7197F94E
:101680000730002B12DBFB7903F01F020A4997F9A0
:1016900007305B09012000FA02F2203341F82320D1
:1016A000BFF34F8F00BFBFF36F8F00BF00BF0C377A
:1016B000BD465DF8047B704700E100E080B500AFF7
:1016C0004320FFF7D7FF0620FFF7D4FF0720FFF7DF
:1016D000D1FF0820FFF7CEFF0920FFF7CBFF00BFA7
:1016E00080BD80B500AF4320FFF7A6FF0620FFF7BF
:1016F000A3FF0720FFF7A0FF0820FFF79DFF0920A9
:10170000FFF79AFF00BF80BD80B586B000AFF860DC
:10171000B9601346FB71FB7918460CF0ABFE03462B
:101720007B61BA68F96878690CF062FFFB799AB25C
:101730004FF47A737969054806F07AFF78690CF0FE
:10174000A1FE00BF1837BD4680BD00BF781900203C
:1017500080B400AF074B1B689B6803F08303022B28
:1017600001D1012300E000231846BD465DF8047B4B
:10177000704700BF9018002080B500AFFFF79EFFB4
:101780000348FFF739FEFFF7ACFF00BF80BD00BF85
:101790007C00002080B500AFFFF790FF0348FFF703
:1017A00037FEFFF79EFF00BF80BD00BF7C0000201A
:1017B00080B582B000AFFFF7EDFF03F09FFB7860CC
:1017C00009E003F09BFB02467B68D31AB3F57A7FEE
:1017D00001D9002316E012210C48FFF72CFD034627
:1017E00003F00403002BECD012210848FFF723FD7F
:1017F000034603F00103FB70FF2212210348FFF7A9
:1018000034FDFB7818460837BD4680BD7C000020BB
:10181000B0B58CB000AF2F4C3B461846FFF7A6FA88
:1018200025463C460FCC0FC50FCC0FC594E80700EA
:1018300085E80700274B284A1A60264B4FF4807230
:101840009A80244B244A9A60224B10229A81214B81
:10185000224A1A611F4B01229A821E4B204A9A612A
:101860001C4B40F2B1121A621A4B072283F8242053
:10187000184B082283F82520164B012283F82620D6
:10188000144BFC2283F82A20124B962283F82B203B
:10189000104B0A221A850F48FFF791FA0D48FFF7FF
:1018A00023FE0346C82B07D14FF4FA6312220D49D9
:1018B0000D4806F0BDFE06E04FF4FA6312220B4914
:1018C000094806F0B5FE0348FFF796FD00BF303724
:1018D000BD46B0BD7C000020000002400004024074
:1018E0009018002040EE00087819002054EE0008FF
:1018F00080B485B000AF78600B46FB707B68002B2E
:1019000015D00023FB600023BB600AE0BB687A6847
:1019100013441B781A46FB681344FB60BB68013311
:10192000BB60FB78BA689A42F0DBFB6800E00023FA
:1019300018461437BD465DF8047B704790B585B0F6
:1019400000AF0446084611461A462346FB7103467B
:10195000BB710B467B7113463B71FFF7AFFE204A0C
:101960007B7913701E4AFB7953701D4ABB799370C3
:101970001B4A97F82C30D370194B00221A71184A61
:101980003B795371164A97F828309373144A3B6A8F
:10199000C2F8063097F828301946786AFFF7A8FF92
:1019A00003460F4AC2F80A3097F828301A46796A77
:1019B0000C480CF081FE0A4BFB604FF47A632F2237
:1019C000F9680948FFF7C0FC7B79092219460748E6
:1019D000FFF79AFEFFF785FE00BF1437BD4690BDA6
:1019E000A8000020B70000207C00002068EE00085E
:1019F00080B485B000AF78600023FB7310E0FA7B01
:101A0000796813465B0013441B019B1A0B44053392
:101A10001B78002B01D1FB7B07E0FB7B0133FB73C1
:101A2000FB7B022BEBD94FF0FF3318461437BD4632
:101A30005DF8047B704780B485B000AF78600B46DA
:101A4000FB700023FB731DE0FA7B796813465B0093
:101A500013441B019B1A0B4405331B78002B0ED03B
:101A6000FA7B796813465B0013441B019B1A0B44F5
:101A70000A331B78FA789A4201D1FB7B07E0FB7BA3
:101A80000133FB73FB7B022BDED94FF0FF3318468B
:101A90001437BD465DF8047B704780B584B000AF55
:101AA00078600B46FB70FB78FB7319E0FA7B1346FA
:101AB0005B0013441B019B1A7A681344581DFB7B7F
:101AC0005A1C13465B0013441B019B1A7A6813448B
:101AD00005332F2219460CF0EFFDFB7B0133FB731E
:101AE000FB7B012BE2D97B6863332F220021184650
:101AF0000CF09EFD00BF1037BD4680BDF0B58BB029
:101B000004AFF8607A603B600B46FB72FB7A1946C3
:101B1000F868FFF790FF0346B3F1FF3F40F0E48021
:101B2000FB7A002B3CD1FB689B78002B30D14FF423
:101B3000FA630C226E496F4806F07AFDFB6818784C
:101B40006D4B1B785A1C6D4B83FB02131344D91148
:101B5000D317C91A0B469B015B1A9B005B1AD11A5B
:101B6000CBB20133DAB203230393002302930023A1
:101B7000019300230093002301460020FFF7DEFEBF
:101B80004FF4FA6307225E495A4806F051FD65E0BA
:101B90004FF4FA6313225B49564806F049FD5DE0B5
:101BA000FB7A012B2ED1FB689B78012B22D1FB689D
:101BB0001878514B1B785A1C504B83FB021313446B
:101BC000D911D317C91A0B469B015B1A9B005B1AEC
:101BD000D11ACBB20133DAB2032303930023029369
:101BE0000023019300230093012301460020FFF707
:101BF000A5FE33E04FF4FA63152243493D4806F051
:101C000017FD2BE04FF4FA630D224049394806F0E6
:101C10000FFDFB681878384B1B785A1C374B83FB39
:101C200002131344D911D317C91A0B469B015B1A2F
:101C30009B005B1AD11ACBB20133DAB2F97A97F86A
:101C40003430039397F8303002933B6801937B68FC
:101C500000930B4601460020FFF770FEF868FFF77F
:101C6000C7FE0346B3F1FF3F3ED0F868FFF7C0FE62
:101C70000346FB75FA7D13465B0013441B019B1A58
:101C8000FA68134405331C4A15469C4605F1200E9C
:101C900064462E460FCE20606160A260E36010357E
:101CA0000CF1100C7545F3D164462B4607CB206030
:101CB0006160A2601A889B78A281A373FA7DF9689B
:101CC00013465B0013441B019B1A0B4408331B781B
:101CD000013BD8B2F96813465B0013441B019B1A01
:101CE0000B44083302461A7000BF1C37BD46F0BDD6
:101CF00074EE000878190020A8000020BFBF8C8275
:101D000080EE000888EE00089CEE0008B4EE0008A3
:101D1000F0B587B004AF78607B68DB78002B1ED00D
:101D20007B689C787B681D787B685E797B68D3F8DC
:101D300006307A680F327968897B7868C0780390BA
:101D400002910192009333462A4621460020FFF774
:101D5000F5FD7B68DB78013BDAB27B68DA7000BFA7
:101D60000C37BD46F0BD0000B0B5B2B000AF0023E7
:101D70003B603B1DC422002118460CF059FC3B4639
:101D8000C82219460A48FFF74FFB0A4B1C463D463E
:101D90000FCD0FC40FCD0FC495E80F0007C42380EB
:101DA00002341B0C237000BFC837BD46B0BD00BF56
:101DB0007C000020D800002080B485B000AFF8601F
:101DC000B9607A60FB68074A1A60BB68064A1A6005
:101DD0007B6880221A6000BF1437BD465DF8047B23
:101DE000704700BF080100205C01002080B485B06E
:101DF00000AFF860B9607A60FB68074A1A60BB6898
:101E0000064A1A607B684FF480721A6000BF14376C
:101E1000BD465DF8047B70475C030020B0030020E2
:101E200080B586B002AF0346FB71FFF7F1FC4C4A68
:101E3000FB7913704A4B1B78112219464948FFF76A
:101E400063FC0023FB602AE0FB68DBB20133D8B2FD
:101E50004549FA681346DB0013445B019B1A0B44A7
:101E600002461A70414AFB68134418783E49FA68E2
:101E70001346DB0013445B019B1A0B4401330246FB
:101E80001A703949FA681346DB0013445B019B1A48
:101E90000B44023300221A70FB680133FB60304BA5
:101EA0001B781A46FB689342CEDB012009F0B9FA91
:101EB00003462F4A13600021032009F0CAFA0346A3
:101EC0002C4A13602C4B01930423009300234FF4FE
:101ED00080622A492A480AF0F9F82A4B0193042320
:101EE000009300234FF48062274928480AF0EEF857
:101EF000274B01930223009300234FF400722549DE
:101F000025480AF0E3F8254B0193032300930023AF
:101F10004FF40072224923480AF0D8F80022022127
:101F2000032009F00AFA03461F4A13600022022127
:101F3000032009F002FA03461C4A13600022022122
:101F4000032009F0FAF90346194A1360194B0022DD
:101F50001A70194B00221A7000BF1037BD4680BDA1
:101F6000B0070020C4EE0008C0070020B80700201A
:101F7000A0170020A417002078170020D8EE000832
:101F8000CD2500087C170020ECEE0008BD1F0008DE
:101F90008017002004EF0008DD2B000884170020C4
:101FA0001CEF00082130000894170020981700202B
:101FB0009C170020B6070020B707002090B591B00D
:101FC00002AF78607F4B0093012301224FF47A71B6
:101FD0007D480BF071F803467C4A13607B4B1B680D
:101FE000012118460BF0DBFB794B1B6807F1280138
:101FF0004FF0FF32184609F091FC0346002BF3D056
:10200000744B1B684FF0FF31184609F069FDFFF76C
:1020100055FB00F033FF00BF6F4B9B69184605F07E
:10202000FEFC0346012BF7D100BFFFF7C1FB0346BF
:10203000012BFAD0FFF7A0FB97F82830022B57D1DD
:1020400005E0664B1B780133DAB2644B1A70634BC0
:102050001B781A4662491346DB0013445B019B1A46
:102060000B4402331B78002B05D15C4B1A785D4B77
:102070001B789A42E5D3594B1A785A4B1B789A42EF
:1020800080F06182554B1B781A4655491346DB0098
:1020900013445B019B1A0B4402331B78012B40F065
:1020A00052824FF4FA6312224F49504806F0C0FAA8
:1020B0004A4B1B781A461346DB0013445B019B1AFC
:1020C000474A98180323019300230093002300221A
:1020D0000121FFF713FD3D4B1C680AF043FA02464D
:1020E000002300930023012120460BF043F82AE24D
:1020F00097F82830032B40F081804FF4FA631022C8
:102100003B493A4806F094FA00237B6314E03449D3
:102110007A6B1346DB0013445B019B1A0B441A785D
:1021200097F829309A4204D17B6BDAB22B4B1A70A4
:1021300008E07B6B01337B632A4B1B781A467B6B71
:102140009342E4DB254B1B781A4625491346DB00F6
:1021500013445B019B1A0B4402331B78012B1FD1E4
:102160001E4B1B781A461346DB0013445B019B1A77
:102170001B4A981803230193002300930023002295
:102180000121FFF7BBFC114B1C680AF0EBF902467A
:10219000002300930023012120460AF0EBFFD2E147
:1021A0004FF4FA6314221349104806F041FA0B4B1E
:1021B00000221A700BF048FC0F4B00221A700BF033
:1021C00075FCC0E19D31000830EF00088C1700203D
:1021D00098170020A01700207C000020B4070020E2
:1021E000C0070020B007002040EF00087819002049
:1021F00054EF000864EF0008B707002097F8283074
:10220000052B40F0A380854B1B785A1C07F108036F
:10221000834918460CF0ECF907F108031846FDF75E
:10222000DFFF03469AB207F108014FF4FA637D48D5
:1022300006F0FEF9794B1B781A461346DB0013446F
:102240005B019B1A784A134401211846FFF7F3FB00
:10225000F862FB6AB3F1FF3F0DD0704B1B781A4652
:102260001346DB0013445B019B1A6F4A1344F96A5F
:102270001846FFF712FC6D4B1B78032B56D1674BAA
:102280001B780133DAB2654B1A70644B1B781A461F
:1022900065491346DB0013445B019B1A0B44023370
:1022A0001B78002B05D15D4B1A78614B1B789A4245
:1022B000E5D35A4B1A785E4B1B789A4280F04381E3
:1022C000564B1B781A4658491346DB0013445B01F2
:1022D0009B1A0B4402331B78012B40F034814FF4DE
:1022E000FA630B2253494F4806F0A2F94B4B1B7877
:1022F0001A461346DB0013445B019B1A4A4A98189E
:102300000323019300230093002300220121FFF700
:10231000F5FB494B1C680AF025F90246002300939F
:102320000023012120460AF025FF0CE13F4B1B78DA
:10233000042B40F00881394B00221A700BF084FB0B
:102340003A4B00221A700BF0B1FBFCE097F82830F2
:10235000062B04D097F82830072B40F0F4804FF478
:10236000FA63082235492F4806F062F92B4B1B7897
:102370001A461346DB0013445B019B1A2A4A134496
:1023800001211846FFF757FB38633B6BB3F1FF3F62
:1023900000F0D980214B1B78194623483B6B1A4625
:1023A00052001A441201D21A0B46DB000B445B01A7
:1023B0005B1A1344034408331B78002B40D0174B9F
:1023C0001B781A4618491346DB0013445B019B1A1D
:1023D0000B44043301221A70104B1B7819463B6BD7
:1023E0001A4652001A441201D21A0B46DB000B4463
:1023F0005B015B1A13440C4A134405331846FFF77C
:1024000087FC0D4B1C680AF0ADF8024600230093D0
:102410000023012120460AF0ADFE94E0B40700201D
:102420007CEF000878190020C0070020B7070020C3
:10243000B007002094EF00088C170020A0EF0008E0
:10244000584B1B7801331B2219465748FFF75CF99C
:10245000544B1B781A4655491346DB0013445B0165
:102460009B1A0B44043302221A704E4B1B781A46F7
:102470001346DB0013445B019B1A4C4A1344396B2F
:102480001846FFF70AFB4A4B1B78032B4DD1454BEF
:102490001B780133DAB2434B1A70424B1B781A4651
:1024A00042491346DB0013445B019B1A0B44023381
:1024B0001B78002B05D13B4B1A783E4B1B789A4278
:1024C000E5D3384B1A783B4B1B789A423BD2354BBD
:1024D0001B781A4635491346DB0013445B019B1AEF
:1024E0000B4402331B78012B2DD12E4B1B781A463F
:1024F0001346DB0013445B019B1A2C4A98180323F4
:10250000019300230093002300220121FFF7F6FA34
:10251000294B1C680AF026F802460023009300238A
:10252000012120460AF026FE0DE0214B1B78042BEA
:1025300009D11C4B00221A700BF086FA1C4B0022AA
:102540001A700BF0B3FA174B1A781A4B1B789A4291
:1025500010D34FF4FA630C221849194806F068F8B2
:10256000104B00221A700BF06FFA114B00221A70F8
:102570000BF09CFA0B4B1B7801330E2219461148C5
:10258000FFF7C2F80A4B1B78002B01D100F0CAFC00
:10259000FFF7A7F80C4B186800230022002108F071
:1025A0008DFF21E5B4070020ACEF0008C007002034
:1025B000B7070020B00700208C170020C8EF0008E4
:1025C00078190020D8EF0008A017002090B591B02E
:1025D00002AF78607F4B0093002301224FF47A71A1
:1025E0007D480AF069FD03467C4A13607B4B1B68FB
:1025F000002118460BF0D3F8794B1B6807F128012E
:102600004FF0FF32184609F089F90346002BF3D04A
:10261000744B1B684FF0FF31184609F061FAFFF761
:102620004DF800F02BFC00BF6F4B9B69184605F07E
:10263000F6F90346012BF7D100BFFFF7B9F80346BF
:10264000012BFAD0FFF798F897F82830002B57D1D4
:1026500005E0664B1B780133DAB2644B1A70634BAA
:102660001B781A4662491346DB0013445B019B1A30
:102670000B4402331B78012B05D15C4B1A785D4B60
:102680001B789A42E5D3594B1B781A465849134692
:10269000DB0013445B019B1A0B4402331B78002BB5
:1026A00040F05982514B1A78524B1B789A4280F075
:1026B00052824FF4FA630F224F49504805F0B8FF99
:1026C0004A4B1B781A461346DB0013445B019B1AE6
:1026D000474A981803230193002300930023002204
:1026E0000021FFF70BFA3D4B1C6809F03BFF024647
:1026F000002300930023012120460AF03BFD2AE23B
:1027000097F82830012B40F081804FF4FA631022B3
:102710003B493A4805F08CFF00237B6314E03449C1
:102720007A6B1346DB0013445B019B1A0B441A7847
:1027300097F829309A4204D17B6BDAB22B4B1A708E
:1027400008E07B6B01337B632A4B1B781A467B6B5B
:102750009342E4DB254B1B781A4625491346DB00E0
:1027600013445B019B1A0B4402331B78002B1FD1CF
:102770001E4B1B781A461346DB0013445B019B1A61
:102780001B4A98180323019300230093002300227F
:102790000021FFF7B3F9114B1C6809F0E3FE024674
:1027A000002300930023012120460AF0E3FCD2E13C
:1027B0004FF4FA6311221349104805F039FF0B4B0F
:1027C00000221A700BF040F90F4B00221A700BF028
:1027D0006DF9C0E19D310008ECEF0008881700207A
:1027E00094170020A01700207C000020B3070020D1
:1027F000C0070020B0070020F8EF0008781900207B
:1028000008F0000818F00008B607002097F82830F4
:10281000052B40F0A380854B1B785A1C07F1080359
:10282000834918460BF0E4FE07F108031846FDF74C
:10283000D7FC03469AB207F108014FF4FA637D48CA
:1028400005F0F6FE794B1B781A461346DB0013445D
:102850005B019B1A784A134400211846FFF7EBF8F6
:10286000F862FB6AB3F1FF3F0DD0704B1B781A463C
:102870001346DB0013445B019B1A6F4A1344F96A49
:102880001846FFF70AF96D4B1B78012B56D1674BA1
:102890001B780133DAB2654B1A70644B1B781A4609
:1028A00065491346DB0013445B019B1A0B4402335A
:1028B0001B78012B05D15D4B1A78614B1B789A422E
:1028C000E5D35A4B1A785E4B1B789A4280F04381CD
:1028D000564B1B781A4658491346DB0013445B01DC
:1028E0009B1A0B4402331B78002B40F034814FF4C9
:1028F000FA630B2253494F4805F09AFE4B4B1B7865
:102900001A461346DB0013445B019B1A4A4A981887
:102910000323019300230093002300220021FFF7EB
:10292000EDF8494B1C6809F01DFE02460023009398
:102930000023012120460AF01DFC0CE13F4B1B78CF
:10294000022B40F00881394B00221A700BF07CF802
:102950003A4B00221A700BF0A9F8FCE097F82830E7
:10296000062B04D097F82830072B40F0F4804FF462
:10297000FA63082235492F4805F05AFE2B4B1B7885
:102980001A461346DB0013445B019B1A2A4A134480
:1029900000211846FFF74FF838633B6BB3F1FF3F58
:1029A00000F0D980214B1B78194623483B6B1A460F
:1029B00052001A441201D21A0B46DB000B445B0191
:1029C0005B1A1344034408331B78002B40D0174B89
:1029D0001B781A4618491346DB0013445B019B1A07
:1029E0000B44043301221A70104B1B7819463B6BC1
:1029F0001A4652001A441201D21A0B46DB000B444D
:102A00005B015B1A13440C4A134405331846FFF765
:102A10007FF90D4B1C6809F0A5FD024600230093C9
:102A20000023012120460AF0A5FB94E0B307002013
:102A30002CF0000878190020C0070020B6070020FD
:102A4000B007002094EF000888170020A0EF0008CE
:102A5000584B1B7801331B2219465748FEF754FE8A
:102A6000544B1B781A4655491346DB0013445B014F
:102A70009B1A0B44043302221A704E4B1B781A46E1
:102A80001346DB0013445B019B1A4C4A1344396B19
:102A90001846FFF702F84A4B1B78012B4DD1454BE6
:102AA0001B780133DAB2434B1A70424B1B781A463B
:102AB00042491346DB0013445B019B1A0B4402336B
:102AC0001B78012B05D13B4B1A783E4B1B789A4261
:102AD000E5D3384B1A783B4B1B789A423BD2354BA7
:102AE0001B781A4635491346DB0013445B019B1AD9
:102AF0000B4402331B78002B2DD12E4B1B781A462A
:102B00001346DB0013445B019B1A2C4A98180323DD
:102B1000019300230093002300220021FEF7EEFF23
:102B2000294B1C6809F01EFD024600230093002378
:102B3000012120460AF01EFB0DE0214B1B78022BE1
:102B400009D11C4B00221A700AF07EFF1C4B002298
:102B50001A700AF0ABFF174B1A781A4B1B789A427F
:102B600010D34FF4FA630B221849194805F060FDA1
:102B7000104B00221A700AF067FF114B00221A70E6
:102B80000AF094FF0B4B1B7801330E2219461148B3
:102B9000FEF7BAFD0A4B1B78002B01D100F0C2F9F9
:102BA000FEF79FFD0C4B186800230022002108F05F
:102BB00085FC21E5B307002040F00008C007002095
:102BC000B6070020B0070020881700205CF000083E
:102BD00078190020D8EF0008A017002090B589B020
:102BE00002AF7860974B0093002301224FF47A7173
:102BF00095480AF061FA0346944A1360934B1B68A8
:102C0000022118460AF0CBFD914B1B6807F10C011D
:102C10004FF0FF32184608F081FE0346002BF3D038
:102C20008C4B1B684FF0FF31184608F059FFFEF738
:102C300045FD00BF884B9B69184604F0F0FE034633
:102C4000012BF7D100BFFEF7B3FD0346012BFAD0ED
:102C50003B7B132219468148FEF756FD3B7B042B34
:102C600026D17F4B1B78112219467E48FEF74CFD7A
:102C70007B4B1B781A461346DB0013445B019B1AFF
:102C8000794A98180323019300230093002300221C
:102C90000321FEF733FF6D4B1C6809F063FC02460D
:102CA000002300930023012120460AF063FAB6E0D6
:102CB0003B7B052B2ED16A4B1B78162219466B489D
:102CC000FEF722FD664B1B781A461346DB001344C1
:102CD0005B019B1A644A134403211846FEF7ABFEBE
:102CE00038613B69B3F1FF3F0DD05D4B1B781A464D
:102CF0001346DB0013445B019B1A5B4A134439699A
:102D00001846FEF7CAFE564B1B780133DAB2544B15
:102D10001A7084E03B7B062B02D03B7B072B7ED1D5
:102D20004F4B1B78132219465148FEF7EDFC4C4BD4
:102D30001B781A461346DB0013445B019B1A4A4A70
:102D4000134403211846FEF776FE78617B69B3F1E0
:102D5000FF3F64D0424B1B78194643487B691A46B3
:102D600052001A441201D21A0B46DB000B445B01DD
:102D70005B1A1344034408331B78002B27D0384BCD
:102D80001B781A4638491346DB0013445B019B1A33
:102D90000B44043301221A70314B1B781A46134638
:102DA000DB0013445B019B1A2F4A1344053318467A
:102DB000FEF7AEFF254B1C6809F0D4FB024600234A
:102DC00000930023012120460AF0D4F927E0244B88
:102DD0001B781A4624491346DB0013445B019B1AF7
:102DE0000B44043302221A701D4B1B781A461346FB
:102DF000DB0013445B019B1A1B4A13447969184694
:102E0000FEF74BFE164B1B780A2219461948FEF7AF
:102E10007BFC134B1B780133DAB2114B1A70104B49
:102E20001A78154B1B789A4202D30D4B00221A7068
:102E3000FEF757FC074B186800230022002108F01A
:102E40003DFBE1E69D31000868F000089017002086
:102E50009C170020A01700207C00002074F00008C0
:102E6000B507002088F000089C0F00209CF00008A7
:102E7000B4F00008CCF00008B107002080B500AF26
:102E80000A4B1B686FF001021A614FF080431B6808
:102E90004FF0804223F0010313604FF08043002283
:102EA0005A62024804F0BEFF00BF80BDE81800204F
:102EB00080B500AF4FF080431B684FF0804223F095
:102EC000010313604FF0804300225A624FF08043A9
:102ED0001B684FF0804243F001031360024804F086
:102EE0003FFF00BF80BD00BFE818002080B500AFE5
:102EF000FFF7C4FF4FF080431B684FF0804223F080
:102F0000010313604FF0804300225A624FF0804368
:102F10001B684FF0804243F001031360FFF7C8FFC6
:102F200000BF80BD80B582B000AF1E4B1B78002B68
:102F300032D04FF4FA6306221B491C4805F078FB97
:102F4000184B1B780A2219461948FEF7DDFB154B72
:102F50001A78184B1A70134B1B781A4643F69823AD
:102F600093FBF2F37B604FF080431B684FF080428D
:102F700023F0010313604FF0804300225A624FF0A8
:102F800080427B68013BD3620B4B1B78DBB2002B8A
:102F900004D1FFF78DFF01E0FFF770FF00BF083796
:102FA000BD4680BDB1070020D8F000087819002088
:102FB000E0F00008B2070020A817002080B582B01A
:102FC00000AF134B1B78DBB2002B1CD11022002169
:102FD0001048FEF799FB00237B6004233B7000231D
:102FE0007B700D4B18683A1D3946002308F068FBCA
:102FF0007B68002B07D0094B4FF080521A60BFF35B
:103000004F8FBFF36F8F00BF0837BD4680BD00BF35
:10301000A8170020ECF000089C17002004ED00E049
:1030200080B584B000AF7860504B1B684FF0FF3123
:10303000184608F055FD4E4B1B684FF0FF311846FF
:1030400008F04EFDFEF73AFB132200214948FEF737
:103050005BFB494B5B790C2219464848FEF754FB51
:10306000454B5B79002B10D10F2200214448FEF71D
:103070004BFB06233B73434B186807F10C010023FD
:103080004FF0FF3208F01AFA2CE03B4B5B79012B32
:1030900010D10F2200213C48FEF736FB06233B737C
:1030A0003A4B186807F10C0100234FF0FF3208F08B
:1030B00005FA17E0304B5B79032B13D1FFF716FFAE
:1030C000112200213248FEF71FFB06233B73002329
:1030D0007B73304B186807F10C0100234FF0FF326F
:1030E00008F0ECF90023FB7317E0FA7B13465B0052
:1030F00013441B019B1A204A9818FB7B5A1C134649
:103100005B0013441B019B1A1B4A13442F221946D0
:103110000BF0D2FAFB7B0133FB73FA7B1E4B1B785F
:10312000DBB2013B9A42E0DB1B4B1B78DBB25A1E41
:1031300013465B0013441B019B1A0F4A13442F22B2
:10314000002118460BF074FA134B1B78DBB2013BDD
:10315000DAB2114B1A70FEF7C4FA054B1868002357
:103160000022002108F0AAF95EE700BFA4170020A2
:10317000A017002000F10008AC17002014F100088F
:1031800024F100089417002034F10008981700205B
:1031900044F100089C170020A817002080B58AB0D1
:1031A00002AF786078680AF0D9FA0346FB77FB7FB4
:1031B000002B29D107233B7700237B774FF4FA6359
:1031C00008224049404805F033FA002300930023C9
:1031D00000220321786809F0CDFF0023BB613B4B3F
:1031E000186807F1180207F11C01002308F068FABB
:1031F000BB69002B61D0364B4FF080521A60BFF391
:103200004F8FBFF36F8F58E0FB7F012B29D107232E
:103210003B7500237B754FF4FA63082229492A483D
:1032200005F006FA002300930023002203217868AA
:1032300009F0A0FF00233B61264B186807F110023C
:1032400007F11401002308F03BFA3B69002B34D04E
:103250001F4B4FF080521A60BFF34F8FBFF36F8F39
:103260002BE0FB7F022B28D107233B7300237B73CA
:103270004FF4FA6308221349134805F0D9F90023E3
:103280000093002300220321786809F073FF0023D4
:10329000BB60114B186807F1080207F10C0100230D
:1032A00008F00EFABB68002B07D0094B4FF0805294
:1032B0001A60BFF34F8FBFF36F8F00BF2037BD463B
:1032C00080BD00BF58F10008781900209417002035
:1032D00004ED00E0981700209C170020F0B587B09F
:1032E00002AFA94B9B78002B00F09C82A64B1B7968
:1032F000002B40F0978211220021A448FEF704FA27
:10330000A14BDB78002B7FD012220021A048FEF7D2
:10331000FBF9A04B1B680021184608F06FFA9E4B82
:103320001B78DBB2022B05D89B4B1B78DBB2013339
:10333000DBB200E00323984A1370974B1B78DBB293
:103340000B2219469548FEF7DFF9934B1B78DBB249
:103350005A1E13465B0013441B019B1A904A1344E8
:10336000894A184602F1200403461146D1F800C0EC
:103370004E688D68C968C3F800C05E609D60D96002
:1033800010321030A242EFD10346146850689168A1
:103390001C60586099609189927B99819A737A4BED
:1033A0005B79002B09D17F4B186800230093002321
:1033B0000022082109F0DEFE2DE2734B5B79012B20
:1033C00009D1794B186800230093002300220821BB
:1033D00009F0D0FE1FE26C4B5B79032B40F01B829F
:1033E000122200217148FEF78FF912220021704845
:1033F000FEF78AF96F4B1868002300930023002220
:10340000082109F0B7FE06E25F4B5B79002B40F024
:103410009680694B1B781A4668491346DB001344B3
:103420005B019B1A0B4404331B78012B00F2F381E0
:10343000584B1B680021184608F0E0F9564B1B78E2
:10344000DBB2022B05D8544B1B78DBB20133DBB265
:1034500000E00323504A13704B4BDB780133DAB2A0
:10346000494BDA70544B1B781A461346DB00134461
:103470005B019B1A514A134400211846FEF7DBFA00
:1034800038603B68B3F1FF3F25D04B4B1B781946A2
:103490004A483B681A4652001A441201D21A0B4697
:1034A000DB000B445B015B1A1344034408331B78B5
:1034B0000133DCB241483B681A4652001A441201FB
:1034C000D21A0B46DB000B445B015B1A1344034426
:1034D000083322461A70304B1B78DBB25A1E134653
:1034E0005B0013441B019B1A2D4A1344264A1846BD
:1034F00002F1200403461146D1F800C04E688D68E1
:10350000C968C3F800C05E609D60D9601032103099
:10351000A242EFD103461468506891681C6058605D
:1035200099609189927B99819A731E4B1868002348
:10353000009300230022082109F01CFE6BE1124BCE
:103540005B79012B40F0B4801D4B1B781A461B4958
:103550001346DB0013445B019B1A0B4404331B78B6
:10356000012B00F258810B4B1B680021184608F014
:1035700045F9094B1B78DBB2022B23D8064B1B788D
:10358000DBB20133DBB21EE0A800002064F10008CA
:1035900078F10008A4170020A81700208CF100087B
:1035A000AC170020881700208C1700209CF1000821
:1035B000B0F1000890170020B3070020C0070020DA
:1035C000B40700200323994A1370994BDB78013329
:1035D000DAB2974BDA70974B1B781A461346DB002A
:1035E00013445B019B1A944A134401211846FEF7C9
:1035F00022FA78607B68B3F1FF3F25D08F4B1B78B0
:1036000019468D487B681A4652001A441201D21A94
:103610000B46DB000B445B015B1A13440344083385
:103620001B780133DCB284487B681A4652001A4486
:103630001201D21A0B46DB000B445B015B1A1344E8
:103640000344083322461A70784B1B78DBB25A1EAB
:1036500013465B0013441B019B1A794A1344744AB6
:10366000184602F1200403461146D1F800C04E6806
:103670008D68C968C3F800C05E609D60D960103273
:103680001030A242EFD103461468506891681C6064
:10369000586099609189927B99819A73694B1868F7
:1036A0000023009300230022082109F063FDB2E00B
:1036B0005F4B5B79032B40F0AE80634B1B781A465F
:1036C00062491346DB0013445B019B1A0B4404332D
:1036D0001B78012B00F29F805D4B1B680021184670
:1036E00008F08CF8514B1B78DBB2022B05D84F4BFE
:1036F0001B78DBB20133DBB200E003234B4A1370CB
:103700004B4BDB780133DAB2494BDA700023FB73A1
:1037100047E0FA7B4D491346DB0013445B019B1ADB
:103720000B441A78424B9B789A4237D1414B1B7815
:103730001A461346DB0013445B019B1A3E4A1344AE
:1037400003211846FEF777F9B860BB68B3F1FF3F75
:103750002DD0F97B3D48BB681A4652001A4412012D
:10376000D21A0B46DB000B445B015B1A1344034483
:1037700095331B780133DCB23448BB681A465200DB
:103780001A441201D21A0B46DB000B445B015B1A90
:1037900013440344953322461A7008E0FB7B01333F
:1037A000FB732C4B1B78FA7B9A42B2D300E000BF2C
:1037B0001E4B1B78DBB25A1E13465B0013441B01E1
:1037C0009B1A1F4A13441A4A184602F12004034662
:1037D0001146D1F800C04E688D68C968C3F800C0B2
:1037E0005E609D60D96010321030A242EFD1034676
:1037F0001468506891681C60586099609189927B48
:1038000099819A73144B18680023009300230022B7
:10381000082109F0AFFC0A4B5B790B2219460F48CF
:10382000FDF772FF00BF1437BD46F0BDA81700209A
:10383000A8000020B3070020C0070020B407002024
:10384000AC1700208C170020B50700209C0F00202B
:10385000A4170020B107002090170020C4F1000831
:1038600080B586B000AF78607B685B78FB7500231D
:103870003B61FB7D032B00F2AE8001A252F823F0E6
:1038800091380008E13800082F3900087B3900081A
:10389000534B1B78002B40F09780524B1B78002B2A
:1038A00040F09280FFF71AFD4D4B01221A70002361
:1038B0003B7300237B734C4B186807F1100207F130
:1038C0000C01002307F0FCFE3B69002B7CD0474B2A
:1038D0004FF080521A60BFF34F8FBFF36F8F73E0CA
:1038E0003F4B1B78002B71D13E4B1B78002B6DD1C9
:1038F000FFF7F4FC3A4B02221A7001233B737B68FA
:103900009B787B73384B186807F1100207F10C01A4
:10391000002307F0D5FE3B69002B57D0334B4FF007
:1039200080521A60BFF34F8FBFF36F8F4EE02D4B65
:103930001B78002B4CD12A4B1B78002B48D1FFF76A
:10394000CDFC284B03221A7002233B7300237B73A8
:10395000274B186807F1100207F10C01002307F04C
:10396000AFFE3B69002B33D0204B4FF080521A60E2
:10397000BFF34F8FBFF36F8F2AE01A4B1B78002BDA
:1039800028D1174B1B78002B24D1FFF7A7FC144B31
:1039900004221A7003233B737B689B787B73144B60
:1039A000186807F1100207F10C01002307F088FEE8
:1039B0003B69002B0ED00D4B4FF080521A60BFF3C5
:1039C0004F8FBFF36F8F05E000BF04E000BF02E040
:1039D00000BF00E000BF00BF1837BD4680BD00BF7C
:1039E000B6070020B70700209417002004ED00E080
:1039F0009817002080B590B002AF002387F83730C9
:103A0000BC4B1B79FB76002387F836300023BB6064
:103A1000B94B1B78FA7E9A4202D1B74B3B632AE03E
:103A2000002387F837301FE097F83720B349134653
:103A30005B0013441B019B1A0B441B78FA7E9A42CD
:103A40000DD197F8372013465B0013441B019B1AD6
:103A5000AA4A13443B63012387F836300BE097F8FA
:103A60003730013387F83730A54B1B78DBB297F836
:103A700037209A42D8D3FB7E09221946A148FDF788
:103A800043FE3B6B002B00F04F823B6BFA7E1A71BA
:103A90003B6B5B79002B04D03B6B5B79012B40F0D7
:103AA0009181002387F82B30002387F82B301DE00D
:103AB00097F82B2094491346DB0013445B019B1AB3
:103AC0000B441A788B4B5B789A420AD197F82B20DB
:103AD0001346DB0013445B019B1A8B4A1344FB62C1
:103AE0000AE097F82B30013387F82B30874B1B788F
:103AF00097F82B209A42DBD33B6B5B79002B40F08D
:103B00008180834B186807F108030022009200228D
:103B1000082109F02FFBFB6A01229A700021F86A44
:103B2000FDF789FFF860FB68B3F1FF3F0CD0714BE4
:103B30001879F96AFA6813465B0013441B019B1A53
:103B40000B44093302461A70FB6A00221A71714B4A
:103B50001B781A461346DB0013445B019B1A6E4A1E
:103B6000134440F21F12F96A18460AF0A5FD00231B
:103B700087F82A301CE0674B1B78194697F82A30E3
:103B80001A4652001A441201D21A0B46DB000B44AB
:103B90005B015B1A1344604A134405332F22002152
:103BA00018460AF045FD97F82A30013387F82A3085
:103BB00097F82A30022BDED9564B1B780133DAB244
:103BC000544B1A7005233B7100237B714FF4FA6349
:103BD00007225249524804F02BFD524B186807F156
:103BE0000802391D002307F06BFDBB68002B00F0B5
:103BF0005E814D4B4FF080521A60BFF34F8FBFF381
:103C00006F8F54E13B6B5B79012B40F05081474B48
:103C1000186807F10803002200920022082109F029
:103C2000A9FAFB6A00229A700121F86AFDF703FFE6
:103C300038613B69B3F1FF3F0CD02E4B1879F96A1C
:103C40003A6913465B0013441B019B1A0B4409336A
:103C500002461A70FB6A00221A71002387F8293085
:103C60006BE097F829202C491346DB0013445B01D5
:103C70009B1A0B441A78FB6A1B789A4258D197F822
:103C8000293087F828301CE097F828201346DB00FD
:103C900013445B019B1A204A981897F828305A1C45
:103CA0001346DB0013445B019B1A1B4A134440F28A
:103CB0001F1219460AF000FD97F82830013387F8E3
:103CC000283097F82820134B1B78013B9A42DBDB06
:103CD000104B1B785A1E1346DB0013445B019B1AE2
:103CE0000D4A134440F21F12002118460AF0A0FCAE
:103CF00029E000BFD8000020A8000020AC17002059
:103D0000A8170020D4F10008C0070020B007002049
:103D100088170020B10700209C0F0020E0F1000868
:103D2000781900209417002004ED00E08C17002083
:103D300097F82930013387F829307D4B1B7897F8A5
:103D400029209A428DD37A4B1B78013BDAB2784B0B
:103D50001A7005233B7100237B71754B1B780E2273
:103D600019467448FDF7D0FC00237B6210E07249CD
:103D70007A6A1346DB0013445B019B1A0B441B78E1
:103D8000102219466D48FDF7BFFC7B6A01337B6248
:103D9000674B1B781A467B6A9342E8DB684B1868CE
:103DA00007F10802391D002307F08AFCBB68002BCD
:103DB0007DD0644B4FF080521A60BFF34F8FBFF33A
:103DC0006F8F74E03B6B5B79032B73D15E4B18688C
:103DD00007F10803002200920022082109F0CAF925
:103DE00000233B625CE054493A6A1346DB0013440B
:103DF0005B019B1A0B441A78544B5B789A424CD166
:103E00003A6A1346DB0013445B019B1A4A4A134487
:103E100003211846FDF70FFE78617B69B3F1FF3F80
:103E200011D045487B69396A1A4652001A4412017A
:103E3000D21A0B46DB000B445B015B1A13440344AC
:103E40000933FA7E1A703C493A6A1346DB00134480
:103E50005B019B1A0B44043300221A7005233B714B
:103E600000237B714FF4FA6307223949394804F083
:103E7000DFFB394B186807F10802391D002307F0F2
:103E80001FFCBB68002B14D02E4B4FF080521A60E1
:103E9000BFF34F8FBFF36F8F0BE03B6A01333B6281
:103EA000234B1B781A463B6A93429CDB02E000BF1F
:103EB00000E000BF97F83630012B35D197F8373046
:103EC000FB6117E0FA6913465B0013441B019B1A60
:103ED000224A9818FB695A1C13465B0013441B01C5
:103EE0009B1A1E4A13442F2219460AF0E5FBFB6970
:103EF0000133FB611A4B1B78DBB2013BFA699A4232
:103F0000E0DB174B1B78DBB25A1E13465B001344F1
:103F10001B019B1A114A13442F22002118460AF054
:103F200087FB002387F8363000BF3837BD4680BD99
:103F3000B1070020E8F100089C0F0020F8F100080C
:103F40009817002004ED00E090170020D800002012
:103F5000E0F10008781900209C170020AC17002021
:103F6000A817002080B58CB002AF002387F8273057
:103F7000B74B1B793B76002387F826300023BB60C4
:103F8000B44B1B783A7E9A4202D1B24B3B622AE094
:103F9000002387F827301FE097F82720AE49134603
:103FA0005B0013441B019B1A0B441B783A7E9A4218
:103FB0000DD197F8272013465B0013441B019B1A71
:103FC000A54A13443B62012387F826300BE097F89B
:103FD0002730013387F82730A04B1B78DBB297F8E6
:103FE00027209A42D8D33B7E092219469C48FDF7E8
:103FF0008BFB3B6A002B00F098813B6A3A7E1A717A
:104000003B6A5B79002B04D03B6A5B79012B40F063
:10401000B3800023FB760023FB7619E0FA7E9149FA
:104020001346DB0013445B019B1A0B441A78884B40
:104030005B789A4209D1FA7E1346DB0013445B0198
:104040009B1A884A1344FB6107E0FB7E0133FB7631
:10405000854B1B78FA7E9A42E0D33B6A5B79002B52
:1040600042D1824B186807F1080300220092002217
:10407000082109F07FF80021F869FDF7DCFCF86001
:10408000FB68B3F1FF3F0CD0714B1879F969FA68FE
:1040900013465B0013441B019B1A0B440933024671
:1040A0001A70FB6901221A7106233B7100237B7190
:1040B0004FF4FA630C226E496E4804F0B9FA6E4B65
:1040C000186807F10802391D002307F0F9FABB68E8
:1040D000002B00F0ED80694B4FF080521A60BFF367
:1040E0004F8FBFF36F8FE3E03B6A5B79012B40F0AA
:1040F000DF80634B186807F108030022009200225A
:10410000082109F037F80121F869FDF794FC3861BE
:104110003B69B3F1FF3F0CD04D4B1879F9693A690F
:1041200013465B0013441B019B1A0B4409330246E0
:104130001A70FB6901221A7106233B7100237B71FF
:104140004FF4FA630F224F494A4804F071FA4E4B7C
:10415000186807F10802391D002307F0B1FABB689F
:10416000002B00F0A580454B4FF080521A60BFF342
:104170004F8FBFF36F8F9BE03B6A5B79032B40F05F
:104180009A80424B186807F108030022009200222F
:10419000082108F0EFFF0023BB7682E0BA7E3C499D
:1041A0001346DB0013445B019B1A0B441A78284B1F
:1041B0005B789A4272D1BA7E1346DB0013445B01EE
:1041C0009B1A334A134403211846FDF734FC7861E7
:1041D0007B69B3F1FF3F11D0B97E2D487B691A4648
:1041E00052001A441201D21A0B46DB000B445B0149
:1041F0005B1A1344034409333A7E1A70BA7E244989
:104200001346DB0013445B019B1A0B440433012269
:104210001A7006233B7100237B714FF4FA63092265
:104220001C49144804F004FA1B4B186807F10802F3
:10423000391D002307F044FABB68002B3AD00F4B1E
:104240004FF080521A60BFF34F8FBFF36F8F31E092
:10425000D8000020A8000020AC170020A8170020DC
:10426000D4F10008C0070020B00700208817002004
:104270000CF20008781900209417002004ED00E0EB
:104280008C1700201CF200089817002090170020BF
:104290009C0F00202CF200089C170020BB7E0133ED
:1042A000BB76244B1B78BA7E9A42FFF477AF02E0CC
:1042B00000BF00E000BF97F82630012B35D197F8FA
:1042C00027307B7617E07A7E13465B0013441B0190
:1042D0009B1A194A98187B7E5A1C13465B0013449C
:1042E0001B019B1A144A13442F2219460AF0E4F9C1
:1042F0007B7E01337B767A7E104B1B78DBB2013BF1
:104300009A42E0DB0D4B1B78DBB25A1E13465B0072
:1043100013441B019B1A084A13442F2200211846FC
:104320000AF086F9002387F8263000BF2837BD46FB
:1043300080BD00BFB1070020AC170020A8170020E7
:1043400080B500AF074B5B79052B02D1FFF752FB1D
:1043500005E0044B5B79062B01D1FFF703FE00BF9C
:1043600080BD00BFD800002080B582B000AFFDF74F
:10437000EFF90346002B0ED012210948FCF75BFF32
:104380000346FB71FB7903F04003002B03D0FDF7DC
:10439000EBFCFFF7D5FF00BF0837BD4680BD00BF6F
:1043A0007C00002080B586B000AF0346FB80FB8810
:1043B000022B21D1414AFB8853614FF47A7000F0FF
:1043C000A9FDFB8819463E4801F02EF80346002B54
:1043D0006BD04FF4FA6306223A493B4804F028F9BF
:1043E00000233B7400237B740023BB7407F110038C
:1043F0001846FFF735FA5DE0FB88042B21D12F4AE0
:10440000FB8853614FF47A7000F084FDFB881946F5
:104410002B4801F009F80346002B48D04FF4FA630B
:1044200006222A49284804F003F900233B7301239C
:104430007B730423BB7307F10C031846FFF710FAD4
:1044400038E0FB88082B21D11C4AFB8853614FF4CC
:104450007A7000F05FFDFB881946194800F0E4FF10
:104460000346002B25D04FF4FA630622184916485C
:1044700004F0DEF800233B7202237B720023BB7240
:1044800007F108031846FFF7EBF913E0FB88012B4F
:1044900010D100237B614FF4FA6305220D490A48CD
:1044A00004F0C6F8FFF760FF04E000BF02E000BFC1
:1044B00000E000BF1837BD4680BD00BF003C014092
:1044C0000004024038F200087819002040F2000889
:1044D00048F2000850F2000880B500AF00F0D8FCA8
:1044E00000F014F800F080F900F02AF900F0A4F8C8
:1044F00000F074F800F04EF900F0D4F80520FDF754
:104500008FFC07F01BFF00BFFDE7000080B594B0F3
:1045100000AF07F120033022002118460AF088F886
:1045200007F10C0300221A605A609A60DA601A617F
:104530000023BB60274B1B6C264A43F08053136457
:10454000244B1B6C03F08053BB60BB6800237B6073
:10455000214B1B68204A43F4404313601E4B1B68E9
:1045600003F440437B607B6801233B624FF480335C
:104570007B620223BB634FF48003FB630F233B6426
:1045800090237B640623BB640523FB6407F12003AF
:10459000184602F02BF90346002B01D000F0D0F9A9
:1045A0000F23FB6002233B6100237B610023BB617F
:1045B0000023FB6107F10C030121184602F08EFB7A
:1045C0000346002B01D000F0BBF900BF5037BD46B9
:1045D00080BD00BF003802400070004080B500AFD1
:1045E000124B134A1A60114B124A5A600F4B0022A9
:1045F0009A600E4B0022DA600C4B4FF480421A6135
:104600000A4B00225A61094B00229A61074B002293
:10461000DA61064B00221A62044800F04FFF03469D
:10462000002B01D000F08CF900BF80BD3C180020A9
:1046300000540040A086010080B500AF174B184A17
:104640001A60164B4FF482725A60144B00229A6023
:10465000124B0022DA60114B00221A610F4B00222C
:104660005A610E4B4FF400729A610C4B2822DA61AA
:104670000A4B00221A62094B00225A62074B0022A1
:104680009A62064B0A22DA62044802F039FD0346B8
:10469000002B01D000F054F900BF80BD901800201D
:1046A0000030014080B586B000AF07F1080300225A
:1046B0001A605A609A60DA603B4600221A605A60BB
:1046C0001E4B4FF080421A601C4B49F63F425A6025
:1046D0001A4B00229A60194B40F2E732DA60174B0E
:1046E00000221A61154B00229A61144803F0E8FA7F
:1046F0000346002B01D000F023F94FF48053BB6038
:1047000007F1080319460D4803F0ABFC0346002BE4
:1047100001D000F015F900233B6000237B603B468D
:104720001946064803F0B2FE0346002B01D000F004
:1047300007F900BF1837BD4680BD00BFE81800204C
:1047400080B500AF114B124A1A60104B4FF4E132A2
:104750005A600E4B00229A600C4B0022DA600B4B21
:1047600000221A61094B0C225A61084B00229A61FF
:10477000064B0022DA61054803F00AFF0346002BCE
:1047800001D000F0DDF800BF80BD00BF301900206F
:104790000010014080B500AF114B124A1A60104B57
:1047A0004FF4E1325A600E4B00229A600C4B00220B
:1047B000DA600B4B00221A61094B0C225A61084B3C
:1047C00000229A61064B0022DA61054803F0E0FE00
:1047D0000346002B01D000F0B3F800BF80BD00BF3E
:1047E000781900200044004080B588B000AF07F180
:1047F0000C0300221A605A609A60DA601A61002382
:10480000BB603D4B1B6B3C4A43F0800313633A4B48
:104810001B6B03F08003BB60BB6800237B60364BDF
:104820001B6B354A43F001031363334B1B6B03F0DF
:1048300001037B607B6800233B602F4B1B6B2E4A80
:1048400043F0020313632C4B1B6B03F002033B602A
:104850003B6800224FF48871284800F0FDFD4FF4BA
:104860008873FB6001233B6100237B610123BB61F3
:1048700007F10C031946214800F052FC0123FB60AC
:104880004FF488133B6100237B6107F10C03194649
:104890001B4800F045FC0E23FB604FF488133B617E
:1048A00002237B6107F10C031946154800F038FC20
:1048B00000220721062000F009FC062000F022FC5F
:1048C00000220821072000F001FC072000F01AFC5C
:1048D00000220821082000F0F9FB082000F012FC5B
:1048E00000220821092000F0F1FB092000F00AFC59
:1048F00000BF2037BD4680BD0038024000000240A6
:104900000004024080B400AF00BFFDE780B582B074
:1049100000AF78607B681B68084A934202D100F0C0
:10492000D9FA06E07B681B68B3F1804F01D1FEF72E
:1049300045FB00BF0837BD4680BD00BF00040040F6
:1049400080B400AF72B600BF00BFFDE780B582B093
:1049500000AF00237B60124B5B6C114A43F4804331
:1049600053640F4B5B6C03F480437B607B680023D4
:104970003B600B4B1B6C0A4A43F080531364084B9B
:104980001B6C03F080533B603B6800220F216FF0EB
:10499000010000F09BFB00BF0837BD4680BD00BF93
:1049A0000038024080B58AB000AF786007F1140388
:1049B00000221A605A609A60DA601A617B681B688C
:1049C000194A93422BD100233B61184B1B6B174AAA
:1049D00043F002031363154B1B6B03F002033B61AF
:1049E0003B69C0237B611223BB610023FB6103236E
:1049F0003B6204237B6207F1140319460C4800F064
:104A00008FFB0023FB60094B1B6C084A43F4001327
:104A10001364064B1B6C03F40013FB60FB6800BFC0
:104A20002837BD4680BD00BF00540040003802401A
:104A30000004024080B58AB000AF786007F114032B
:104A400000221A605A609A60DA601A617B681B68FB
:104A5000194A93422BD100233B61184B5B6C174AD8
:104A600043F480535364154B5B6C03F480533B61F8
:104A70003B690023FB60114B1B6B104A43F00103A1
:104A800013630E4B1B6B03F00103FB60FB68E02319
:104A90007B610223BB610023FB6103233B6205238F
:104AA0007B6207F114031946054800F039FB00BF8B
:104AB0002837BD4680BD00BF0030014000380240AD
:104AC0000000024080B584B000AF78607B681B684E
:104AD000B3F1804F15D10023FB600C4B1B6C0B4ACC
:104AE00043F001031364094B1B6C03F00103FB60EB
:104AF000FB68002206211C2000F0E8FA1C2000F0D0
:104B000001FB00BF1037BD4680BD00BF003802402A
:104B100080B58CB000AF786007F11C0300221A60EA
:104B20005A609A60DA601A617B681B68324A934265
:104B30002DD10023BB61314B5B6C304A43F0100335
:104B400053642E4B5B6C03F01003BB61BB69002305
:104B50007B612A4B1B6B294A43F001031363274BEC
:104B60001B6B03F001037B617B694FF4C063FB6146
:104B700002233B6200237B620323BB620723FB62A9
:104B800007F11C0319461E4800F0CAFA30E07B68A2
:104B90001B681C4A93422BD100233B61174B1B6CB3
:104BA000164A43F400331364144B1B6C03F40033B4
:104BB0003B613B690023FB60104B1B6B0F4A43F0CA
:104BC000010313630D4B1B6B03F00103FB60FB68D8
:104BD0000C23FB6102233B6200237B620323BB6245
:104BE0000723FB6207F11C031946054800F098FAF9
:104BF00000BF3037BD4680BD001001400038024084
:104C0000000002400044004080B58EB000AF7860E4
:104C10000023FB620023BB620023FB60334B1B6C51
:104C2000324A43F002031364304B1B6C03F002035F
:104C3000FB60FB6807F1100207F1140311461846E8
:104C400002F02CFA3B6AFB62FB6A002B03D102F0F4
:104C5000FDF9786304E002F0F9F903465B007B6339
:104C60007B6B234AA2FB03239B0C013BBB62214BC2
:104C7000214A1A601F4B40F2E732DA601D4ABB6AD4
:104C800053601C4B00221A611A4B00229A60194B88
:104C900000229A61174803F013F8034687F833306F
:104CA00097F83330002B1BD1124803F059F8034614
:104CB00087F8333097F83330002B11D11D2000F0E6
:104CC00021FA7B680F2B08D8002279681D2000F09C
:104CD000FDF90A4A7B68136002E0012387F833304C
:104CE00097F8333018463837BD4680BD003802404B
:104CF00083DE1B43C0190020000400400400002094
:104D000080B400AF00BFFDE780B400AF00BFFDE797
:104D100080B400AF00BFFDE780B400AF00BFFDE787
:104D200080B400AF00BFFDE780B400AF00BFBD4658
:104D30005DF8047B704780B500AF012000F0A6FB52
:104D400000BF80BD80B500AF022000F09FFB00BF18
:104D500080BD80B500AF042000F098FB00BF80BD8F
:104D600080B500AF082000F091FB00BF80BD0000BF
:104D700080B500AF024803F084F800BF80BD00BFDB
:104D8000E818002080B500AF024803F07AF800BFB1
:104D900080BD00BFC019002080B500AF024800F000
:104DA000D1FC00BF80BD00BF0407012080B586B0E4
:104DB00000AF7860144A154BD31A7B617B693B6165
:104DC000134B1B68002B02D1114B124A1A60104B77
:104DD0001A687B6813443A699A4207D209F040FC8A
:104DE00003460C221A604FF0FF3309E0084B1B68A2
:104DF000FB60074B1A687B681344054A1360FB6825
:104E000018461837BD4680BD00000220000400008F
:104E1000081A0020300D012080B400AF064BD3F8F3
:104E20008830054A43F47003C2F8883000BFBD469D
:104E30005DF8047B704700BF00ED00E0DFF834D080
:104E4000FFF7EAFF0C480D490D4A002302E0D45851
:104E5000C4500433C4188C42F9D30A4A0A4C0023C4
:104E600001E013600432A242FBD309F0FFFBFFF71D
:104E700033FB70470000022000000020600000208B
:104E8000CCF2000860000020300D0120FEE7000099
:104E900080B500AF0E4B1B680D4A43F400731360DE
:104EA0000B4B1B680A4A43F480631360084B1B6872
:104EB000074A43F480731360032000F0FCF80020DD
:104EC000FFF7A2FEFFF742FD0023184680BD00BF9A
:104ED000003C024080B400AF064B1B781A46064BDC
:104EE0001B681344044A136000BFBD465DF8047B91
:104EF000704700BF080000200C1A002080B400AFEB
:104F0000034B1B681846BD465DF8047B704700BF25
:104F10000C1A002080B584B000AF7860FFF7EEFF78
:104F2000B8607B68FB60FB68B3F1FF3F05D00A4BBC
:104F30001B781A46FB681344FB6000BFFFF7DEFFD7
:104F40000246BB68D31AFA689A42F7D800BF00BF7E
:104F50001037BD4680BD00BF0800002080B485B07A
:104F600000AF78607B6803F00703FB600C4BDB68E5
:104F7000BB60BA684FF6FF031340BB60FB681A02C0
:104F8000BB68134343F0BF6343F40033BB60044A80
:104F9000BB68D36000BF1437BD465DF8047B704723
:104FA00000ED00E080B400AF044BDB681B0A03F0A7
:104FB00007031846BD465DF8047B704700ED00E02E
:104FC00080B483B000AF0346FB7197F90730002B24
:104FD0000BDBFB7903F01F02074997F907305B09E8
:104FE000012000FA02F241F8232000BF0C37BD4631
:104FF0005DF8047B704700BF00E100E080B483B03F
:1050000000AF03463960FB7197F90730002B0ADBCC
:105010003B68DAB20C4997F907301201D2B20B445F
:1050200083F800230AE03B68DAB20849FB7903F011
:105030000F03043B1201D2B20B441A7600BF0C37A7
:10504000BD465DF8047B704700E100E000ED00E044
:1050500080B489B000AFF860B9607A60FB6803F093
:105060000703FB61FB69C3F10703042B28BF04237B
:10507000BB61FB690433062B02D9FB69033B00E0EB
:1050800000237B614FF0FF32BB6902FA03F3DA437E
:10509000BB681A407B699A404FF0FF317B6901FA87
:1050A00003F3D9437B680B40134318462437BD46AE
:1050B0005DF8047B704780B582B000AF7860786897
:1050C000FFF74CFF00BF0837BD4680BD80B586B0F6
:1050D00000AF0346B9607A60FB7300237B61FFF782
:1050E00061FF78617A68B9687869FFF7B1FF0246B5
:1050F00097F90F3011461846FFF780FF00BF1837A9
:10510000BD4680BD80B582B000AF0346FB7197F904
:1051100007301846FFF754FF00BF0837BD4680BD73
:1051200080B489B000AF7860396000237B610023D0
:105130003B610023BB610023FB6159E10122FB6954
:1051400002FA03F37B613B681B687A6913403B6199
:105150003A697B699A4240F048813B685B6803F09A
:105160000303012B05D03B685B6803F00303022BAC
:1051700030D17B689B68BB61FB695B00032202FA4C
:1051800003F3DB43BA691340BB613B68DA68FB6930
:105190005B0002FA03F3BA691343BB617B68BA6927
:1051A0009A607B685B68BB610122FB6902FA03F3CA
:1051B000DB43BA691340BB613B685B681B0903F0C2
:1051C0000102FB6902FA03F3BA691343BB617B680E
:1051D000BA695A603B685B6803F00303032B17D07E
:1051E0007B68DB68BB61FB695B00032202FA03F3A7
:1051F000DB43BA691340BB613B689A68FB695B009B
:1052000002FA03F3BA691343BB617B68BA69DA60D7
:105210003B685B6803F00303022B23D1FB69DA08C8
:105220007B68083253F82230BB61FB6903F0070347
:105230009B000F2202FA03F3DB43BA691340BB6100
:105240003B681A69FB6903F007039B0002FA03F34A
:10525000BA691343BB61FB69DA087B680832B96934
:1052600043F822107B681B68BB61FB695B0003226B
:1052700002FA03F3DB43BA691340BB613B685B6826
:1052800003F00302FB695B0002FA03F3BA691343FC
:10529000BB617B68BA691A603B685B6803F44033A2
:1052A000002B00F0A2800023FB60574B5B6C564A3A
:1052B00043F480435364544B5B6C03F48043FB60C2
:1052C000FB68524AFB699B08023352F82330BB61EA
:1052D000FB6903F003039B000F2202FA03F3DB4395
:1052E000BA691340BB617B68494A934219D07B6815
:1052F000484A934213D07B68474A93420DD07B685B
:10530000464A934207D07B68454A934201D1042321
:1053100008E0072306E0032304E0022302E0012360
:1053200000E00023FA6902F0030292009340BA6998
:105330001343BB613549FB699B080233BA6941F8E5
:105340002320384B9B68BB613B69DB43BA69134040
:10535000BB613B685B6803F48013002B03D0BA6920
:105360003B691343BB612F4ABB6993602D4BDB68DC
:10537000BB613B69DB43BA691340BB613B685B6857
:1053800003F40013002B03D0BA693B691343BB61DC
:10539000244ABB69D360234B5B68BB613B69DB4339
:1053A000BA691340BB613B685B6803F40033002BB0
:1053B00003D0BA693B691343BB611A4ABB695360A6
:1053C000184B1B68BB613B69DB43BA691340BB6187
:1053D0003B685B6803F48033002B03D0BA693B69F8
:1053E0001343BB610F4ABB691360FB690133FB6167
:1053F000FB690F2B7FF6A2AE00BF00BF2437BD466E
:105400005DF8047B704700BF00380240003801405F
:10541000000002400004024000080240000C02406C
:1054200000100240003C014080B485B000AF7860BD
:105430000B467B807B681A697B881340002B02D067
:105440000123FB7301E00023FB73FB7B1846143739
:10545000BD465DF8047B704780B483B000AF7860D0
:105460000B467B8013467B707B78002B03D07A88B9
:105470007B689A6103E07B881A047B689A6100BFAD
:105480000C37BD465DF8047B7047000080B582B0E4
:1054900000AF0346FB80084B5A69FB881340002B82
:1054A00006D0054AFB885361FB881846FEF77AFF51
:1054B00000BF0837BD4680BD003C014080B584B0C8
:1054C00000AF78607B68002B01D101232BE17B6862
:1054D00093F83D30DBB2002B06D17B68002283F8C5
:1054E0003C207868FFF75EFA7B68242283F83D2031
:1054F0007B681B681A687B681B6822F001021A60CF
:105500007B681B681A687B681B6842F400421A605B
:105510007B681B681A687B681B6822F400421A606B
:1055200001F094FDF8607B685B68814A934207D87C
:10553000FB68804A934294BF01230023DBB206E05C
:10554000FB687D4A934294BF01230023DBB2002B0A
:1055500001D00123E7E0FB68784AA2FB03239B0C00
:10556000BB607B681B685B6823F03F017B681B683E
:10557000BA680A435A607B681B681B6A23F03F01C4
:105580007B685B686A4A934202D8BB68013309E0D2
:10559000BB684FF4967202FB03F3694AA2FB032334
:1055A0009B0901337A6812680B4313627B681B689E
:1055B000DB6923F44F4222F0FF027B685B685C49A1
:1055C0008B4219D8FB68591E7B685B685B00B1FB96
:1055D000F3F3591C40F6FC730B40002B0AD0FB6818
:1055E000591E7B685B685B00B1FBF3F30133C3F3C7
:1055F0000B0351E004234FE07B689B68002B11D123
:10560000FB68581E7B6859680B465B000B44B0FB77
:10561000F3F30133C3F30B03002B0CBF012300236F
:10562000DBB212E0FB68581E7B6859680B469B0092
:105630000B4499000B44B0FBF3F30133C3F30B03AA
:10564000002B0CBF01230023DBB2002B01D0012370
:1056500022E07B689B68002B0ED1FB68581E7B689C
:1056600059680B465B000B44B0FBF3F30133C3F303
:105670000B0343F400430FE0FB68581E7B68596836
:105680000B469B000B4499000B44B0FBF3F3013332
:10569000C3F30B0343F44043796809681343CB61B8
:1056A0007B681B681B6823F0C0017B68DA697B6834
:1056B0001B6A1A437B681B680A431A607B681B6875
:1056C0009B6823F4034323F0FF037A6811697A6827
:1056D000D26811437A6812680B4393607B681B6839
:1056E000DB6823F0FF017B685A697B689B691A437A
:1056F0007B681B680A43DA607B681B681A687B68F2
:105700001B6842F001021A607B6800221A647B6801
:10571000202283F83D207B6800221A637B680022E8
:1057200083F83E20002318461037BD4680BD00BFD9
:10573000A08601007F841E00FF083D0083DE1B431E
:10574000D34D621090B58DB000AF78607B681B6858
:105750003B623B6AFB617B681B68184604F00FFAEA
:105760000346002B40F08C847B681B68184604F0CD
:1057700073F90346002B00F08284FB6903F5006394
:105780009B681B0AC3F30D027B68C3F8D4247B68B3
:105790001B68184604F060F9034603F00203022B6D
:1057A00007D17B681B685A697B681B6802F002029C
:1057B0005A617B681B68184604F04EF9034603F0F3
:1057C0001003102B61D17B681B689A697B681B688A
:1057D00022F010029A613B6A1B6ABB61BB6903F04D
:1057E0000F021346DB0013449B0003F514737A6821
:1057F000134404337B61BB695B0C03F00F03022B82
:1058000024D1BA6947F6F0731340002B35D07B6979
:10581000D968BB691B099BB2C3F30A039BB21A4642
:10582000386A03F0C7FF7B69DA68BB691B09C3F3F9
:105830000A031A447B69DA607B695A69BB691B09F0
:10584000C3F30A031A447B695A6116E0BB695B0C17
:1058500003F00F03062B10D17B6803F29C43082250
:105860001946386A03F0A6FF7B695A69BB691B09B0
:10587000C3F30A031A447B695A617B681B689A69FF
:105880007B681B6842F010029A617B681B681846AF
:1058900004F0E2F8034603F40023B3F5002F40F0D0
:1058A000A78000237B627B681B68184604F0E7F83A
:1058B000B86299E0BB6A03F00103002B00F08E8010
:1058C0007B681B687A6AD2B21146184604F00BF95D
:1058D00038613B6903F00103002B0CD07B6A5A014D
:1058E000FB69134403F530631A4601239360796A18
:1058F000786800F041FE3B6903F00803002B0CD0F0
:105900007B6A5A01FB69134403F530631A46082386
:105910009360796A786800F017FF3B6903F0100321
:10592000002B08D07B6A5A01FB69134403F53063EE
:105930001A46102393603B6903F00203002B30D01A
:105940003B6A5B6903F08003802B09D1FB6903F597
:1059500000635B68FA6902F5006243F48063536098
:105960007A6A1346DB0013449B0003F514737A68CC
:10597000134404337B617B69DB78012B08D17B699D
:105980000022DA707B6ADBB21946786808F014FCF2
:105990007B6A5A01FB69134403F530631A460223FC
:1059A00093603B6903F02003002B08D07B6A5A0107
:1059B000FB69134403F530631A46202393603B6967
:1059C00003F40053002B09D07B6A5A01FB6913448E
:1059D00003F530631A464FF4005393607B6A01333A
:1059E0007B62BB6A5B08BB62BB6A002B7FF462AF61
:1059F0007B681B68184604F02FF8034603F48023E5
:105A0000B3F5802F40F0DB807B681B68184604F0FC
:105A100050F8B86200237B62CDE0BB6A03F001035B
:105A2000002B00F0C2807B681B687A6AD2B21146F4
:105A3000184604F076F838613B6903F00103002B47
:105A400057D07B6A03F00F03012202FA03F3FB60D5
:105A5000FB6903F500635A6BFB68DB43F96901F5E9
:105A6000006113404B637B6A5A01FB69134403F5E1
:105A700010631A46012393607B689B79012B32D116
:105A800079687A6A1346DB0013449B000B44203389
:105A9000196878687A6A1346DB0013449B00034454
:105AA0001C331B68194478687A6A1346DB00134478
:105AB0009B000344203319607B6A002B13D1796863
:105AC0007A6A1346DB0013449B000B4424331B68A3
:105AD000002B08D17B6818687B6803F29C431A4648
