:020000040800F2
:10000000000002207D5800082D57000835570008D1
:100010003D570008455700084D57000800000000F4
:10002000000000000000000000000000C1F900080E
:10003000555700080000000011FC000879FC00087A
:10004000CD580008CD580008CD580008CD580008FC
:10005000CD580008CD5800086357000871570008B4
:100060007F5700088D570008CD580008CD5800086C
:10007000CD580008CD580008CD580008CD580008CC
:10008000CD580008CD580008CD58000800000000E9
:10009000000000000000000000000000CD58000833
:1000A000CD580008CD580008CD580008CD5800089C
:1000B0009D570008B1570008C5570008CD580008E3
:1000C000CD580008CD580008CD580008CD5800087C
:1000D000CD580008CD580008CD5800080000000099
:1000E000CD580008CD580008CD5800080000000089
:1000F000000000000000000000000000CD580008D3
:1001000000000000CD580008CD580008CD58000868
:1001100000000000000000000000000000000000DF
:10012000CD580008CD580008CD580008CD5800081B
:10013000CD58000800000000000000000000000092
:10014000000000000000000000000000D957000877
:10015000CD580008CD580008CD580008CD580008EB
:10016000CD580008CD580008000000000000000035
:10017000000000000000000000000000000000007F
:1001800000000000CD580008000000000000000042
:08019000CD580008CD5800080D
:1001A00010B5054C237833B9044B13B10448AFF3B1
:1001B00000800123237010BD5001002000000000CA
:1001C0000015010808B5034B1BB103490348AFF301
:1001D000008008BD00000000540100200015010847
:1001E000034613F8012B002AFBD1181A0138704777
:1001F00001F0FF01102A2BDB10F0070F08D010F8D8
:10020000013B013A8B422DD010F0070F42B3F6D1DB
:10021000F0B441EA012141EA014122F007047FF0F4
:1002200000070023F0E80256083C85EA010586EA4B
:10023000010685FA47F5A3FA87F586FA47F6A5FA87
:1002400087F68EB9EED1F0BC01F0FF0102F0070293
:1002500032B110F8013B013A83EA010313B1F8D13E
:100260000020704701387047002D06BF354603381F
:10027000073815F0010F07D1013015F4807F02BF58
:10028000013015F4C03F0130F0BC0138704700BFA9
:1002900081F0004102E000BF83F0004330B54FEA37
:1002A00041044FEA430594EA050F08BF90EA020FA4
:1002B0001FBF54EA000C55EA020C7FEA645C7FEA37
:1002C000655C00F0E2804FEA5454D4EB5555B8BF5A
:1002D0006D420CDD2C4480EA020281EA030382EACB
:1002E000000083EA010180EA020281EA0303362D5D
:1002F00088BF30BD11F0004F4FEA01314FF4801C30
:100300004CEA113102D0404261EB410113F0004F41
:100310004FEA03334CEA133302D0524263EB4303F8
:1003200094EA050F00F0A780A4F10104D5F1200E96
:100330000DDB02FA0EFC22FA05F2801841F10001F1
:1003400003FA0EF2801843FA05F359410EE0A5F1C5
:1003500020050EF1200E012A03FA0EFC28BF4CF0F6
:10036000020C43FA05F3C01851EBE37101F00045AC
:1003700007D54FF0000EDCF1000C7EEB00006EEBB9
:100380000101B1F5801F1BD3B1F5001F0CD3490843
:100390005FEA30004FEA3C0C04F101044FEA44529A
:1003A00012F5800F80F09A80BCF1004F08BF5FEA21
:1003B000500C50F1000041EB045141EA050130BD01
:1003C0005FEA4C0C404141EB0101013C28BFB1F513
:1003D000801FE9D291F0000F04BF01460020B1FA5E
:1003E00081F308BF2033A3F10B03B3F120020CDA31
:1003F0000C3208DD02F1140CC2F10C0201FA0CF00F
:1004000021FA02F10CE002F11402D8BFC2F1200C73
:1004100001FA02F120FA0CFCDCBF41EA0C01904029
:10042000E41AA2BF01EB0451294330BD6FEA040472
:100430001F3C1CDA0C340EDC04F11404C4F120025D
:1004400020FA04F001FA02F340EA030021FA04F36F
:1004500045EA030130BDC4F10C04C4F1200220FAC6
:1004600002F001FA04F340EA0300294630BD21FA04
:1004700004F0294630BD94F0000F83F4801306BFCA
:1004800081F480110134013D4EE77FEA645C18BFBE
:100490007FEA655C29D094EA050F08BF90EA020F55
:1004A00005D054EA000C04BF1946104630BD91EA4D
:1004B000030F1EBF0021002030BD5FEA545C05D150
:1004C0004000494128BF41F0004130BD14F580048F
:1004D0003CBF01F5801130BD01F0004545F0FE4103
:1004E00041F470014FF0000030BD7FEA645C1ABF38
:1004F000194610467FEA655C1CBF0B46024650EA6F
:10050000013406BF52EA033591EA030F41F400219A
:1005100030BD00BF90F0000F04BF0021704730B520
:100520004FF4806404F132044FF000054FF00001F5
:1005300050E700BF90F0000F04BF0021704730B5B6
:100540004FF4806404F1320410F0004548BF40428B
:100550004FF000013EE700BF42004FEAE2014FEAE0
:1005600031014FEA02701FBF12F07F4393F07F4FBB
:1005700081F06051704732F07F4208BF704793F0BE
:100580007F4F04BF41F40021704730B54FF46074D1
:1005900001F0004521F000411CE700BF50EA0102D4
:1005A00008BF704730B54FF000050AE050EA01027D
:1005B00008BF704730B511F0004502D5404261EBED
:1005C00041014FF4806404F132045FEA915C3FF42E
:1005D000D8AE4FF003025FEADC0C18BF03325FEACB
:1005E000DC0C18BF033202EBDC02C2F1200300FA7C
:1005F00003FC20FA02F001FA03FE40EA0E0021FAA1
:1006000002F11444BDE600BF70B54FF0FF0C4CF48E
:10061000E06C1CEA11541DBF1CEA135594EA0C0F40
:1006200095EA0C0F00F0DEF82C4481EA030621EA7B
:100630004C5123EA4C5350EA013518BF52EA0335B6
:1006400041F4801143F4801338D0A0FB02CE4FF068
:100650000005E1FB02E506F00042E0FB03E54FF098
:100660000006E1FB03569CF0000F18BF4EF0010E90
:10067000A4F1FF04B6F5007F64F5407404D25FEA8C
:100680004E0E6D4146EB060642EAC62141EA55513F
:100690004FEAC52040EA5E504FEACE2EB4F1FD0C81
:1006A00088BFBCF5E06F1ED8BEF1004F08BF5FEAFF
:1006B000500E50F1000041EB045170BD06F00046B1
:1006C00046EA010140EA020081EA0301B4EB5C045E
:1006D000C2BFD4EB0C0541EA045170BD41F4801156
:1006E0004FF0000E013C00F3AB8014F1360FDEBF7B
:1006F000002001F0004170BDC4F10004203C35DA57
:100700000C341BDC04F11404C4F1200500FA05F3D9
:1007100020FA04F001FA05F240EA020001F000427A
:1007200021F0004110EBD37021FA04F642EB0601F0
:100730005EEA430E08BF20EAD37070BDC4F10C041A
:10074000C4F1200500FA04F320FA05F001FA04F2DE
:1007500040EA020001F0004110EBD37041F10001CA
:100760005EEA430E08BF20EAD37070BDC4F12005D5
:1007700000FA05F24EEA020E20FA04F301FA05F23D
:1007800043EA020321FA04F001F0004121FA04F2E5
:1007900020EA020000EBD3705EEA430E08BF20EAB5
:1007A000D37070BD94F0000F0FD101F000464000EF
:1007B00041EB010111F4801F08BF013CF7D041EA71
:1007C000060195F0000F18BF704703F00046520075
:1007D00043EB030313F4801F08BF013DF7D043EA46
:1007E0000603704794EA0C0F0CEA135518BF95EAFC
:1007F0000C0F0CD050EA410618BF52EA4306D1D183
:1008000081EA030101F000414FF0000070BD50EAA1
:10081000410606BF1046194652EA430619D094EA2B
:100820000C0F02D150EA013613D195EA0C0F05D115
:1008300052EA03361CBF104619460AD181EA030169
:1008400001F0004141F0FE4141F470014FF0000021
:1008500070BD41F0FE4141F4780170BD70B54FF0BC
:10086000FF0C4CF4E06C1CEA11541DBF1CEA13553C
:1008700094EA0C0F95EA0C0F00F0A7F8A4EB05041E
:1008800081EA030E52EA03354FEA013100F0888015
:100890004FEA03334FF0805545EA131343EA1263DE
:1008A0004FEA022245EA111545EA10654FEA002693
:1008B0000EF000419D4208BF964244F1FD0404F54C
:1008C000407402D25B084FEA3202B61A65EB0305A8
:1008D0005B084FEA32024FF480104FF4002CB6EB65
:1008E000020E75EB030E22BFB61A754640EA0C00E5
:1008F0005B084FEA3202B6EB020E75EB030E22BF25
:10090000B61A754640EA5C005B084FEA3202B6EB65
:10091000020E75EB030E22BFB61A754640EA9C0024
:100920005B084FEA3202B6EB020E75EB030E22BFF4
:10093000B61A754640EADC0055EA060E18D04FEAB2
:10094000051545EA16754FEA06164FEAC30343EA52
:1009500052734FEAC2025FEA1C1CC0D111F4801F1F
:100960000BD141EA00014FF000004FF0004CB6E718
:1009700011F4801F04BF01430020B4F1FD0C88BFB7
:10098000BCF5E06F3FF6AFAEB5EB030C04BFB6EBC2
:10099000020C5FEA500C50F1000041EB045170BDB5
:1009A0000EF0004E4EEA113114EB5C04C2BFD4EBE2
:1009B0000C0541EA045170BD41F480114FF0000E66
:1009C000013C90E645EA060E8DE60CEA135594EAE2
:1009D0000C0F08BF95EA0C0F3FF43BAF94EA0C0FE5
:1009E0000AD150EA01347FF434AF95EA0C0F7FF45A
:1009F00025AF104619462CE795EA0C0F06D152EAAE
:100A000003353FF4FDAE1046194622E750EA410691
:100A100018BF52EA43067FF4C5AE50EA41047FF4A2
:100A20000DAF52EA43057FF4EBAE12E74FEA410205
:100A300012F5001215D211D56FF47873B3EB625230
:100A400012D94FEAC12343F0004343EA505311F057
:100A5000004F23FA02F018BF404270474FF00000E9
:100A6000704750EA013005D111F0004008BF6FF027
:100A7000004070474FF00000704700BF53B94AB9BB
:100A8000002908BF00281CBF4FF0FF314FF0FF3096
:100A900000F06AB9ADF1080C6DE904CE00F006F87B
:100AA000DDF804E0DDE9022304B070472DE9F047EA
:100AB000089D0C46002B4ED194468C458646B2FAD2
:100AC00082F262D94AB1C2F12003914020FA03F3C5
:100AD0000CFA02FC194300FA02FE4FEA1C471FFA07
:100AE0008CF6B1FBF7F44FEA1E4307FB141143EAFF
:100AF000014304FB06F199420AD91CEB030304F1FC
:100B0000FF3080F01281994240F20F81023C634431
:100B1000591A1FFA8EF3B1FBF7F007FB101143EAE5
:100B2000014300FB06F69E420AD91CEB030300F1C9
:100B3000FF3180F0FC809E4240F2F980634402382D
:100B40009B1B40EA044000211DB1D3400022C5E9AF
:100B50000032BDE8F0878B4205D90DB1C5E900012F
:100B600000210846F5E7B3FA83F1002946D1A342F4
:100B700002D39042C0F0F080861A64EB0303012098
:100B8000002DE6D0C5E90063E3E7002A40F090803D
:100B9000A1EB0C044FEA1C481FFA8CF70121B4FBAF
:100BA000F8F64FEA1E4308FB164443EA044307FBEA
:100BB00006F0984208D91CEB030306F1FF3402D279
:100BC000984200F2CD8026461C1A1FFA8EF3B4FB21
:100BD000F8F008FB104443EA044300FB07F79F4288
:100BE00008D91CEB030300F1FF3402D29F4200F24C
:100BF000B0802046DB1B40EA0640A5E7C1F1200695
:100C00008B4022FA06F71F4320FA06FC04FA01F390
:100C100043EA0C03F44000FA01F8380C4FEA134998
:100C2000B4FBF0FE1FFA87FC00FB1E4449EA0444B3
:100C30000EFB0CF9A14502FA01F20AD93C190EF19A
:100C4000FF3A80F08480A14540F28180AEF1020E2F
:100C50003C44A4EB09041FFA83F9B4FBF0F300FB56
:100C6000134449EA044403FB0CFCA44507D93C198E
:100C700003F1FF3067D2A44565D9023B3C4443EA07
:100C80000E40A0FB0293A4EB0C049C42CE469C4673
:100C900051D34ED055B1B8EB0E0364EB0C0404FAFB
:100CA00006F6CB401E43CC40C5E90064002150E766
:100CB000C2F1200320FA03F10CFA02FC24FA03F338
:100CC00094400C434FEA1C4800FA02FE1FFA8CF7CE
:100CD000B3FBF8F008FB1031230C43EA014300FB9F
:100CE00007F1994208D91CEB030300F1FF362CD21F
:100CF00099422AD9023863445B1AA4B2B3FBF8F1D3
:100D000008FB113344EA034401FB07F3A34208D96B
:100D10001CEB040401F1FF3613D2A34211D90239AE
:100D20006444E41A41EA004139E70446F0E6084623
:100D300006E7C845AED2B9EB020E63EB070C0138EB
:100D4000A8E73146EDE7034699E73046D4E7D646B3
:100D50007FE7634402384DE70646234608460FE71F
:100D6000023E634430E700BF704700BFB0B48FB0AD
:100D700000AF786040F2B113FB62072387F8303090
:100D8000072387F83130012387F83230FF2387F8B3
:100D90003630642387F837300823BB867B681D46CE
:100DA00007F10C040FCC0FC50FCC0FC594E807005A
:100DB00085E8070078683C37BD46B0BC704780B511
:100DC00082B000AF78607B6898687B689B8900225E
:100DD000194605F061F8012004F0BCFD7B689868B5
:100DE0007B689B890122194605F056F8642004F0BF
:100DF000B1FD00BF0837BD4680BD80B584B000AFEF
:100E0000786039600121786800F015FA0346BB73F9
:100E1000BB7BFB733B68002B07D1BB7B23F0070335
:100E2000FB737B680022DA6149E03B68012B0CD13F
:100E300097F90E3023F007035BB243F001035BB276
:100E4000FB737B680122DA6139E03B68032B0CD12C
:100E500097F90E3023F007035BB243F003035BB254
:100E6000FB737B680322DA6129E03B68052B0CD118
:100E700097F90E3023F007035BB243F005035BB232
:100E8000FB737B680522DA6119E03B68062B0CD105
:100E900097F90E3023F007035BB243F006035BB211
:100EA000FB737B680622DA6109E03B68072B06D1F9
:100EB000BB7B43F00703FB737B680722DA61FB7B94
:100EC0001A460121786800F0D3F900BF1037BD46FB
:100ED00080BD80B584B000AFF860B9603B60134658
:100EE000FB80FB681868FB689B880022194604F0A9
:100EF000D3FFFB689869FA884FF47A63B96807F002
:100F0000A6F800BFFB689B69184607F0A6FC0346DD
:100F1000012BF7D1FB6898693A8B4FF47A633968F3
:100F200007F0D9F900BFFB689B69184607F095FCEC
:100F30000346012BF7D1FB681868FB689B880122E8
:100F4000194604F0A9FF00BF1037BD4680BD80B52B
:100F500084B000AFF860B9603B601346FB80FB686B
:100F60001868FB689B880122194604F095FF0A2047
:100F700004F0F0FCFB681868FB689B8800221946A7
:100F800004F08AFFFB689869FA884FF47A63B968BD
:100F900007F05DF800BFFB689B69184607F05DFC31
:100FA0000346012BF7D1FB6898693A8B4FF47A63BB
:100FB000396807F04CF800BFFB689B69184607F0DA
:100FC0004CFC0346012BF7D1FB681868FB689B8833
:100FD0000122194604F060FF00BF1037BD4680BDF6
:100FE00080B584B000AF78600B46FB70262178682E
:100FF00000F021F90346BB73FB78002B04D0BB7BC8
:1010000043F00803FB7303E0BB7B23F00803FB738F
:10101000FB7B1A462621786800F02AF90A2004F0A2
:1010200099FC00BF1037BD4680BD000080B596B06A
:1010300000AF7860174A07F108031146502218469E
:101040000FF0D0FE7B6893F824301A4601239340BA
:101050001846FFF76FFA7B6893F82530DB005833AA
:101060003B44503BD3E90023FFF7F8FB02460B4615
:1010700010461946FFF7DAFC0346102BCCBF0123BC
:101080000023DBB219467868FFF7AAFF00BF583784
:10109000BD4680BD1815010880B584B000AF7860EA
:1010A00039603B68DB045B11FB60FB681B0CFB7267
:1010B000FB7A1A460621786800F0DAF8052004F079
:1010C00049FCFB681B0AFB72FB7A1A460721786809
:1010D00000F0CEF8052004F03DFCFB68FB72FB7AC3
:1010E0001A460821786800F0C3F8052004F032FCA5
:1010F00000BF1037BD4680BD80B584B000AF7860BA
:1011000039603B680C2B01DD0C233B603B68062BF0
:1011100001DC07233B601E21786800F08CF8034651
:10112000FB730A2004F016FC3B68DBB21B01DAB249
:10113000FB7B03F00F03DBB21344BB73BB7B1A468C
:101140001E21786800F094F80A2004F003FC786807
:10115000FFF76CFF00BF1037BD4680BD80B582B081
:1011600000AF78600B46FB70FB781A46092178685F
:1011700000F07EF80A2004F0EDFB00BF0837BD4602
:1011800080BD000080B584B000AF78600B46FB7076
:101190000023FB73FB782C2B01D82D23FB70FB78ED
:1011A000F02B01D9F023FB70FB78782B09D8FB7862
:1011B0002D3B124A82FB03125210DB17D31AFB732A
:1011C0000BE0FB78F02B08D8FB781E330B4A82FB30
:1011D00003129210DB17D31AFB73FB7B2033FB73D4
:1011E000FB7B1A460B21786800F042F80A2004F0D5
:1011F000B1FB00BF1037BD4680BD00BF67666666A5
:1012000080B584B000AF78601E21786800F013F8D4
:101210000346FB73FB7B43F00703BB73BB7B1A46A0
:101220001E21786800F024F80A2004F093FB00BF28
:101230001037BD4680BD80B586B002AF78600B46E2
:10124000FB70FB7803F07F03DBB2BB7307F10F0386
:1012500007F10E010122009201227868FFF739FEA2
:101260000A2004F077FBFB7B18461037BD4680BD93
:1012700080B586B002AF78600B46FB701346BB703A
:10128000FB7863F07F03DBB2BB73BB78FB7307F1C2
:101290000F0307F10E010122009201227868FFF787
:1012A00056FE0A2004F056FB00BF1037BD4680BD35
:1012B00080B586B000AFF8607A601A460B46FB72C4
:1012C0001346BB72FB7A63F07F03DBB2FB75FB68EE
:1012D0001868FB689B880022194604F0DDFDFB6856
:1012E000986907F117014FF47A63012206F0AFFE07
:1012F00000BFFB689B69184607F0AFFA0346012B55
:10130000F7D1FB689869BB7A9AB24FF47A6379682F
:1013100006F09DFE00BFFB689B69184607F09DFA2A
:101320000346012BF7D10A2004F014FBFB68186870
:10133000FB689B880122194604F0AEFD00BF1837F8
:10134000BD4680BD80B483B000AF786001231846ED
:101350000C37BD465DF8047B704780B586B000AFA2
:10136000F860B96011461A460B46FB711346BB8004
:10137000FB68DB697B610121F868FFF73EFD0E2108
:10138000F868FFF758FF0346FB74FB7C1A460D21F3
:10139000F868FFF76DFFFB791A462221F868FFF71E
:1013A00067FFFB79BA680021F868FFF781FF032126
:1013B000F868FFF722FD1221F868FFF73CFF0346AB
:1013C000FB74FB7C03F00803002B0AD0FF221221E0
:1013D000F868FFF74DFF7969F868FFF70EFD012304
:1013E0000FE0BB88013BBB80BB88002B05D179692E
:1013F000F868FFF702FD002303E0012004F0AAFAD9
:10140000D9E718461837BD4680BD80B582B000AF19
:10141000786005217868FFF7F0FC00BF0837BD460B
:1014200080BD80B582B000AF786007217868FFF793
:10143000E4FC00BF0837BD4680BD90B589B000AF61
:10144000F860B9601346FB710023FB770023BB6192
:1014500007E0BB69BA68134400221A70BB69013304
:10146000BB61FB79BA699A42F3DB0121F868FFF7A7
:10147000C4FC1221F868FFF7DEFE0346FB74FB7C18
:1014800003F04003002B2FD0FF221221F868FFF752
:10149000EFFE1321F868FFF7CEFE0346BB74102160
:1014A000F868FFF7C8FE0346FB74FB7C1A460D2163
:1014B000F868FFF7DDFEBA7CFB79934228BF13463C
:1014C000FB7700237B610BE07B69BA68D4180021AD
:1014D000F868FFF7B0FE034623707B6901337B6138
:1014E000FB7F7A699A42EFDB0521F868FFF785FCFC
:1014F000FB7F18462437BD4690BD80B584B000AF51
:1015000078607868FFF71EFF0346002B00F0968096
:1015100000217868FFF771FC0A2004F01BFA012112
:101520007868FFF788FE0346FB730A2004F012FA7E
:10153000FB7B63F07F03BB73BB7B1A46012178689A
:10154000FFF796FE642004F005FA7B681B6A1946D3
:101550007868FFF7A1FD7B6893F82A301946786810
:10156000FFF7FCFD7B6893F82B3019467868FFF78E
:1015700009FE23220C217868FFF77AFE7868FFF7CE
:101580003FFE7B6893F8243019467868FFF7B4FD76
:10159000FF221F217868FFF76BFE0023BB737B6877
:1015A00093F825301B01DAB27B6893F826305B0094
:1015B000DBB21344BB73BB7B1A461D217868FFF76F
:1015C00057FE7868FFF732FD7B681B8D1B0A9BB2C4
:1015D000DBB21A4620217868FFF74AFE7B681B8D34
:1015E000DBB21A4621217868FFF742FE4021786875
:1015F000FFF721FE0346FB73FB7B43F03F03BB7306
:10160000BB7B1A4640217868FFF732FE01217868DB
:10161000FFF7F3FB7B680122DA610A2004F09AF9F4
:1016200042217868FFF707FE0346FB73FB7B122B12
:1016300001D1C82304E04FF4CA7301E040F2F7136C
:1016400018461037BD4680BD80B483B000AF034656
:10165000FB7197F90730002B0BDBFB7903F01F02BE
:10166000074997F907305B09012000FA02F241F8B7
:10167000232000BF0C37BD465DF8047B704700BFD8
:1016800000E100E080B483B000AF0346FB7197F93E
:101690000730002B12DBFB7903F01F020A4997F990
:1016A00007305B09012000FA02F2203341F82320C1
:1016B000BFF34F8F00BFBFF36F8F00BF00BF0C376A
:1016C000BD465DF8047B704700E100E080B500AFE7
:1016D0000620FFF7D7FF0720FFF7D4FF0820FFF70A
:1016E000D1FF0920FFF7CEFF00BF80BD80B500AF5E
:1016F0000620FFF7A9FF0720FFF7A6FF0820FFF746
:10170000A3FF0920FFF7A0FF00BF80BD80B400AF9A
:1017100000BFBD465DF8047B704780B400AF00BFDA
:10172000BD465DF8047B704780B586B000AFF860B9
:10173000B9601346FB71FB7918460FF031FA034686
:101740007B61BA68F96878690FF0E8FAFB799AB2B8
:101750004FF47A737969054807F088FE78690FF0CD
:1017600027FA00BF1837BD4680BD00BFD01A002041
:1017700080B500AF0248FFF748FE00BF80BD00BF44
:101780006C01002080B500AFFFF7A0FF0348FFF712
:1017900048FEFFF7ABFF00BF80BD00BF6C0100201B
:1017A00080B582B000AFFFF7EDFF04F0C7F87860B6
:1017B00009E004F0C3F802467B68D31AB3F57A7FD8
:1017C00001D9002316E012210C48FFF734FD03462F
:1017D00003F00403002BECD012210848FFF72BFD87
:1017E000034603F00103FB70FF2212210348FFF7B9
:1017F0003FFDFB7818460837BD4680BD6C010020D0
:10180000B0B58CB000AF2F4C3B461846FFF7AEFA90
:1018100025463C460FCC0FC50FCC0FC594E80700FA
:1018200085E80700274B284A1A60264B4FF4807240
:101830009A80244B244A9A60224B10229A81214B91
:10184000224A1A611F4B01229A821E4B204A9A613A
:101850001C4B40F2B1121A621A4B072283F8242063
:10186000184B082283F82520164B012283F82620E6
:10187000144BFC2283F82A20124B962283F82B204B
:10188000104B0A221A850F48FFF799FA0D48FFF707
:1018900034FE0346C82B07D14FF4FA6312220D49D8
:1018A0000D4807F0E3FD06E04FF4FA6312220B49FE
:1018B000094807F0DBFD0348FFF7A7FD00BF3037FD
:1018C000BD46B0BD6C010020000002400004024093
:1018D000A019002068150108D01A00207C15010805
:1018E00080B485B000AF78600B46FB707B68002B3E
:1018F00015D00023FB600023BB600AE0BB687A6858
:1019000013441B781A46FB681344FB60BB68013321
:10191000BB60FB78BA689A42F0DBFB6800E000230A
:1019200018461437BD465DF8047B704790B585B006
:1019300000AF0446084611461A462346FB7103468B
:10194000BB710B467B7113463B71FFF7BFFE204A0C
:101950007B7913701E4AFB7953701D4ABB799370D3
:101960001B4A97F82C30D370194B00221A71184A71
:101970003B795371164A97F828309373144A3B6A9F
:10198000C2F8063097F828301946786AFFF7A8FFA2
:1019900003460F4AC2F80A3097F828301A46796A87
:1019A0000C480FF01FFA0A4BFB604FF47A632F22AA
:1019B000F9680948FFF7D1FC7B79092219460748E5
:1019C000FFF7B2FEFFF792FE00BF1437BD4690BD91
:1019D00098010020A70100206C010020901501084B
:1019E00080B485B000AF78600023FB7310E0FA7B11
:1019F000796813465B0013441B019B1A0B440533A3
:101A00001B78002B01D1FB7B07E0FB7B0133FB73D1
:101A1000FB7B022BEBD94FF0FF3318461437BD4642
:101A20005DF8047B7047000080B584B000AF78603B
:101A30000B46FB700023FB731DE0FA7B79681346AD
:101A40005B0013441B019B1A0B4405331B78002BCE
:101A50000ED0FA7B796813465B0013441B019B1A76
:101A60000B440A331B78FA789A4201D1FB7B14E0CD
:101A7000FB7B0133FB73FB7B022BDED97B681B787E
:101A80001E2219460748FFF74FFEFB780922194628
:101A90000548FFF749FE4FF0FF3318461037BD46A3
:101AA00080BD00BF9C150108BC15010880B485B03D
:101AB00000AF78600B46FB701346BB700023FB73CE
:101AC0001EE0FA7B796813465B0013441B019B1AE6
:101AD0000B4405331B78BA789A420ED1FA7B7968A9
:101AE00013465B0013441B019B1A0B440A331B78FB
:101AF000FA789A4201D1FB7B07E0FB7B0133FB7351
:101B0000FB7B022BDDD94FF0FF3318461437BD465F
:101B10005DF8047B704780B584B000AF78600B46F9
:101B2000FB70FB78FB7319E0FA7B13465B001344F0
:101B30001B019B1A7A681344581DFB7B5A1C1346E1
:101B40005B0013441B019B1A7A68134405332F2250
:101B500019460FF047F9FB7B0133FB73FB7B012B2D
:101B6000E2D97B6863332F22002118460FF0F6F884
:101B700000BF1037BD4680BD80B485B000AF78602F
:101B80000023FB7310E0FA7B796813465B00134473
:101B90001B019B1A0B4492331B78002B01D1FB7B5A
:101BA00007E0FB7B0133FB73FB7B022BEBD94FF090
:101BB000FF3318461437BD465DF8047B704780B488
:101BC00085B000AF78600B46FB700023FB7311E01B
:101BD000FA7B796813465B0013441B019B1A0B4484
:101BE00092331B78FA789A4201D1FB7B07E0FB7BAA
:101BF0000133FB73FB7B022BEAD94FF0FF3318460E
:101C00001437BD465DF8047B704780B485B000AFE3
:101C100078600B46FB700023FB731DE0FA7B79684C
:101C200013465B0013441B019B1A0B4492331B7831
:101C3000002B0ED0FA7B796813465B0013441B011E
:101C40009B1A0B4497331B78FA789A4201D1FB7B9D
:101C500007E0FB7B0133FB73FB7B022BDED94FF0EC
:101C6000FF3318461437BD465DF8047B704700000B
:101C700080B584B000AF78600B46FB70FB7819220A
:101C800019462948FFF750FDFB78FB731BE0FA7BF0
:101C900013465B0013441B019B1A90337A6813446C
:101CA000981CFB7B5A1C13465B0013441B019B1AB8
:101CB00090337A68134402332F2219460FF092F8BA
:101CC000FB7B0133FB73FB7B012BE0D97B68F0339B
:101CD0002F22002118460FF041F80023BB73002388
:101CE0007B7311E07A7B796813465B0013441B0118
:101CF0009B1A0B4492331B78002B09D0BB7B01331A
:101D0000BB737B7B01337B737B7B022BEAD900E0C7
:101D100000BFBB7B172219460448FFF705FD00BF33
:101D20001037BD4680BD00BFC8150108E415010885
:101D3000F0B58BB004AFF8607A603B600B46FB7285
:101D4000FB7A002B35D1FB689B78002B29D14FF40F
:101D5000FA630C226F49704807F088FBFB6819781A
:101D60006E4B1B786E4AA2FB03021209FA2000FB9D
:101D700002F29B1ADBB20133DAB20323039300238E
:101D80000293002301930023009300230020FFF718
:101D9000CDFD4FF4FA63072262495F4807F066FB06
:101DA00065E04FF4FA6313225F495B4807F05EFB7E
:101DB0005DE0FB7A012B2ED1FB689B78012B22D1B1
:101DC000FB681878554B1B785A1C584B83FB021341
:101DD0001344D911D317C91A0B469B015B1A9B00F8
:101DE0005B1AD11ACBB20133DAB203230393002377
:101DF0000293002301930023009301230146002056
:101E0000FFF794FD33E04FF4FA6315224849424846
:101E100007F02CFB2BE04FF4FA630D2245493E48B6
:101E200007F024FBFB6818783C4B1B785A1C3F4B8F
:101E300083FB02131344D911D317C91A0B469B0114
:101E40005B1A9B005B1AD11ACBB20133DAB2F97A72
:101E500097F83430039397F8303002933B6801933E
:101E60007B6800930B4601460020FFF75FFDF86892
:101E7000FFF7B6FD0346B3F1FF3F3FD0F868FFF729
:101E8000AFFD0346FB75FA7D13465B0013441B014F
:101E90009B1AFA6813440533204A15469C4605F1FF
:101EA000200E64462E460FCE20606160A260E36083
:101EB00010350CF1100C7545F3D164462B4607CB59
:101EC00020606160A2601A889B78A281A373FA7D6A
:101ED000F96813465B0013441B019B1A0B4408333B
:101EE0001B78013BD8B2F96813465B0013441B0111
:101EF0009B1A0B44083302461A7006E0FB681B78F5
:101F00001F2219460C48FFF70FFC00BF1C37BD46C7
:101F1000F0BD00BFFC150108D01A00209801002078
:101F2000D34D62100816010810160108BFBF8C823D
:101F3000241601083C1601084C160108F0B587B0BC
:101F400004AF78607B68DB78002B1ED07B689C78C0
:101F50007B681D787B685E797B68D3F806307A6889
:101F60000F327968897B7868C0780390029101927A
:101F7000009333462A4621460020FFF7D7FC7B68B2
:101F8000DB78013BDAB27B68DA7000BF0C37BD4604
:101F9000F0BD0000B0B5B2B000AF00233B603B1D08
:101FA000C422002118460EF0D9FE3B46C82219462D
:101FB0000A48FFF742FA0A4B1C463D460FCD0FC4B4
:101FC0000FCD0FC495E80F0007C4238002341B0C0B
:101FD000237000BFC837BD46B0BD00BF6C010020F4
:101FE000C801002080B485B000AFF860B9607A60A5
:101FF000FB68074A1A60BB68064A1A607B68802241
:102000001A6000BF1437BD465DF8047B704700BFFF
:10201000F80100204C02002080B485B000AFF860C9
:10202000B9607A60FB68074A1A60BB68064A1A60A2
:102030007B684FF480721A6000BF1437BD465DF8AC
:10204000047B70474C040020A004002080B400AF43
:10205000074B1B78002B03D1064B1B78002B01D0BC
:10206000012300E000231846BD465DF8047B70475D
:10207000A6080020A708002080B586B002AF03465E
:10208000FB71FFF7BDFB5E4AFB7913705C4B1B785D
:10209000112219465B48FFF747FB0023FB602AE04B
:1020A000FB68DBB20133D8B25749FA681346DB004C
:1020B00013445B019B1A0B4402461A70534AFB6897
:1020C000134418785049FA681346DB0013445B0147
:1020D0009B1A0B44013302461A704B49FA681346A7
:1020E000DB0013445B019B1A0B44023300221A707D
:1020F000FB680133FB60424B1B781A46FB68934236
:10210000CEDB01200BF097FA0346414A1360012011
:102110000BF091FA03463F4A1360002103200BF0B5
:10212000A2FA03463C4A13603C4B019305230093FB
:1021300000234FF400623A493A480CF0F1F83A4B68
:1021400001930523009300234FF400623749384878
:102150000CF0E6F8374B01930323009300234FF470
:102160008052354935480CF0DBF8354B0193062396
:10217000009300234FF40072324933480CF0D0F83A
:10218000324B01930623009300234FF40072304931
:1021900030480CF0C5F80022032103200BF0D7F9DA
:1021A00003462D4A13600022032103200BF0CFF9D0
:1021B00003462A4A13600022032103200BF0C7F9CB
:1021C0000346274A13600022032103200BF0BFF9C6
:1021D0000346244A136000222C2103200BF0B7F998
:1021E0000346214A1360214B00221A70204B002223
:1021F0001A70204806F0D2FC00BF1037BD4680BDE3
:10220000A008002070160108C0080020B8080020AF
:10221000AC180020B0180020B41800207818002056
:1022200084160108CD2A00087C18002098160108A1
:10223000ED24000880180020B0160108293000089D
:1022400084180020C81601083536000888180020B8
:10225000DC160108E5230008981800209C180020CF
:10226000A0180020A4180020A8180020A60800200C
:10227000A7080020401A002080B400AF054B0122BF
:102280001A70054B00221A6000BFBD465DF8047B42
:10229000704700BFA8080020AC08002080B400AF41
:1022A000054B00221A70054B00221A6000BFBD4684
:1022B0005DF8047B704700BFA8080020AC08002030
:1022C00080B400AF054B01221A70054B00221A6042
:1022D00000BFBD465DF8047B704700BFA908002021
:1022E000B008002080B400AF054B00221A70054BE7
:1022F00000221A6000BFBD465DF8047B704700BF36
:10230000A9080020B008002080B400AF054B0122CE
:102310001A70054B00221A6000BFBD465DF8047BB1
:10232000704700BFAA080020B408002080B400AFA6
:10233000054B00221A70054B00221A6000BFBD46F3
:102340005DF8047B704700BFAA080020B408002095
:1023500080B582B000AF00233B7105237B713B1D2C
:10236000022118460DF0CAFF00BF0837BD4680BDE8
:1023700080B58CB000AF0A233B71064B1868391D3D
:1023800000234FF0FF320BF0A3F900BF3037BD46FA
:1023900080BD00BFA818002080B58EB000AF0346F6
:1023A0003A60FB710B46BB710B233B73BB79FB732C
:1023B000FB797B73FA7907F10C030433396818460B
:1023C0000EF010FD064B186807F10C0100234FF0CA
:1023D000FF320BF07DF900BF3837BD4680BD00BF2E
:1023E000A818002080B5A0B000AF78603A4B1B68F9
:1023F00007F150014FF0FF3218460BF099FB0346EE
:10240000002BF3D0102200213448FFF78DF997F804
:1024100050300A2B36D1324B1B7887F83C300623DC
:1024200087F83D302E4B1B7887F83E30002387F825
:102430007F3016E097F87F2097F87F30D91C294825
:102440001346DB0013445B019B1A03441A7801F125
:1024500080033B4403F8442C97F87F30013387F81E
:102460007F301F4B1B7897F87F209A42E2D31C4B9A
:102470001B7803339AB207F13C03114618460DF05E
:102480003DFFB3E797F850300B2BAFD197F85130A1
:102490003B7307237B7397F85330BB7397F8513026
:1024A0001A4607F15003191D07F10C0303331846B0
:1024B0000EF098FC97F8513003339AB207F10C03F1
:1024C000114618460DF01AFF3B7E112219460648A8
:1024D000FFF72AF98AE700BFA8180020EC160108C8
:1024E000A10800209C1000200017010880B590B0C2
:1024F00002AF7860B74B1B6807F128014FF0FF323D
:1025000018460BF015FB0346002BF3D0B24B1B68AB
:102510004FF0FF3118460BF0EDFBFFF7D7F8FFF750
:10252000F5F800F08DFF00BFAC4B9B69184606F034
:1025300094F90346012BF7D100BFFFF731F90346A9
:10254000012BFAD0FFF714F997F82830022B4DD160
:1025500005E0A34B1B780133DAB2A14B1A70A04BF4
:102560001B781A469F491346DB0013445B019B1AF4
:102570000B4402331B78002B05D1994B1A789A4BE8
:102580001B789A42E5D3964B1A78974B1B789A4260
:1025900080F04182924B1B781A4692491346DB0029
:1025A00013445B019B1A0B4402331B78012B40F050
:1025B00032824FF4FA6312228C498D4806F056FF9E
:1025C000874B1B781A461346DB0013445B019B1AAA
:1025D000844A9818032301930023009300230022C8
:1025E0000121FFF7A5FBFFF76BFE14E297F82830F7
:1025F000032B5ED14FF4FA6310227E497C4806F02B
:1026000035FF002387F8373017E097F837207549F2
:102610001346DB0013445B019B1A0B441A7897F8AE
:1026200029309A4204D16E4A97F8373013700AE085
:1026300097F83730013387F837306B4B1B7897F8B2
:1026400037209A42E1D3664B1B781A4665491346F8
:10265000DB0013445B019B1A0B4402331B78012BF4
:1026600015D15F4B1B781A461346DB0013445B0100
:102670009B1A5C4A981803230193002300930023BC
:1026800000220121FFF754FBFFF71AFEC3E14FF4CC
:10269000FA6314225849564806F0E8FE504B0022CF
:1026A0001A700DF059FA554B00221A700DF086FA87
:1026B000B1E197F82830072B40F0B680484B1B78E3
:1026C0005A1C07F108034E4918460EF027FB07F184
:1026D00008031846FDF784FD03469AB207F1080186
:1026E0004FF4FA63424806F0C1FE3D4B1B781A4690
:1026F0001346DB0013445B019B1A3A4A1344012141
:102700001846FFF791F9F862FB6AB3F1FF3F0FD06B
:10271000334B1B781A461346DB0013445B019B1AAC
:10272000304A1344FA6AD2B211461846FFF7F3F959
:10273000324B1B78032B67D1294B1B780133DAB25C
:10274000274B1A70264B1B781A4626491346DB0086
:1027500013445B019B1A0B4402331B78002B05D1F9
:102760001F4B1A78204B1B789A42E5D31C4B1A78E2
:102770001D4B1B789A4280F04E81194B1B781A46EC
:1027800018491346DB0013445B019B1A0B440233C8
:102790001B78012B40F03F814FF4FA63172219494F
:1027A000134806F063FE0E4B1B781A461346DB00F7
:1027B00013445B019B1A0B4A9818032301930023CF
:1027C0000093002300220121FFF7B2FAFFF778FD02
:1027D00021E100BF9C180020AC1800206C010020F3
:1027E000A4080020C0080020A00800201417010839
:1027F000D01A00202817010838170108A708002060
:102800005017010868170108A34B1B78042B40F0F0
:102810000281A24B00221A700DF09EF99E4B0022FD
:102820001A700DF0CBF9F6E097F82830082B04D099
:1028300097F82830092B40F0EE80984B1B78013335
:102840000B2219469648FEF76FFF944B1B781A46E9
:102850001346DB0013445B019B1A924A1344012187
:102860001846FFF7E1F838633B6BB3F1FF3F00F028
:10287000D2808A4B1B7819468A483B6B1A46520015
:102880001A441201D21A0B46DB000B445B015B1A9F
:102890001344034408331B78002B41D07F4B1B7833
:1028A000194680483B6B1A4652001A441201D21A4C
:1028B0000B46DB000B445B015B1A134403440933F2
:1028C0001B78002B2CD1754B1B7801331A2219462B
:1028D0007548FEF729FF714B1B781A46714913465C
:1028E000DB0013445B019B1A0B44043301221A7072
:1028F0006A4B1B7819463B6B1A4652001A44120168
:10290000D21A0B46DB000B445B015B1A1344654A89
:10291000134405331846FFF711FBFFF7D1FC7AE0AB
:102920005E4B1B7801331B2219466048FEF7FCFE04
:102930005A4B1B781A465B491346DB0013445B0174
:102940009B1A0B44043302221A70544B1B781A460C
:102950001346DB0013445B019B1A524A13443A6B43
:10296000D2B211461846FFF7D6F84B4B1B78032B13
:1029700043D14A4B1B780133DAB2484B1A70474BAC
:102980001B781A4647491346DB0013445B019B1A28
:102990000B4402331B78002B05D1404B1A78444B73
:1029A0001B789A42E5D33D4B1A78414B1B789A42EB
:1029B00031D23A4B1B781A463A491346DB0013448E
:1029C0005B019B1A0B4402331B78012B23D1334B41
:1029D0001B781A461346DB0013445B019B1A314AED
:1029E0009818032301930023009300230022012160
:1029F000FFF79EF9FFF764FC0DE0274B1B78042BD3
:102A000009D1264B00221A700DF0A6F8224B0022A5
:102A10001A700DF0D3F8214B1A78254B1B789A4287
:102A200010D34FF4FA630C222249234806F01EFD0E
:102A30001A4B00221A700DF08FF8174B00221A70F3
:102A40000DF0BCF8FEF762FE134B1B78002B0FD184
:102A50001A4B1B68002118460AF092FC184B1B68A1
:102A6000002118460AF08CFC00F012FDFFF780FCF4
:102A7000FEF73CFE00BF134B9B69184605F0EDFEC8
:102A80000346012BF7D1104B1868002300220021C8
:102A90000AF01EFE2EE500BFA7080020A4080020B3
:102AA00080170108C008002090170108AC17010822
:102AB000A0080020C8170108D01A0020A018002084
:102AC0009C1800206C010020AC18002080B588B054
:102AD00002AF7860AB4B1B6807F108014FF0FF3283
:102AE00018460BF025F80346002BF3D0A64B1B68C5
:102AF0004FF0FF3118460BF0FDF8FEF7E7FDFEF74B
:102B000005FE00F09DFC00BFA04B9B69184605F038
:102B1000A4FE0346012BF7D100BFFEF741FE03469A
:102B2000012BFAD0FEF724FE3B7A002B4DD105E0B5
:102B3000974B1B780133DAB2954B1A70944B1B7884
:102B40001A4694491346DB0013445B019B1A0B445D
:102B500002331B78012B05D18D4B1A788E4B1B78D5
:102B60009A42E5D38A4B1B781A468A491346DB0002
:102B700013445B019B1A0B4402331B78002B40F07B
:102B80000982834B1A78844B1B789A4280F0028228
:102B90004FF4FA630F228149814806F067FC7C4BB1
:102BA0001B781A461346DB0013445B019B1A794AD3
:102BB000981803230193002300930023002200218F
:102BC000FFF7B6F8FFF758FBE4E13B7A012B59D148
:102BD0004FF4FA6310227349714806F047FC002352
:102BE0007B6113E06B497A691346DB0013445B0198
:102BF0009B1A0B441A787B7A9A4204D17B69DAB229
:102C0000634B1A7008E07B6901337B61624B1B7870
:102C10001A467B699342E5DB5D4B1B781A465D499A
:102C20001346DB0013445B019B1A0B4402331B78F1
:102C3000002B15D1564B1B781A461346DB00134464
:102C40005B019B1A534A98180323019300230093B6
:102C5000002300220021FFF76BF8FFF70DFB99E13D
:102C60004FF4FA63112250494D4806F0FFFB484BE0
:102C700000221A700CF070FF4C4B00221A700CF0FE
:102C80009DFF87E13B7A072B40F0A680404B1B78E5
:102C90000133142219464648FEF746FD3C4B1B788B
:102CA0001A461346DB0013445B019B1A394A13444E
:102CB00000211846FEF7B8FEF860FB68B3F1FF3F4D
:102CC0000FD0334B1B781A461346DB0013445B01CD
:102CD0009B1A304A1344FA68D2B211461846FEF7DE
:102CE0001AFF324B1B78012B66D1294B1B7801331D
:102CF000DAB2274B1A70264B1B781A462549134621
:102D0000DB0013445B019B1A0B4402331B78012B3D
:102D100005D11F4B1A78204B1B789A42E5D31C4BE8
:102D20001A781D4B1B789A4280F03481184B1B781F
:102D30001A4618491346DB0013445B019B1A0B44E7
:102D400002331B78002B40F025814FF4FA631422E4
:102D50001849134806F08AFB0D4B1B781A46134698
:102D6000DB0013445B019B1A0A4A98180323019362
:102D700000230093002300220021FEF7D9FFFFF774
:102D80007BFA07E198180020AC1800206C010020A5
:102D9000A3080020C0080020A0080020D8170108C0
:102DA000D01A0020E8170108F8170108A60800202B
:102DB0000C18010824180108904B1B78022B40F0D6
:102DC000E9808F4B00221A700CF0C6FE8B4B00225C
:102DD0001A700CF0F3FEDDE03B7A082B03D03B7A4F
:102DE000092B40F0D7804FF4FA63102285498648BA
:102DF00006F03CFB824B1B78142219468348FEF7F1
:102E000093FC7F4B1B781A461346DB0013445B018F
:102E10009B1A7F4A134400211846FEF705FE3861CD
:102E20003B69B3F1FF3F00F0B580754B1B78194645
:102E300077483B691A4652001A441201D21A0B46CF
:102E4000DB000B445B015B1A1344034408331B781B
:102E5000002B24D06A4B1B781A466D491346DB00C1
:102E600013445B019B1A0B44043301221A70644B18
:102E70001B7819463B691A4652001A441201D21AAD
:102E80000B46DB000B445B015B1A1344604A13449E
:102E900005331846FFF752F8FFF7EEF97AE0584B82
:102EA0001B7801331B2219465A48FEF73DFC544B50
:102EB0001B781A4656491346DB0013445B019B1AE4
:102EC0000B44043302221A704D4B1B781A461346EA
:102ED000DB0013445B019B1A4D4A13443A69D2B29A
:102EE00011461846FEF717FE444B1B78012B43D1C1
:102EF000434B1B780133DAB2414B1A70404B1B78BD
:102F00001A4643491346DB0013445B019B1A0B44EA
:102F100002331B78012B05D1394B1A783E4B1B78B5
:102F20009A42E5D3364B1A783B4B1B789A4231D202
:102F3000334B1B781A4636491346DB0013445B01BA
:102F40009B1A0B4402331B78002B23D12C4B1B788C
:102F50001A461346DB0013445B019B1A2C4A98184F
:102F60000323019300230093002300220021FEF796
:102F7000DFFEFFF781F90DE0204B1B78022B09D112
:102F80001F4B00221A700CF0E7FD1C4B00221A7038
:102F90000CF014FE1A4B1A781F4B1B789A4210D370
:102FA0004FF4FA630B221D49174806F05FFA144BE1
:102FB00000221A700CF0D0FD104B00221A700CF099
:102FC000FDFDFEF7AAFB0D4B1B78002B03D100F093
:102FD0005FFAFFF7CDF9FEF789FB00BF104B9B6945
:102FE000184605F03AFC0346012BF7D10D4B186843
:102FF0000023002200210AF06BFB6BE5A6080020ED
:10300000A30800203C180108D01A0020501801081D
:10301000C008002068180108A008002084180108D2
:103020006C010020AC18002080B588B002AF786039
:1030300000BFFFF70BF80346002BFAD1754B1B6856
:1030400007F10C014FF0FF3218460AF071FD0346FC
:10305000002BEDD0704B1B684FF0FF3118460AF083
:1030600049FEFEF733FB172200216C48FEF75CFB9C
:1030700000BF6B4B9B69184605F0EFFB0346012B25
:10308000F7D100BFFEF78CFB0346012BFAD0FEF709
:103090006FFB3B7B132219466248FEF745FB3B7BE7
:1030A000042B4BD1604B1B781A4660491346DB005A
:1030B00013445B019B1A0B4402331B78012B39D15B
:1030C000594B1B781A4659491346DB0013445B01E0
:1030D0009B1A0B441B78002B2CD0534B1B781122CE
:1030E00019465348FEF720FB4F4B1B781A464F49B1
:1030F0001346DB0013445B019B1A0B441B780E2222
:1031000019464C48FEF710FB474B1B781A461346EE
:10311000DB0013445B019B1A444A98180323019374
:1031200000230093002300220321FEF701FEFFF796
:10313000EBF858E13C4B00221A7054E13B7B072B23
:103140007ED1394B1B78162219463B48FEF7ECFA24
:10315000354B1B781A4635491346DB0013445B0197
:103160009B1A0B4402331B78012B4ED12E4B1B783C
:103170001A462E491346DB0013445B019B1A0B448D
:103180001B78002B41D0284B1B781A461346DB00D6
:1031900013445B019B1A254A134403211846FEF78A
:1031A00043FC38613B69B3F1FF3F27D01E4B1B78CE
:1031B00019461E483B691A4652001A441201D21A97
:1031C0000B46DB000B445B015B1A134403440533DD
:1031D0001B781C2219461948FEF7A6FA124B1B78D9
:1031E0001A461346DB0013445B019B1A0F4A134433
:1031F0003A69D2B211461846FEF78DFC0A4B1B788D
:103200000133DAB2084B1A70EDE0074B00221A7056
:10321000E9E000BFA0180020AC18002090180108B9
:103220006C010020A8180108A50800209C100020AF
:10323000BC180108D0180108E0180108F8180108A6
:103240003B7B082B03D03B7B092B40F0CC80744B9D
:103250001B78202219467348FEF766FA704B1B78DC
:103260001A461346DB0013445B019B1A6E4A134453
:1032700003211846FEF7D8FB78617B69B3F1FF3F65
:1032800000F0B180664B1B78194667487B691A4687
:1032900052001A441201D21A0B46DB000B445B01A8
:1032A0005B1A1344034408331B78002B54D05C4B47
:1032B0001B7819465C487B691A4652001A44120171
:1032C000D21A0B46DB000B445B015B1A1344034428
:1032D00009331B78002B3FD1514B1B781A465249BA
:1032E0001346DB0013445B019B1A0B4402331B782B
:1032F000012B77D14A4B1B781A464B491346DB000A
:1033000013445B019B1A0B441B78002B6AD0444B7F
:103310001B78162219464548FEF706FA404B1B78E3
:103320001A4641491346DB0013445B019B1A0B44C8
:10333000043301221A703A4B1B781A461346DB00FD
:1033400013445B019B1A384A134405331846FEF7B1
:10335000F5FDFEF7D9FF45E0314B1B781A4632499F
:103360001346DB0013445B019B1A0B4402331B78AA
:10337000012B38D12A4B1B781A462B491346DB0008
:1033800013445B019B1A0B441B78002B2BD0244B5E
:103390001B781A4624491346DB0013445B019B1A31
:1033A0000B44043302221A701D4B1B781A46134635
:1033B000DB0013445B019B1A1B4A13447A69D2B2A7
:1033C00011461846FEF7A7FB154B1B780A22194633
:1033D0001748FEF7A9F9124B1B780133DAB2104BEC
:1033E0001A7000E000BF0E4B1A78124B1B789A42FD
:1033F00002D30B4B00221A7000BF0F4B9B6918467B
:1034000005F02BFA0346012BF7D1FEF76FF90B4BB2
:1034100018680023002200210AF05AF908E600BFCC
:10342000A5080020181901089C1000203C1901086B
:1034300054190108A10800206C010020AC180020DC
:1034400080B500AF0A4B1B686FF001021A614FF0A4
:1034500080431B684FF0804223F0010313604FF05C
:10346000804300225A62024805F0FAFB00BF80BD8B
:10347000F819002080B500AF4FF0804300225A6257
:10348000024805F08BFB00BF80BD00BFF81900208B
:1034900080B590B000AFFFF7D3FF414B1B78002BF6
:1034A0003FD04FF4FA6310223E493F4805F0DEFF5B
:1034B0003B4B1B780A2219463C48FEF735F9384B3E
:1034C0001A783B4B1A70364B1B781A4647F230532A
:1034D00093FBF2F3BB634FF080431B684FF08042D5
:1034E00023F0010313604FF0804300225A624FF033
:1034F0008042BB6B013BD3622E4B1B78DBB2002BAF
:103500000DD104233B7100237B712B4B1868391DAF
:1035100000234FF0FF320AF0DBF8FFF7ABFFFFF7B5
:10352000A9FF07F108032B22002118460DF016FC15
:103530001B4B1B780233DBB23B7200237B72184BB0
:103540001B78BB72002387F83F3015E097F83F20C7
:1035500097F83F1019481346DB0013445B019B1A90
:1035600003441A7801F140033B4403F8352C97F8E3
:103570003F30013387F83F30094B1B7897F83F20E5
:103580009A42E3D307F108037B634FF4FA632B22DB
:10359000796B0B4805F06AFF00BF4037BD4680BD20
:1035A000A108002060190108D01A00207419010830
:1035B000A2080020B8180020A01800209C100020AD
:1035C000881A002080B582B000AF154B1B78DBB2A3
:1035D000002B20D1134B1B78002B1CD01322002171
:1035E0001148FEF7A1F800237B6004233B70002301
:1035F0007B700E4B18683A1D394600230AF06AF9B1
:103600007B68002B07D00A4B4FF080521A60BFF343
:103610004F8FBFF36F8F00BF0837BD4680BD00BF1F
:10362000B8180020A108002080190108A018002067
:1036300004ED00E0B0B5A2B002AF7860784B1B6833
:1036400007F158014FF0FF3218460AF071FA0346AD
:10365000002BF3D0734B1B684FF0FF3118460AF074
:1036600049FBFEF733F8FFF7EBFE00BF6E4B9B699B
:10367000184605F0F2F80346012BF7D100BFFEF71C
:103680008FF80346012BFAD0FEF772F897F85830FE
:10369000052B40F09D8097F8593087F8673000235C
:1036A000FB67002387F87B301DE097F87B205F499C
:1036B0001346DB0013445B019B1A0B441B7897F8FD
:1036C00067209A420AD197F87B201346DB00134407
:1036D0005B019B1A554A1344FB670AE097F87B305D
:1036E000013387F87B30524B1B7897F87B209A4246
:1036F000DBD3FB6F002B00F06A810721F86FFEF728
:1037000084FA38663B6EB3F1FF3F00F0608107F149
:103710002C032B22002118460DF020FB032387F8F1
:103720002C30022387F82D30FB6F1B7887F82E3062
:10373000FB6F9B7887F82F30FB6F1B7987F8303051
:10374000F96F3A6E13465B0013441B019B1A0B443E
:10375000A1331B7887F8313007F12C03FB654FF458
:10376000FA632B22F96D334805F080FE97F82C00A0
:1037700097F82E1007F12C0303331A46FEF70CFEC0
:1037800097F83130202219462B48FDF7CDFFF96F0D
:103790003A6E13465B0013441B019B1A0B44923391
:1037A0001B7887F85B303B6EDBB21946F86FFEF78B
:1037B0005FFA224A97F85B301371032301930023C9
:1037C0000093002300220521F86FFEF7B1FAFEE016
:1037D00097F85830062B40F0FA8097F8593087F860
:1037E000723000237B67002387F873302DE097F851
:1037F00073200E491346DB0013445B019B1A0B44F4
:103800001B7897F872209A421AD197F873201346C2
:10381000DB0013445B019B1A044A13447B671AE0E4
:10382000A4180020AC1800206C0100209C1000207F
:10383000A1080020881A00202C1A010898010020F5
:1038400097F87330013387F873306E4B1B7897F815
:1038500073209A42CBD37B6F002B00F0B88097F88F
:103860005A301946786FFEF7AAF9F866FB6EB3F185
:10387000FF3F00F0AC8007F12C032B2200211846FB
:103880000DF06CFA282387F82C30012387F82D30AF
:103890007B6F1B7887F82E307B6F9B7887F82F30F3
:1038A0007B6F1B7987F83030796FFA6E13465B00B7
:1038B00013441B019B1A0B44A1331B7887F831304A
:1038C000FA6E13465B0013441B019B1A98337A6F00
:1038D000134403F1090107F12C030B33202218468E
:1038E0000DF080FA07F12C03BB66796FFA6E134670
:1038F0005B0013441B019B1A0B44A1331B781C462D
:10390000796FFA6E13465B0013441B019B1A0B443C
:10391000A2331B781D46796FFA6E13465B00134481
:103920001B019B1A0B4496331B7807F10800009388
:103930002B46224634490DF0F1F907F108014FF406
:10394000FA632322314805F091FD4FF4FA632B22EC
:10395000B96E2F4805F08AFD97F82C0097F82E10C5
:1039600007F12C0303331A46FEF716FD072387F8E9
:1039700058307B6F1B7887F85930796FFA6E134691
:103980005B0013441B019B1A0B4496331B7887F88A
:103990005A304FF4FA6307221E491C4805F066FDB1
:1039A0001D4B1B6818460AF0B5FA0346022B08D8CF
:1039B000194B186807F1580100234FF0FF3209F046
:1039C00087FEFB6EDBB21946786FFEF751F900BF38
:1039D000124B9B69184604F040FF0346012BF7D1B8
:1039E000FFF748FD122200210D48FDF79DFE0D4B0B
:1039F000186800230022002109F06AFEFDF776FE18
:103A00001CE600BFA1080020501A0108D01A0020AF
:103A1000881A0020741A0108A01800206C010020E8
:103A20007C1A0108AC180020F0B587B000AFAE4B8F
:103A30009B78002B00F03882AB4B1B79002B40F0B9
:103A40003382A94B5B79002B03D0A74B5B79012B09
:103A500023D10023FB741AE0FA7CA4491346DB004F
:103A600013445B019B1A0B441A789F4B9B789A4234
:103A70000AD1FA7C1346DB0013445B019B1A9B4A74
:103A800013447B6100BF2AE0FB7C0133FB74984B3D
:103A90001B78FA7C9A42DFD321E00023BB7419E043
:103AA000BA7C94491346DB0013445B019B1A0B4418
:103AB0001A788D4B9B789A4209D1BA7C1346DB0069
:103AC00013445B019B1A8B4A13447B6107E0BB7C68
:103AD0000133BB74884B1B78BA7C9A42E0D3824B8B
:103AE000DB78002B71D0122200218448FDF71CFEE8
:103AF000834B1B680021184609F08AFF814B1B7815
:103B0000DBB2022B05D87F4B1B78DBB20133DBB273
:103B100000E003237B4A13707A4B1B78DBB20B2245
:103B200019467948FDF700FE764B1B78DBB25A1E2A
:103B300013465B0013441B019B1A744A13446A4AE0
:103B4000184602F1200403461146D1F800C04E6821
:103B50008D68C968C3F800C05E609D60D96010328E
:103B60001030A242EFD103461468506891681C607F
:103B7000586099609189927B99819A735A4B5B79CD
:103B8000002B02D1FEF78AFB8EE1574B5B79012BAC
:103B900002D1FEF7A7FB87E1534B5B79032B40F083
:103BA0008381584B1B78DBB25A1E584913465B0081
:103BB00013441B019B1A0B441B781A2219465448C4
:103BC000FDF7B2FDFEF7B2FB6EE1474B5B79002BD0
:103BD0006ED17B691B79012B00F26681484B1B6813
:103BE0000021184609F014FF464B1B78DBB2022B6C
:103BF00005D8444B1B78DBB20133DBB200E0032372
:103C0000404A1370384BDB780133DAB2364BDA7046
:103C1000354B1B781A4600217869FDF747FF78601D
:103C20007B68B3F1FF3F16D079697A6813465B0071
:103C300013441B019B1A0B4408331B780133D8B281
:103C400079697A6813465B0013441B019B1A0B4485
:103C5000083302461A702B4B1B78DBB25A1E1346F0
:103C60005B0013441B019B1A284A13441E4A184642
:103C700002F1200403461146D1F800C04E688D6859
:103C8000C968C3F800C05E609D60D9601032103012
:103C9000A242EFD103461468506891681C605860D6
:103CA00099609189927B99819A73FEF7F7FAFBE00C
:103CB0000D4B5B79012B40F086807B691B79012BD2
:103CC00000F2F2800E4B1B680021184609F0A0FE9E
:103CD0000C4B1B78DBB2022B1CD80A4B1B78DBB2D7
:103CE0000133DBB217E000BF98010020C0080020BC
:103CF000A00800209C100020A1080020BC1A010888
:103D0000B4180020B8180020D01A0108BC180020F0
:103D1000E01A01080323664A1370664BDB7801330F
:103D2000DAB2644BDA70634B1B781A46012178696A
:103D3000FDF7BCFEB860BB68B3F1FF3F16D07969F0
:103D4000BA6813465B0013441B019B1A0B440833EB
:103D50001B780133D8B27969BA6813465B00134403
:103D60001B019B1A0B44083302461A70504B1B78F8
:103D7000DBB25A1E13465B0013441B019B1A4E4ACA
:103D800013444C4A184602F1200403461146D1F868
:103D900000C04E688D68C968C3F800C05E609D6051
:103DA000D96010321030A242EFD103461468506837
:103DB00091681C60586099609189927B99819A738F
:103DC000FEF790FA70E03B4B5B79032B6CD17B697B
:103DD0001B79012B68D8394B1B680021184609F064
:103DE00017FE334B1B78DBB2022B05D8304B1B7808
:103DF000DBB20133DBB200E003232D4A13702D4BFD
:103E0000DB780133DAB22B4BDA702A4B1B781A4677
:103E100003217869FDF74AFEF860FB68B3F1FF3FC4
:103E200016D07969FA6813465B0013441B019B1A8C
:103E30000B4408331B780133D8B27969FA6813460A
:103E40005B0013441B019B1A0B44083302461A7093
:103E5000174B1B78DBB25A1E13465B0013441B0141
:103E60009B1A154A1344134A184602F120040346CC
:103E70001146D1F800C04E688D68C968C3F800C00B
:103E80005E609D60D96010321030A242EFD10346CF
:103E90001468506891681C60586099609189927BA1
:103EA00099819A73FEF742FA00BF1C37BD46F0BDF8
:103EB000B818002098010020BC180020B418002079
:103EC00080B586B000AF78607B685B78FB750023B7
:103ED0003B61FB7D032B00F2B78001A252F823F077
:103EE000F13E0008473F0008993F0008E93F0008FD
:103EF000574B1B78002B40F0A080564B1B78002BB3
:103F000040F09B80FEF724FAFFF78EFD504B012214
:103F10001A7000233B7300237B734F4B186807F123
:103F2000100207F10C01002309F0D4FC3B69002BBF
:103F300000F08380494B4FF080521A60BFF34F8FDF
:103F4000BFF36F8F79E0424B1B78002B77D1414B49
:103F50001B78002B73D1FEF7FBF9FFF765FD3C4B97
:103F600002221A7001233B737B689B787B733A4B68
:103F7000186807F1100207F10C01002309F0AAFCF0
:103F80003B69002B5BD0354B4FF080521A60BFF37A
:103F90004F8FBFF36F8F52E02E4B1B78002B50D109
:103FA0002B4B1B78002B4CD1FEF7D2F9FFF73CFDD1
:103FB000284B03221A7002233B7300237B73284B88
:103FC000186807F1100207F10C01002309F082FCC8
:103FD0003B69002B35D0214B4FF080521A60BFF364
:103FE0004F8FBFF36F8F2CE01A4B1B78002B2AD119
:103FF000174B1B78002B26D1FEF7AAF9FFF714FD0B
:10400000144B04221A7003233B737B689B787B73E9
:10401000134B186807F1100207F10C01002309F097
:1040200059FC3B69002B0ED00C4B4FF080521A60AC
:10403000BFF34F8FBFF36F8F05E000BF04E000BFF9
:1040400002E000BF00E000BF00BF1837BD4680BDE2
:10405000A6080020A70800209818002004ED00E022
:104060009C180020F0B58FB000AF002387F83730E0
:10407000B94B1B7987F82730002387F826300023B7
:104080007B604FF4FA630B22B449B54805F0EEF9B2
:1040900097F8273016221946B248FDF745FBB24B78
:1040A0001B7897F827209A4202D1AF4B3B632BE055
:1040B000002387F8373020E097F83720AB491346C4
:1040C0005B0013441B019B1A0B441B7897F82720B5
:1040D0009A420DD197F8372013465B0013441B0119
:1040E0009B1AA24A13443B63012387F826300BE056
:1040F00097F83730013387F837309D4B1B78DBB2A8
:1041000097F837209A42D7D33B6B002B00F0698297
:104110003B6B97F827201A713B6B5B79002B04D01F
:104120003B6B5B79012B40F06081002387F82B30DB
:10413000002387F82B301DE097F82B208D4913467C
:10414000DB0013445B019B1A0B441A78824B5B78AB
:104150009A420AD197F82B201346DB0013445B01E7
:104160009B1A844A1344FB620AE097F82B30013310
:1041700087F82B30804B1B7897F82B209A42DBD3A3
:104180003B6B5B79002B73D1FEF788F8FB6A012249
:104190009A7097F827301A460021F86AFDF786FCD6
:1041A000F860FB68B3F1FF3F00F00D826A4B1879AD
:1041B000F96AFA6813465B0013441B019B1A0B440F
:1041C000093302461A70FB6A00221A716B4B1B7886
:1041D0001A461346DB0013445B019B1A684A1344DA
:1041E00040F21F12F96A18460CF0FCFD634B1B7875
:1041F0001A461346DB0013445B019B1A604A1344C2
:1042000097F8272000211846FDF750FCB860BB68DE
:10421000B3F1FF3F0FD0594B1B781A461346DB0012
:1042200013445B019B1A564A1344BA68D2B2114632
:104230001846FDF770FC514B1B780133DAB24F4B37
:104240001A7007233B70FB6A1B787B7097F8273046
:10425000BB704FF4FA630F224A49414805F006F952
:10426000494B18683A1D3946002309F033FBAAE18F
:104270003B6B5B79012B40F0A681FEF733F8FB6ABC
:1042800000229A7097F827301A460121F86AFDF744
:104290000DFC38613B69B3F1FF3F00F094812E4B78
:1042A0001879F96A3A6913465B0013441B019B1A9B
:1042B0000B44093302461A70FB6A00221A7100236C
:1042C00087F82A3067E097F82A202D491346DB004B
:1042D00013445B019B1A0B441A78FB6A1B789A42C1
:1042E00054D197F82A3087F829301CE097F8292014
:1042F0001346DB0013445B019B1A214A981897F878
:1043000029305A1C1346DB0013445B019B1A1C4ADC
:10431000134440F21F1219460CF064FD97F829303F
:10432000013387F8293097F82920144B1B78013B7B
:104330009A42DBDB114B1B785A1E1346DB001344F9
:104340005B019B1A0E4A134440F21F1200211846CB
:104350000CF004FD25E000BFC8010020FC1A010894
:10436000D01A0020081B010898010020BC1800206A
:10437000B8180020C0080020A0080020A1080020D4
:104380009C100020201B01089818002097F82A3064
:10439000013387F82A30954B1B7897F82A209A42E8
:1043A00091D3924B1B78013BDAB2904B1A700723E2
:1043B0003B70FB6A1B787B7097F82730BB704FF41B
:1043C000FA6312228A498B4805F050F8874B1B7814
:1043D000132219468848FDF7A7F9884B18683A1D3B
:1043E0003946002309F076FAEDE03B6B5B79032B4D
:1043F00040F0EC80FDF79AFF002387F82830DAE0E0
:1044000097F828207E491346DB0013445B019B1A72
:104410000B441A787B4B5B789A4240F0C78097F840
:1044200028201346DB0013445B019B1A744A134493
:1044300097F8272003211846FDF738FB38623B6ABE
:10444000B3F1FF3F13D097F828106D483B6A1A4626
:1044500052001A441201D21A0B46DB000B445B01D6
:104460005B1A13440344093397F827201A7097F80E
:10447000282063491346DB0013445B019B1A0B445D
:10448000043300221A705F4B9B7B002B00F09D8051
:1044900097F828201346DB0013445B019B1A584A07
:1044A000134405211846FDF7B0FBF86197F8282062
:1044B0001346DB0013445B019B1A514A1344514AD3
:1044C000127811461846FDF77AFBB86197F8282054
:1044D0001346DB0013445B019B1A494A13441846F8
:1044E000FDF74AFB7861FB69B3F1FF3F03D0BB697D
:1044F000B3F1FF3F69D17B69B3F1FF3F65D04FF462
:10450000FA63222240493B4804F0B0FF97F8281094
:104510007B691A4652001A441201D21A0B46DB007C
:104520000B445B015B1A13449033354A1344023346
:10453000344A184602F1200403461146D1F800C05F
:104540004E688D68C968C3F800C05E609D60D96020
:1045500010321030A242EFD10346146850689168BF
:104560001C60586099609189927B99819A730623A7
:104570003B7097F8282022491346DB0013445B0167
:104580009B1A0B441B787B701E4B1B78BB701F4B18
:1045900018683A1D3946002309F09CF94FF4FA6374
:1045A00007221B49134804F061FF0EE097F82830FA
:1045B000013387F828300D4B1B7897F828209A4252
:1045C000FFF41EAF02E000BF00E000BF7B68002BDD
:1045D00007D0104B4FF080521A60BFF34F8FBFF3DC
:1045E0006F8F00BF3C37BD46F0BD00BFA108002063
:1045F000301B0108D01A0020441B01089C18002021
:104600009C100020C8010020581B0108A41800209D
:10461000741A010804ED00E080B58CB002AF0023ED
:1046200087F82730914B1B793B76002387F826309B
:104630000023BB604FF4FA630C228D498D4804F0CF
:1046400015FF3B7E162219468B48FDF76DF88B4B04
:104650001B783A7E9A4202D1884B3B622AE00023C3
:1046600087F827301FE097F82720854913465B001D
:1046700013441B019B1A0B441B783A7E9A420DD1BE
:1046800097F8272013465B0013441B019B1A7C4AB2
:1046900013443B62012387F826300BE097F827305C
:1046A000013387F82730774B1B78DBB297F8272048
:1046B0009A42D8D33B6A002B00F09B813B6A3A7E3A
:1046C0001A713B6A5B79002B04D03B6A5B79012B42
:1046D00040F0B9800023FB760023FB7619E0FA7ED8
:1046E00069491346DB0013445B019B1A0B441A789B
:1046F0005E4B5B789A4209D1FA7E1346DB00134485
:104700005B019B1A604A1344FB6107E0FB7E0133A7
:10471000FB765E4B1B78FA7E9A42E0D33B6A5B796C
:10472000002B45D15A4B186807F10803002200926C
:10473000002208210AF0EAFD3B7E1A460021F869B2
:10474000FDF7B4F9F860FB68B3F1FF3F00F01481A6
:10475000464B1879F969FA6813465B0013441B014C
:104760009B1A0B44093302461A70FB6901221A7125
:1047700008233B7100237B714FF4FA630C224549F7
:104780003C4804F073FE444B186807F10802391DD9
:10479000002309F09FF8BB68002B00F0ED803F4B31
:1047A0004FF080521A60BFF34F8FBFF36F8FE3E07B
:1047B0003B6A5B79012B40F0DF80394B186807F1C9
:1047C000080300220092002208210AF09FFD3B7E90
:1047D0001A460121F869FDF769F938613B69B3F1BF
:1047E000FF3F00F0C980214B1879F9693A691346F7
:1047F0005B0013441B019B1A0B44093302461A70D9
:10480000FB6901221A7108233B7100237B714FF46D
:10481000FA630F222349174804F028FE224B186838
:1048200007F10802391D002309F054F8BB68002B7A
:1048300000F0A280194B4FF080521A60BFF34F8FE7
:10484000BFF36F8F98E03B6A5B79032B40F0978052
:10485000164B186807F10803002200920022082175
:104860000AF054FD0023BB7680E000BFC8010020A1
:104870007C1B0108D01A0020081B010898010020A9
:10488000BC180020B8180020C0080020A008002094
:104890008C1800208C1B01089818002004ED00E003
:1048A000901800209C1B01089C18002094180020E0
:1048B000BA7E52491346DB0013445B019B1A0B443A
:1048C0001A784F4B5B789A424DD1BA7E1346DB0083
:1048D00013445B019B1A494A13443A7E032118464C
:1048E000FDF7E4F878617B69B3F1FF3F3BD0B97E17
:1048F00042487B691A4652001A441201D21A0B46EA
:10490000DB000B445B015B1A1344034409333A7E1A
:104910001A70BA7E39491346DB0013445B019B1AB7
:104920000B44043301221A7008233B7100237B716E
:104930004FF4FA6309223349334804F097FD334BAF
:10494000186807F10802391D002308F0C3FFBB688F
:10495000002B13D02E4B4FF080521A60BFF34F8FB5
:10496000BFF36F8F0AE0BB7E0133BB76294B1B7808
:10497000BA7E9A429CD302E000BF00E000BF97F8E5
:104980002630012B35D197F827307B7617E07A7ED9
:1049900013465B0013441B019B1A1F4A98187B7E29
:1049A0005A1C13465B0013441B019B1A1A4A1344FA
:1049B0002F2219460CF016FA7B7E01337B767A7E25
:1049C000164B1B78DBB2013B9A42E0DB134B1B78A2
:1049D000DBB25A1E13465B0013441B019B1A0E4A9E
:1049E00013442F22002118460CF0B8F9002387F851
:1049F000263000BF2837BD4680BD00BF9C10002078
:104A0000C8010020AC1B0108D01A0020A01800200B
:104A100004ED00E0A1080020BC180020B818002018
:104A2000F0B587B000AF00237B610023FB7419E071
:104A3000FA7C3B491346DB0013445B019B1A0B4491
:104A40001A78384B5B789A4209D1FA7C1346DB001E
:104A500013445B019B1A324A13447B6107E0FB7CE1
:104A60000133FB74304B1B78FA7C9A42E0D37B69AC
:104A7000002B51D07869FDF77FF8F860FB68B3F13F
:104A8000FF3F49D07B691B78152219462748FCF760
:104A90004BFEFA6813465B0013441B019B1A9033CC
:104AA0007A69134402331F4A184602F12004034670
:104AB0001146D1F800C04E688D68C968C3F800C0BF
:104AC0005E609D60D96010321030A242EFD1034683
:104AD0001468506891681C60586099609189927B55
:104AE00099819A7300237B6005233B727B691B7855
:104AF0007B720F4B18683A1D07F10801002308F07C
:104B0000E9FE7B68002B07D00A4B4FF080521A60F9
:104B1000BFF34F8FBFF36F8F00BF1C37BD46F0BD93
:104B20009C100020C8010020A1080020B81B01082B
:104B3000A418002004ED00E080B500AF0A4B5B79BB
:104B4000052B02D1FFF78EFA0CE0074B5B79062BA1
:104B500002D1FFF761FD05E0034B5B79072B01D123
:104B6000FFF75EFF00BF80BDC801002080B582B0A6
:104B700000AF00BF124B9B69184603F06EFE034660
:104B8000012BF7D112210E48FCF755FB0346FB71B0
:104B9000FB7903F04003002B09D0142214210948AB
:104BA000FCF7C2FDFDF7F6F9FFF7C6FF04E014229B
:104BB00014210548FCF7B8FD00BF0837BD4680BD8D
:104BC0006C010020D01B0108E81B010880B582B0F1
:104BD00000AF00233B60334B1B78012B1CD1324BC1
:104BE0001B680133304A13602F4B1B68092B13D904
:104BF000FDF754FB09233B7100237B714FF4FA63EB
:104C00000F222A492A4804F031FC2A4B18683A46F8
:104C1000391D002308F05EFE274B1B78012B1CD1A9
:104C2000264B1B680133254A1360244B1B68092B54
:104C300013D9FDF757FB09233B7100237B714FF418
:104C4000FA6312221E491A4804F010FC1D4B186822
:104C50003A46391D002308F03DFE1B4B1B78012B03
:104C60001CD11A4B1B680133184A1360174B1B6881
:104C7000092B13D9FDF75AFB09233B7100237B71E4
:104C80004FF4FA6314221249094804F0EFFB114B68
:104C900018683A46391D002308F01CFE00BF08378B
:104CA000BD4680BDA8080020AC0800203C180108C3
:104CB000D01A002098180020A9080020B008002071
:104CC000901A01089C180020AA080020B4080020AF
:104CD000A41A0108A018002080B586B000AF0346D2
:104CE000FB80FB88022B21D1414AFB8853614FF4A2
:104CF0007A7000F02FFEFB8819463E4801F0B4F8A8
:104D00000346002B6BD04FF4FA6306223A493B4826
:104D100004F0ACFB00233B7400237B740023BB74C2
:104D200007F110031846FFF7CBF85DE0FB88042B72
:104D300021D12F4AFB8853614FF47A7000F00AFEAC
:104D4000FB8819462B4801F08FF80346002B48D00A
:104D50004FF4FA6306222A49284804F087FB00230F
:104D60003B7301237B730423BB7307F10C031846C9
:104D7000FFF7A6F838E0FB88082B21D11C4AFB88F6
:104D800053614FF47A7000F0E5FDFB88194619482D
:104D900001F06AF80346002B25D04FF4FA6306228F
:104DA0001849164804F062FB00233B7202237B7211
:104DB0000023BB7207F108031846FFF781F813E0E0
:104DC000FB88012B10D100237B614FF4FA6305228D
:104DD0000D490A4804F04AFBFFF7C8FE04E000BF93
:104DE00002E000BF00E000BF1837BD4680BD00BF35
:104DF000003C014000040240001C0108D01A0020C1
:104E0000081C0108101C0108181C010880B500AF1F
:104E100000F05EFD00F01AF800F0D4F9C82000F0B0
:104E200099FD0BF0A9F900F079F900F0A5F800F070
:104E300075F800F09DF900F0D5F800F021F9052093
:104E4000FDF71AF909F0A4FB00BFFDE780B594B0A7
:104E500000AF07F120033022002118460BF07EFF3F
:104E600007F10C0300221A605A609A60DA601A6136
:104E70000023BB60274B1B6C264A43F0805313640E
:104E8000244B1B6C03F08053BB60BB6800237B602A
:104E9000214B1B68204A43F4404313601E4B1B68A0
:104EA00003F440437B607B6801233B624FF4803313
:104EB0007B620223BB634FF48003FB630F233B64DD
:104EC00090237B640623BB640523FB6407F1200366
:104ED000184602F0A9FB0346002B01D000F028FA87
:104EE0000F23FB6002233B6100237B610023BB6136
:104EF0000023FB6107F10C030121184602F00CFEB0
:104F00000346002B01D000F013FA00BF5037BD4616
:104F100080BD00BF003802400070004080B500AF87
:104F2000124B134A1A60114B124A5A600F4B00225F
:104F30009A600E4B0022DA600C4B4FF480421A61EB
:104F40000A4B00225A61094B00229A61074B00224A
:104F5000DA61064B00221A62044800F0CFFF0346D4
:104F6000002B01D000F0E4F900BF80BD4C190020F7
:104F700000540040A086010080B500AF174B184ACE
:104F80001A60164B4FF482725A60144B00229A60DA
:104F9000124B0022DA60114B00221A610F4B0022E3
:104FA0005A610E4B4FF400729A610C4B2022DA6169
:104FB0000A4B00221A62094B00225A62074B002258
:104FC0009A62064B0A22DA62044802F0B7FF0346EF
:104FD000002B01D000F0ACF900BF80BDA01900206B
:104FE0000030014080B586B000AF07F10803002211
:104FF0001A605A609A60DA603B4600221A605A6072
:105000001E4B4FF080421A601C4B49F63F425A60DB
:105010001A4B00229A60194B40F2E732DA60174BC4
:1050200000221A61154B00229A61144803F066FDB4
:105030000346002B01D000F07BF94FF48053BB6096
:1050400007F1080319460D4803F029FF0346002B1A
:1050500001D000F06DF900233B6000237B603B46EC
:105060001946064804F030F90346002B01D000F041
:105070005FF900BF1837BD4680BD00BFF81900209A
:1050800080B586B000AF07F1080300221A605A60AD
:105090009A60DA603B4600221A605A601D4B1E4A35
:1050A0001A601C4B49F63F425A601A4B00229A6024
:1050B000184B6322DA60174B00221A61154B00224D
:1050C0009A61144803F01AFD0346002B01D000F04A
:1050D0002FF94FF48053BB6007F1080319460D48C0
:1050E00003F0DDFE0346002B01D000F021F9002380
:1050F0003B6000237B603B461946064804F0E4F819
:105100000346002B01D000F013F900BF1837BD464D
:1051100080BD00BF401A00200008004080B500AFED
:10512000114B124A1A60104B4FF4E1325A600E4B89
:1051300000229A600C4B0022DA600B4B00221A61AD
:10514000094B0C225A61084B00229A61064B00223F
:10515000DA61054804F03AF90346002B01D000F06B
:10516000E7F800BF80BD00BF881A00200010014092
:1051700080B500AF114B124A1A60104B4FF4E13268
:105180005A600E4B00229A600C4B0022DA600B4BE7
:1051900000221A61094B0C225A61084B00229A61C5
:1051A000064B0022DA61054804F010F90346002B93
:1051B00001D000F0BDF800BF80BD00BFD01A0020B4
:1051C0000044004080B588B000AF07F10C03002216
:1051D0001A605A609A60DA601A610023BB603D4B26
:1051E0001B6B3C4A43F0800313633A4B1B6B03F089
:1051F0008003BB60BB6800237B60364B1B6B354A6A
:1052000043F001031363334B1B6B03F001037B601B
:105210007B6800233B602F4B1B6B2E4A43F002033D
:1052200013632C4B1B6B03F002033B603B680022B3
:105230004FF48871284800F02FFE4FF48873FB600C
:1052400001233B6100237B610123BB6107F10C0358
:105250001946214800F084FC0123FB604FF48813B9
:105260003B6100237B6107F10C0319461B4800F0EA
:1052700077FC0E23FB604FF488133B6102237B61B4
:1052800007F10C031946154800F06AFC00220721BB
:10529000062000F03BFC062000F054FC0022082110
:1052A000072000F033FC072000F04CFC002208210E
:1052B000082000F02BFC082000F044FC002208210C
:1052C000092000F023FC092000F03CFC00BF20373F
:1052D000BD4680BD0038024000000240000402408C
:1052E00080B400AF00BFFDE780B582B000AF78604A
:1052F0007B681B680C4A934202D100F00BFB0EE066
:105300007B681B68B3F1804F02D1FEF75BF906E0C2
:105310007B681B68054A934201D1FFF757FC00BF29
:105320000837BD4680BD00BF0004004000080040B3
:1053300080B400AF72B600BF00BFFDE780B582B099
:1053400000AF00237B60124B5B6C114A43F4804337
:1053500053640F4B5B6C03F480437B607B680023DA
:105360003B600B4B1B6C0A4A43F080531364084BA1
:105370001B6C03F080533B603B6800220F216FF0F1
:10538000010000F0C3FB00BF0837BD4680BD00BF71
:105390000038024080B58AB000AF786007F114038E
:1053A00000221A605A609A60DA601A617B681B6892
:1053B000194A93422BD100233B61184B1B6B174AB0
:1053C00043F002031363154B1B6B03F002033B61B5
:1053D0003B69C0237B611223BB610023FB61032374
:1053E0003B6204237B6207F1140319460C4800F06A
:1053F000B7FB0023FB60094B1B6C084A43F4001306
:105400001364064B1B6C03F40013FB60FB6800BFC6
:105410002837BD4680BD00BF005400400038024020
:105420000004024080B58AB000AF786007F1140331
:1054300000221A605A609A60DA601A617B681B6801
:10544000194A93422BD100233B61184B5B6C174ADE
:1054500043F480535364154B5B6C03F480533B61FE
:105460003B690023FB60114B1B6B104A43F00103A7
:1054700013630E4B1B6B03F00103FB60FB68E0231F
:105480007B610223BB610023FB6103233B62052395
:105490007B6207F114031946054800F061FB00BF69
:1054A0002837BD4680BD00BF0030014000380240B3
:1054B0000000024080B584B000AF78607B681B6854
:1054C000B3F1804F16D10023FB601A4B1B6C194AB5
:1054D00043F001031364174B1B6C03F00103FB60E3
:1054E000FB68002206211C2000F010FB1C2000F0AD
:1054F00029FB1AE07B681B680F4A934215D10023F1
:10550000BB600C4B1B6C0B4A43F004031364094B48
:105510001B6C03F00403BB60BB68002206211E2045
:1055200000F0F4FA1E2000F00DFB00BF1037BD465E
:1055300080BD00BF003802400008004080B58CB03C
:1055400000AF786007F11C0300221A605A609A606D
:10555000DA601A617B681B68324A93422DD10023BE
:10556000BB61314B5B6C304A43F0100353642E4BEC
:105570005B6C03F01003BB61BB6900237B612A4BAA
:105580001B6B294A43F001031363274B1B6B03F08A
:1055900001037B617B694FF4C063FB6102233B62C3
:1055A00000237B620323BB620723FB6207F11C031A
:1055B00019461E4800F0D4FA30E07B681B681C4A8C
:1055C00093422BD100233B61174B1B6C164A43F4CB
:1055D00000331364144B1B6C03F400333B613B69D1
:1055E0000023FB60104B1B6B0F4A43F00103136356
:1055F0000D4B1B6B03F00103FB60FB680C23FB618D
:1056000002233B6200237B620323BB620723FB620E
:1056100007F11C031946054800F0A2FA00BF303715
:10562000BD4680BD0010014000380240000002402D
:105630000044004080B58EB000AF78600023FB626C
:105640000023BB620023FB60334B1B6C324A43F0E8
:1056500002031364304B1B6C03F00203FB60FB6816
:1056600007F1100207F114031146184602F034FC4A
:105670003B6AFB62FB6A002B03D102F005FC7863F6
:1056800004E002F001FC03465B007B637B6B234A72
:10569000A2FB03239B0C013BBB62214B214A1A60F6
:1056A0001F4B40F2E732DA601D4ABB6A53601C4B65
:1056B00000221A611A4B00229A60194B00229A614B
:1056C000174803F01BFA034687F8333097F8333056
:1056D000002B1BD1124803F061FA034687F83330E0
:1056E00097F83330002B11D11D2000F02BFA7B6886
:1056F0000F2B08D8002279681D2000F007FA0A4A0B
:105700007B68136002E0012387F8333097F8333069
:1057100018463837BD4680BD0038024083DE1B4343
:10572000181B0020000400400400002080B400AFDB
:1057300000BFFDE780B400AF00BFFDE780B400AF5D
:1057400000BFFDE780B400AF00BFFDE780B400AF4D
:1057500000BFFDE780B400AF00BFBD465DF8047B2D
:10576000704780B500AF012000F0B0FB00BF80BDE6
:1057700080B500AF022000F0A9FB00BF80BD80B55E
:1057800000AF042000F0A2FB00BF80BD80B500AFD9
:10579000082000F09BFB00BF80BD000080B500AF7B
:1057A000024803F08CFA00BF80BD00BFF81900204A
:1057B00080B500AF024803F082FA00BF80BD00BF91
:1057C000181B002080B500AF024803F078FA00BF34
:1057D00080BD00BF401A002080B500AF024800F035
:1057E00015FE00BF80BD00BF58C3002080B586B045
:1057F00000AF7860144A154BD31A7B617B693B611B
:10580000134B1B68002B02D1114B124A1A60104B2C
:105810001A687B6813443A699A4207D20BF0B6FAC9
:1058200003460C221A604FF0FF3309E0084B1B6857
:10583000FB60074B1A687B681344054A1360FB68DA
:1058400018461837BD4680BD000002200004000045
:10585000601B0020A8CB002080B400AF064BD3F81B
:105860008830054A43F47003C2F8883000BFBD4653
:105870005DF8047B704700BF00ED00E0DFF834D036
:10588000FFF7EAFF0C480D490D4A002302E0D45807
:10589000C4500433C4188C42F9D30A4A0A4C00237A
:1058A00001E013600432A242FBD30BF075FAFFF75C
:1058B000ADFA7047000002200000002050010020D7
:1058C000DC1C010850010020A4CB0020FEE70000F2
:1058D00080B500AF0E4B1B680D4A43F40073136094
:1058E0000B4B1B680A4A43F480631360084B1B6828
:1058F000074A43F480731360032000F0FCF805208E
:10590000FFF798FEFFF71AFD0023184680BD00BF81
:10591000003C024080B400AF064B1B781A46064B91
:105920001B681344044A136000BFBD465DF8047B46
:10593000704700BF08000020641B002080B400AF47
:10594000034B1B681846BD465DF8047B704700BFDB
:10595000641B002080B584B000AF7860FFF7EEFFD5
:10596000B8607B68FB60FB68B3F1FF3F05D00A4B72
:105970001B781A46FB681344FB6000BFFFF7DEFF8D
:105980000246BB68D31AFA689A42F7D800BF00BF34
:105990001037BD4680BD00BF0800002080B485B030
:1059A00000AF78607B6803F00703FB600C4BDB689B
:1059B000BB60BA684FF6FF031340BB60FB681A0276
:1059C000BB68134343F0BF6343F40033BB60044A36
:1059D000BB68D36000BF1437BD465DF8047B7047D9
:1059E00000ED00E080B400AF044BDB681B0A03F05D
:1059F00007031846BD465DF8047B704700ED00E0E4
:105A000080B483B000AF0346FB7197F90730002BD9
:105A10000BDBFB7903F01F02074997F907305B099D
:105A2000012000FA02F241F8232000BF0C37BD46E6
:105A30005DF8047B704700BF00E100E080B483B0F4
:105A400000AF03463960FB7197F90730002B0ADB82
:105A50003B68DAB20C4997F907301201D2B20B4415
:105A600083F800230AE03B68DAB20849FB7903F0C7
:105A70000F03043B1201D2B20B441A7600BF0C375D
:105A8000BD465DF8047B704700E100E000ED00E0FA
:105A900080B489B000AFF860B9607A60FB6803F049
:105AA0000703FB61FB69C3F10703042B28BF042331
:105AB000BB61FB690433062B02D9FB69033B00E0A1
:105AC00000237B614FF0FF32BB6902FA03F3DA4334
:105AD000BB681A407B699A404FF0FF317B6901FA3D
